:100000000C94AA110C94D5110C94D5110C94D51103
:100010000C94D5110C94D5110C94D5110C94D511C8
:100020000C94D5110C94D5110C94D5110C94D511B8
:100030000C94D5110C94396D0C94D5110C94D511E8
:100040000C9477640C94DA640C9473AF0C94D5110F
:100050000C94CF420C9407430C94D5110C94D511F9
:100060000C94D5110C94D5110C94D5110C94D51178
:100070000C94D5110C94D5110C94D5110C94D51168
:100080000C94D5110C94D5110C94D511B990D9902C
:100090000E91E991D49BD49BD49BD49BD49BD49BAD
:1000A000D49BD49BD49B2C917091B291D49BD49B24
:1000B000D49BD49BD49B8892D1921A935D93D49B6A
:1000C000D49B47948794C794079547958795C79580
:1000D0000E96B19855969696D796189759979A97DF
:1000E000DB9722986998D49BD49BD49BD49BD49BB8
:1000F0009E93E69317940899239966999699A699E1
:10010000CC99039A3A9A759AB39AEE9A2F9B459B8B
:10011000B699D49BD49BD49BD49BD49BD49BD49B87
:10012000D49BD49BD49BD49BD49B1E925292D49BA1
:10013000D49BD49BD49BD49BD49BD49BD49B9B9B80
:10014000D49BBA93D49BD49BD49B619B7F9B084A3E
:10015000D73B3BCE016E84BCBFFDC12F3D6C7431DB
:100160009ABD56833DDA3D00C77F11BED9E4BB4C32
:100170003E916BAAAABE000000803F05A84CCDB2FC
:10018000D44EB93836A9020C50B9918688083CA6DD
:10019000AAAA2ABE000000803F000001001D001C2A
:1001A0000019000000FFFF1B001A0019000100FFEA
:1001B000FF1700160019000200FFFFFFFF0F0004E9
:1001C000000D001500130012001900010007000EB9
:1001D00000556E6B6E6F776E20636F6D6D616E6430
:1001E0003A00536574204D6963726F737465707063
:1001F000696E6700436F6E66696775726174696FD7
:100200006E20726573657420746F20646566617515
:100210006C74732E00436F6E6669677572617469E2
:100220006F6E206C6F616465642066726F6D20452F
:100230004550524F4D2E00436F6E6669677572616F
:1002400074696F6E2073746F72656420746F2045DB
:100250004550524F4D2E006C696E656172204C3ACC
:10026000002C206D6F7665206166746572203D20DC
:10027000002C206261636B736C617368203D200009
:100280002C2072657472616374203D20006D696E6C
:100290002064697374616E6365203D20004F505384
:1002A0002066617374206D6F64653A004F5053206F
:1002B000636C6173736963206D6F64653A004F50BE
:1002C000532064697361626C6564002C20737065EF
:1002D00065643D00206C696E6561722073746570A1
:1002E000733A00205A4A65726B3A004A65726B3A5B
:1002F000004C20004820007A5F6D696E3A004C2067
:1003000000482000795F6D696E3A004C200048205B
:1003100000785F6D696E3A00206D696E0020686F2D
:100320007572732000206461797320005072696EC9
:1003300074696E672074696D653A00206D005072B3
:10034000696E7465642066696C616D656E743A00EF
:100350004649524D574152455F4E414D453A5265CF
:100360007065746965725F302E383064657620463A
:1003700049524D574152455F55524C3A687474701A
:10038000733A2F2F6769746875622E636F6D2F72D1
:10039000657065746965722F526570657469657200
:1003A0002D4669726D776172652F2050524F544F00
:1003B000434F4C5F56455253494F4E3A312E3020F1
:1003C0004D414348494E455F545950453A4D656E3D
:1003D00064656C2045585452554445525F434F550F
:1003E0004E543A312052455045544945525F50527F
:1003F0004F544F434F4C3A320048656174696E6701
:10040000204265640048656174696E6720457874B0
:1004100072756465720020746F2000536574206FDC
:10042000757470757420006572726F723A20496E2F
:1004300076616C69642061726300486F6D65205A53
:1004400000486F6D65205900486F6D652058004663
:100450006C6F774D756C7469706C793A0053706588
:1004600065644D756C7469706C793A0020403A008F
:1004700020423A00543A0020453A00205A3A0020DF
:10048000593A00583A00616476616E6365204C20E9
:100490005B303D6F66665D0064697374616E6365B1
:1004A00020746F2072657472616374207768656E62
:1004B0002068656174696E67205B6D6D5D007465B1
:1004C0006D702E20666F722072657472616374693C
:1004D0006F6E207768656E2068656174696E67204D
:1004E0005B435D0074656D702E2073746162696C8E
:1004F000697A652074696D65205B735D00592D6FA5
:100500006666736574205B73746570735D00582D47
:100510006F6666736574205B73746570735D0050FD
:100520004944206D61782076616C7565205B302DC3
:100530003235355D0050494420442D6761696E00B5
:1005400050494420492D6761696E0050494420504C
:100550002D6761696E005049442064726976652098
:100560006D696E00504944206472697665206D6142
:10057000780068656174206D616E61676572205BEB
:10058000302D315D00616363656C65726174696F04
:100590006E205B6D6D2F735E325D007374617274DB
:1005A000206665656472617465205B6D6D2F735D97
:1005B000006D61782E206665656472617465205BEC
:1005C0006D6D2F735D00737465707320706572209C
:1005D0006D6D0042656420504944206D617820763D
:1005E000616C7565205B302D3235355D0042656488
:1005F0002050494420442D6761696E0042656420A3
:1006000050494420492D6761696E0042656420505D
:10061000494420502D6761696E004265642050494D
:1006200044206472697665206D696E0042656420BD
:10063000504944206472697665206D617800426596
:10064000642048656174204D616E61676572205B4E
:10065000302D325D004F50532072657472616374A7
:10066000696F6E206261636B6C617368205B6D6D96
:100670005D004F50532072657472616374696F6ED0
:10068000206C656E677468205B6D6D5D004F505324
:10069000206D696E2E2064697374616E63652066D7
:1006A0006F722066696C2E20726574726163746962
:1006B0006F6E205B6D6D5D004F5053206D6F7665E2
:1006C000206166746572207825207265747261639A
:1006D00074205B255D004F5053206F70657261740C
:1006E000696F6E206D6F6465205B303D4F66662CD0
:1006F000313D436C61737369632C323D46617374A1
:100700005D005A2D617869732074726176656C2082
:10071000616363656C65726174696F6E205B6D6D9A
:100720002F735E325D00592D617869732074726198
:1007300076656C20616363656C65726174696F6E68
:10074000205B6D6D2F735E325D00582D617869738B
:100750002074726176656C20616363656C6572619B
:1007600074696F6E205B6D6D2F735E325D005A2D64
:100770006178697320616363656C65726174696F28
:100780006E205B6D6D2F735E325D00592D6178694F
:100790007320616363656C65726174696F6E205B61
:1007A0006D6D2F735E325D00582D61786973206125
:1007B0006363656C65726174696F6E205B6D6D2F2C
:1007C000735E325D005A206261636B6C61736820F6
:1007D0005B6D6D5D0059206261636B6C61736820B5
:1007E0005B6D6D5D0058206261636B6C61736820A6
:1007F0005B6D6D5D005A206D6178206C656E67746D
:1008000068205B6D6D5D0059206D6178206C656EB0
:10081000677468205B6D6D5D0058206D6178206C99
:10082000656E677468205B6D6D5D005A20686F6D42
:100830006520706F73205B6D6D5D005920686F6D72
:100840006520706F73205B6D6D5D005820686F6D63
:100850006520706F73205B6D6D5D004D61782E209B
:100860005A2D6A65726B205B6D6D2F735D004D6153
:10087000782E206A65726B205B6D6D2F735D005A58
:100880002D6178697320686F6D696E672066656594
:100890006472617465205B6D6D2F735D00592D610D
:1008A00078697320686F6D696E672066656564722C
:1008B000617465205B6D6D2F735D00582D617869E3
:1008C0007320686F6D696E67206665656472617418
:1008D00065205B6D6D2F735D005A2D617869732003
:1008E0006D61782E206665656472617465205B6D4C
:1008F0006D2F735D00592D61786973206D61782EBD
:10090000206665656472617465205B6D6D2F735D33
:1009100000582D61786973206D61782E20666565B9
:100920006472617465205B6D6D2F735D005A2D617B
:1009300078697320737465707320706572206D6DB3
:1009400000592D6178697320737465707320706528
:1009500072206D6D00582D61786973207374657015
:100960007320706572206D6D0053746F7020737406
:10097000657070657220616674657220696E61636E
:10098000746976697479205B6D732C303D6F66668F
:100990005D004D61782E20696E6163746976652013
:1009A00074696D65205B6D732C303D6F66665D000C
:1009B0005072696E74657220616374697665205B3C
:1009C000735D0046696C616D656E74207072696E4E
:1009D000746564205B6D5D0042617564726174656D
:1009E00000416464696E672066696C616D656E7450
:1009F0003A0050726F746F636F6C20766572736922
:100A00006F6E206368616E6765642C207570677215
:100A10006164696E67004550523A3020004550527B
:100A20003A3120004550523A3220004550523A3374
:100A30002000457874722E004D313230205335201D
:100A400050350A4D313137204578747275646572BE
:100A50002031000001005072696E74657220736568
:100A60007420696E746F206472792072756E206DC7
:100A70006F646520756E74696C2072657374617241
:100A80007421003A20776F726B696E67003A2074A8
:100A9000656D702073656E736F7220646566656343
:100AA000740065787472756465722000686561749D
:100AB000656420626564002000200020004D5445DC
:100AC0004D503A00504944204175746F74756E65FD
:100AD0002066696E6973686564202120506C6163CB
:100AE0006520746865204B702C204B6920616E6412
:100AF000204B6420636F6E7374616E747320696E33
:100B00002074686520636F6E6669677572617469C9
:100B10006F6E2E6800504944204175746F74756E75
:100B200065206661696C6564212074696D656F7507
:100B30007400504944204175746F74756E65206669
:100B400061696C6564212054656D706572617475AE
:100B5000726520746F206869676800204B643A20D2
:100B600000204B693A2000204B703A200020436C53
:100B7000617373696320504944002054753A200022
:100B8000204B753A2000206D61783A2000206D6975
:100B90006E3A200020643A200020626961733A2096
:100BA00000504944204175746F74756E65207374EC
:100BB000617274001C151C141C0000E10B510CA583
:100BC0000C150D650D0000000054617267657442DC
:100BD00065643A003A0054617267657445787472CE
:100BE000000000A00F5C006009690010097900C0D6
:100BF000088C007008A2002008BD00D007DE00802D
:100C000007050130073401E0066D019006B201408E
:100C1000060702F0056D02A005E80250057B0300FF
:100C2000052B04B004F8046004EB06C0033509206A
:100C3000037F0B8002650DE001B00E40011D0FF037
:100C400000480FC8006C0FA000ED0F60FFFE0F48BA
:100C5000FE0400801AD8009808AC012007800250DA
:100C6000065403C80528045805FC040005D005B047
:100C700004A4066804780728044C08E8032009B097
:100C800003F4097003C80A38039C0BF802700CB017
:100C900002440D6802180E0802EC0E8801C00F888D
:100CA00000F00F00000400001B54006009640010F5
:100CB000097400C008840070089C002008B800D0A7
:100CC00007D8008007000130072C01E0066801907A
:100CD00006AC0140060002F0056802A005E00250E3
:100CE00005740300052404B004F0046004DC05105E
:100CF00004E406C0030408700330092003780B8065
:100D000002600DE001A80E4001680FA000C00F00B6
:100D100000E80F60FF0400700DD8004804AC0158D3
:100D2000038002D8025403800228043802FC040025
:100D300002D005C801A4069801780770014C084844
:100D40000120091801F409F000C80AC8009C0BA092
:100D500000700C7000440D3800180E0000EC0EA856
:100D6000FFC00FE8FE0400001B540060096400107F
:100D7000097400C008840070089C002008B800D0E6
:100D800007D8008007000130072C01E006680190B9
:100D900006AC0140060002F0056802A005E0025022
:100DA00005740300052404B004F0046004DC05109D
:100DB00004E406C0030408700330092003780B80A4
:100DC00002600DE001A80E4001680FA000C00F00F6
:100DD00000E80F60FF205200204A00204900205008
:100DE00000205300204600204500205A00205900D2
:100DF0002058004572726F723A2057726F6E6720EA
:100E0000636865636B73756D20004572726F723A2B
:100E100042696E61727920636D642077726F6E67CC
:100E200020636865636B73756D2E00446F6E65207B
:100E30007072696E74696E672066696C65005344F0
:100E40002072656164206572726F720077616974E7
:100E5000004563686F3A006F6B20006F6B00736B27
:100E60006970200020676F7420004572726F723ABB
:100E7000206578706563746564206C696E65200018
:100E80006F6B006F6B00526573656E643A0065723C
:100E9000726F723A00494E46004E414E0049646CF2
:100EA0006500424C4B20005374657070657220449D
:100EB000697361626C6564004B696C6C65640050B9
:100EC00072696E74696E670000006889B4C4CD2DC4
:100ED0005A6248E8E696C55C2D31440F24F4F2DDF1
:100EE00073CBCCBB62AEC2A296989C8FA2877E8049
:100EF000127A4174F96E256AB965A861E65D6C5A8B
:100F000031572F546151C14E4B4CFB49CE47C1451F
:100F1000D143FB413F40993E093D8B3B203AC638C7
:100F20007C3740361235F133DC32D331D430DE2F0A
:100F3000F32E102E362D632C982BD42A172A6129D4
:100F4000B02805286027C02625268F25FD2470247B
:100F5000E7236123E0226222E8217121FD208D2018
:100F60001F20B41F4C1FE71E841E241EC51D6A1DB2
:100F7000101DB81C631C0F1CBE1B6E1B201BD41A3B
:100F8000891A401AF819B2196E192B19E918A918FB
:100F90006A182C18EF17B317791740170817D116CE
:100FA0009B1665163116FE15CC159A156A153A155D
:100FB0000B15DD14B014841458142D140214D91315
:100FC000B0138813601339131213EC12C712A21254
:100FD0007E125B1238121512F311D211B01190115A
:100FE0007011501131111211F410D610B8109B105D
:100FF0007E10621046102B100F10F40FDA0FC00F86
:10100000A60F8C0F730F5A0F420F290F120FFA0EF3
:10101000E20ECB0EB50E9E0E880E720E5C0E460EC4
:10102000310E1C0E070EF30DDF0DCB0DB70DA30D0A
:10103000900D7D0D6A0D570D440D320D200D0E0DD6
:10104000FC0CEA0CD90CC80CB70CA60C950C850C42
:10105000740C640C540C440C350C250C160C060C4A
:10106000F70BE80BD90BCB0BBC0BAE0BA00B920B09
:10107000840B760B680B5A0B4D0B400B320B250B78
:10108000180B0C0BFF0AF20AE60AD90ACD0AC10AAC
:10109000B50AA90A9D0A910A850A7A0A6E0A630AA4
:1010A000580A4D0A420A370A2C0A210A160A0C0A63
:1010B000010AF709EC09E209D809CE09C409BA09FD
:1010C000B009A6099C09920989090000121389092F
:1010D0005B06C404D0032D03B90262021E02E801BC
:1010E000BB01960177015C01450131014563686FE1
:1010F0003A0073746172740020002D2D2D2D2D2D5A
:101100002D2D2D2D2D2D2D2D2D2D2D2D2D2D2D2D0F
:101110002D2D2D2D2D2D2D2D2D2D2D2D005374618B
:101120007274757020436F6D706C657465642E2EDB
:101130002E002000436865636B696E672050574D31
:101140002C2054696D6572732C20496E746572721F
:101150007570747320616E64205072657363616C86
:101160006572002000436F6E6669677572696E670D
:10117000204F50530020002000436865636B696E68
:1011800067206966207765206861766520616E203A
:101190005344206361726420696E7374616C6C6582
:1011A000640020005265616420636F6E6669677534
:1011B000726174696F6E2066726F6D204545505282
:1011C0004F4D002000496E697469616C6973652038
:1011D0004578747275646572002000536F66747789
:1011E0006172652052657365740057617463686449
:1011F0006F672052657365740042726F776E206F5F
:1012000075742052657365740045787465726E61FB
:101210006C20526573657400506F7765725570006D
:10122000526561736F6E20666F72206C61737420FB
:10123000706F776572646F776E3A002000554920B1
:10124000737461727465642E204C43442073686F1C
:10125000756C64206E6F77206265207570206966FA
:1012600020636F6E6E656374656400200053746163
:101270007274696E67205573657220496E74657269
:10128000666163650020002A53595354454D20532D
:101290005441525455502050524F434544555245A5
:1012A00020414E442053414E495459204348454320
:1012B0004B2A0020002D2D2D2D2D2D2D2D2D2D2DAA
:1012C0002D2D2D2D2D2D2D2D2D2D2D2D2D2D2D2D4E
:1012D0002D2D2D2D2D2D2D0020202020204F70650F
:1012E0006E48617264776172652E636F2E7A612039
:1012F00020202000202020204669726D77617265D1
:10130000206D6F6469666965642062792020200021
:101310002D2D2D2D2D2D2D2D2D2D2D2D2D2D2D2DFD
:101320002D2D2D2D2D2D2D2D2D2D2D2D2D2D2D2DED
:101330002D2D00202020204C657473204D616B659D
:1013400020417765736F6D652E2E2E202020002D95
:101350002D2D2D2D2D2D2D2D2D2D2D2D2D2D2D2DBD
:101360002D2D2D2D2D2D2D2D2D2D2D2D2D2D2D2DAD
:101370002D005475726E6564206F6E2050535500B9
:10138000496E697469616C697365205053550054E6
:1013900075726E6564206F6E2050535500496E69FA
:1013A0007469616C697365205053550043726561BF
:1013B00074696F6E206661696C656400446972656A
:1013C00063746F727920637265617465640044654B
:1013D0006C6574696F6E206661696C65640046694E
:1013E0006C652064656C657465640046696C652095
:1013F00064656C6574656400446F6E652073617626
:10140000696E672066696C652E0057726974696E33
:101410006720746F2066696C653A200055706C6FA8
:101420006164696E672E2E2E006F70656E20666196
:10143000696C65642C2046696C653A20004E6F74B7
:10144000205344207072696E74696E67002F0053D8
:1014500044207072696E74696E67206279746520C9
:101460000066696C652E6F70656E206661696C65DB
:10147000640046696C652073656C6563746564001F
:101480002053697A653A0046696C65206F70656E15
:1014900065643A00456E642066696C65206C69730A
:1014A0007400426567696E2066696C65206C6973BB
:1014B00074006572726F722077726974696E67204A
:1014C000746F2066696C6500534420696E69743AD4
:1014D00020436172642077617320496E6974696189
:1014E0006C697365642053756363657366756C6CB2
:1014F000792077697468206E6F206572726F720050
:10150000534420696E6974206661696C656420616A
:1015100074205344494E4954000D0A007C3C3E5E01
:101520002B3D3F2F5B5D3B2C2A225C004E6F2065DC
:1015300072726F7220666F756E642E0043616E2743
:1015400074206F70656E20726F6F742064697265AD
:1015500063746F72792E00496E76616C69642066DF
:101560006F726D61742C207265666F726D6174208C
:1015700053442E004E6F20636172642C2077726F8B
:101580006E6720636869702073656C656374207092
:10159000696E2C206F72205350492070726F626CFC
:1015A000656D3F0043616E277420616363657373EB
:1015B00020534420636172642E20446F206E6F7448
:1015C000207265666F726D61742E006572726F7243
:1015D0003A20006572726F723A200053442065729F
:1015E000726F72436F64653A203058004C180000E7
:1015F0000000000000000100000000FF0000416347
:1016000074696F6E3A256C6100031027020051184F
:10161000031027020055180100000100EC1503100B
:10162000270200591802000006005D1803ED0304AC
:1016300000691803EE030400711803EF0304007936
:101640001803FA030400811803FB0304008918033C
:10165000FC03040091180200000800991802000021
:101660000500A9180200000B00B3185265717565DA
:10167000737450617573653A0046616E7370656589
:10168000643A0046616E73706565643A0046616E47
:1016900073706565643A3235350046616E73706506
:1016A00065643A3139320046616E73706565643A3B
:1016B0003132380046616E73706565643A363400C5
:1016C00046616E73706565643A30004E6F20534416
:1016D000204361726400436F6F6C646F776E0050DB
:1016E0007265686561742041425300507265686597
:1016F000617420504C4100802500004038000000FB
:101700004B00008070000000960000C0DA0000006E
:10171000E10000002C010008B2010000C20100003D
:10172000F401000084030090D0030000E8030000EF
:10173000000000466C6F77726174654D756C74695A
:10174000706C793A000200000700C91844656C65A6
:1017500074696F6E206661696C65640046696C65CA
:101760002064656C657465640066696C652E6F70D5
:10177000656E206661696C65640046696C652073FE
:10178000656C6563746564002053697A653A004648
:10179000696C65206F70656E65643A00D718DE1855
:1017A000E5184F6E004F666600596573004E6F0076
:1017B000030004004E2F41005049440042616E670F
:1017C00042616E67005072696E74696E672E2E2ECC
:1017D00000646566000000003FCDCC4C3D0AD7A3F5
:1017E0003B6F12033A00401454526570657469658A
:1017F0007220302E3830646576004F70656E486117
:101800007264776172652E636F2E7A61005072691F
:101810006E7465722072656164792E00040E150481
:101820001C000000040A040000000000001F1F1F2D
:101830001F1F0000001F1111111F0000040A0A0AD7
:101840000E1F1F0E001C1F11111F0000EC1803E8D3
:1018500003F318F818FD18021907190C19111916B5
:10186000191B19201925192A192F19341939193E4C
:1018700019431948194D19521957195C19611966FC
:10188000196B19701975197A197F19841989198EAC
:1018900019931998199D19A219A719AC19B119B65C
:1018A00019BB19C019C519CA19CF19D419D919DE0C
:1018B00019E319A719E819ED19F219F719FC19011B
:1018C0001A061A0B1A101ADE19151A1A1A1F1A24D8
:1018D0001A291A2E1A331A0000000400381A0000C0
:1018E000000400401A0000000400481A4261636BC3
:1018F000200100501A0000005E1A0000006F1A005C
:1019000000007D1A0000008E1A0000009E1A0000E0
:1019100000A21A03F503AD1A03F603B91A03F7037D
:10192000C81A03F803D51A03F903E01A03F403EC09
:101930001A000000F51A000000051B000000151B2E
:10194000000000161B0000001F1B0000002F1B00E2
:1019500000003F1B000000401B000000491B00006E
:1019600000591B000000691B0000006A1B000000FA
:10197000731B000000831B000000931B00000094F9
:101980001B0000009D1B000000AD1B000000BD1BE4
:10199000000000BE1B000000C71B000000D71B009A
:1019A0000000E71B000000E81B03FD03F11B0337E9
:1019B00004FD1B034704091C041F041B1C044804EA
:1019C0002D1C033804361C033104441C0342045408
:1019D0001C043C04641C043D04741C033A04831C72
:1019E00002921C991C034304A41C03FE03AB1C03BA
:1019F000FF03B21C030004B91C024116C51C022CD3
:101A000016D01C024816DC1C023316E71C024F16C7
:101A1000F31C023A16FE1C0256160D1D0264161621
:101A20001D025D161F1D02291D301D022516381DC1
:101A300002421D491D02571D5E1D631D681D6D1D5F
:101A4000721D771D7C1D811D861D8B1D901D951D92
:101A5000436F6E66696775726174696F6E00737447
:101A60006F72656420696E20454550524F4D0043AA
:101A70006F6E66696775726174696F6E006C6F6115
:101A800064656420662E20454550524F4D002A2A39
:101A90002A2A204552524F52202A2A2A2A00256FEC
:101AA00065005072696E742066696C6500506175DE
:101AB0007365205072696E7400436F6E74696E7541
:101AC00065205072696E7400556E6D6F756E74206E
:101AD00043617264004D6F756E74204361726400DF
:101AE00044656C6574652066696C6500583A2578B4
:101AF00030206D6D004D696E20656E6473746F707B
:101B00003A257378004D617820656E6473746F7048
:101B10003A2573580000593A257831206D6D004DF3
:101B2000696E20656E6473746F703A257379004D29
:101B3000617820656E6473746F703A257359000084
:101B40005A3A257832206D6D004D696E20656E64BD
:101B500073746F703A25737A004D617820656E64F6
:101B600073746F703A25735A0000583A2578302004
:101B70006D6D004D696E20656E6473746F703A25EB
:101B80007378004D617820656E6473746F703A25C8
:101B900073580000593A257831206D6D004D696EFB
:101BA00020656E6473746F703A257379004D6178A7
:101BB00020656E6473746F703A25735900005A3A49
:101BC000257832206D6D004D696E20656E647374EA
:101BD0006F703A25737A004D617820656E64737476
:101BE0006F703A25735A0000486F6D6520416C6C28
:101BF000005072656865617420504C4100507265F8
:101C00006865617420414253005370656564204DDE
:101C1000756C2E3A256F6D25252500466C6F772053
:101C20004D756C2E203A256F6625252500436F6F74
:101C30006C646F776E0053657420746F204F726907
:101C400067696E0044697361626C652073746570C6
:101C5000706572004265642054656D702E3A2545AA
:101C60006202430054656D702E203020203A2545D5
:101C70003002430045787472756465722030204FDD
:101C8000666600457874722E20706F736974696F90
:101C90006E0003F00302009A1D536574204F7269B1
:101CA00067696E00486F6D65205800486F6D65204C
:101CB0005900486F6D65205A005820506F732E20D0
:101CC00046617374005820506F736974696F6E00B9
:101CD0005920506F732E2046617374005920506F45
:101CE000736974696F6E005A20506F732E204661BD
:101CF0007374005A20506F736974696F6E00517568
:101D000069636B2053657474696E677300506F73F9
:101D10006974696F6E004578747275646572004607
:101D2000616E2073706565640002000005009E1DF1
:101D30005344204361726400446562756767696E4D
:101D400067000200000400A81D436F6E6669677596
:101D5000726174696F6E000200000700B01DBE1D45
:101D6000000000D11D000000D71D000000E71D008D
:101D70000000EB1D000000F41D000000FD1D000030
:101D800000061E0000000A1E0000001B1E000000CE
:101D90001C1E0000002C1E000000301E351E3A1EC6
:101DA0003F1E441E491E4E1E531E581E5D1E621EBF
:101DB000671E6C1E711E761E7B1E801E851E0525ED
:101DC00065632F25456302422565422F2545620242
:101DD000005A3A257832004D756C3A256F6D2042D5
:101DE00075663A256F4200256F7300583A257830A2
:101DF000206D6D00593A257831206D6D005A3A25D5
:101E00007832206D6D00256F730045313A256530BD
:101E10002F25453002437E256F300000423A25656C
:101E2000622F25456202437E256F6200256F730095
:101E30008A1E000000931E000000A21E031A04AFB9
:101E40001E031B04BD1E031C04CB1E031D04D91E50
:101E5000031E04E61E033204F21E033304FE1E03B7
:101E600034040A1F033504161F021E1F251F022FEC
:101E70001F361F02431F4A1F02531F5A1F02631FB0
:101E80006A1F0306047A1F030704453A25783320A6
:101E90006D6D003120636C69636B203D2031206DD6
:101EA0006D005475726E2046616E204F6666005359
:101EB00065742046616E20323525252500536574F2
:101EC0002046616E20353025252500536574204657
:101ED000616E203735252525005365742046616ED7
:101EE0002046756C6C004563686F2020203A25649D
:101EF0006F00496E666F2020203A256469004572A4
:101F0000726F7273203A256465004472792072758D
:101F10006E3A2564640047656E6572616C0002006C
:101F2000000300891F416E7469204F6F7A650002BB
:101F3000000007008F1F416363656C6572617469FF
:101F40006F6E0002000008009D1F466565647261A7
:101F50007465000200000600AD1F45787472756458
:101F60006572000200000F00BD1F53746F72652080
:101F7000746F20454550524F4D004C6F6164206690
:101F80002E20454550524F4D00DB1FE01FE51FEA54
:101F90001FEF1FF41FF91FFE1F032008200D201242
:101FA0002017201C20212026202B2030200D20123D
:101FB0002017201C20212026202B20302035203ADD
:101FC000203F20442049204E20532058205D20628D
:101FD0002067206C20712076207B20802004100454
:101FE0008D20029E20A52002B320BA20033F04C604
:101FF00020034004D620034104E320040204F2201D
:10200000040304012104050410210404041F210415
:1020100008042B210409043721040A044321040B7A
:10202000044F21040C045B21040D046721040E04F9
:102030007321040F047F210429048C21042C0499AA
:1020400021042B04A421042A04AE21042E04BC2163
:10205000044D04CF21044C04E021044604F0210483
:102060002D04FC210422040622042304102204244B
:10207000041A2204250428220426043622042F04EC
:1020800042617564726174653A256F6300537465CB
:102090007070657220496E61637469766500032013
:1020A00004020042224D61782E20496E61637469FA
:1020B00076650003210402004622254F30204F5050
:1020C00053204F666600254F31204F505320436CFC
:1020D000617373696300254F32204F50532046616E
:1020E000737400526574726163742020203A254F26
:1020F00072004261636B736C2E2020203A254F6280
:10210000004D696E2E6469737420203A254F640077
:102110004D6F76652061667465723A254F61005097
:1021200072696E7420583A256178005072696E7435
:1021300020593A256179005072696E74205A3A2507
:10214000617A004D6F76652058203A256158004D20
:102150006F76652059203A256159004D6F766520CC
:102160005A203A25615A004A65726B2020203A2590
:10217000616A005A2D4A65726B203A25614A005304
:10218000746570732F4D4D3A255365005374617219
:10219000742046523A255866004D61782046523ADE
:1021A00025584600416363656C3A255841005374D5
:1021B00061622E54696D653A2558770057616974DC
:1021C00020556E6974733A20255855206D6D00575F
:1021D0006169742054656D702E20255854024300A7
:1021E000416476616E6365206C696E3A25586C00B7
:1021F000436F6E74726F6C3A2558680050494420E2
:10220000503A2558700050494420493A25586900F1
:1022100050494420443A2558640044726976652048
:102220004D696E3A25586D004472697665204D619E
:10223000783A25584D00504944204D61783A255848
:1022400044004A224F22542259225E220000006D8F
:10225000220000007722000000862200000044696E
:10226000732E2041667465723A256973005B735D55
:1022700020303D4F6666004469732E2041667465C8
:10228000723A256970005B735D20303D4F666600D1
:1022900000002100240027002A0000002200250061
:1022A00028002B0000002000230026002900020245
:1022B00002020202020204040404040404040303EC
:1022C00003030303030301010101010101010102F1
:1022D0000408102040800102040810204080010200
:1022E00004081020408080402010080402010000F3
:1022F00000010200000000000000040307060000C7
:102300000000000000000000000000000000494E36
:1023100046494E4954594E414ECDCCCC3D0AD72367
:102320003C17B7D13877CC2B329595E6241FB14FA7
:102330000A000020410000C84200401C4620BCBEEC
:102340004CCA1B0E5AAEC59D74002745A5739878DC
:1023500009909E7311241FBECFEFD0E4DEBFCDBF26
:1023600012E0A0E0B1E0EAEAF2E701E00BBF02C050
:1023700007900D92AC34B107D9F71BBE1FE0ACE457
:10238000B2E001C01D92A93FB107E1F713E2C2E537
:10239000D3E204C02297FE010E94FAB8CA34D107E2
:1023A000C9F70E94B6B10C9448B90C940000A0E0A3
:1023B000B0E0EDEDF1E10C9417B9EC015B016115B2
:1023C000710519F0FB0191838083F9908F2D90E0C6
:1023D0000E94FEB8892BC9F7FDE2FF1621F4F9909F
:1023E000EE24E39405C02BE2F21609F4F990EE24F2
:1023F0008E0101501040C8016EE073E243E050E0EE
:102400000E946614892B01F58E010E5F1F4FC801D3
:1024100061E173E245E050E00E946614892B19F4F3
:102420008E01095F1F4FA114B10419F0F50111834A
:102430000083E0FC04C070E090E080E814C070E02D
:1024400090E080E86FEF08C1C80166E173E243E005
:1024500050E00E946614892B69F4A114B10429F498
:1024600070E090E080EC6FE7F7C02296F501D18331
:10247000C083F6CF8824992440E050E060E070E00B
:10248000EF2DE053EA30A0F5F2E0EF2A8E2D90E038
:102490009C0128703070E2FE06C0232B79F5089469
:1024A000811C911C2BC0232B19F0089481089108E2
:1024B000DB01CA0112E0880F991FAA1FBB1F1A95E2
:1024C000D1F7480F591F6A1F7B1F440F551F661F06
:1024D000771F4E0F511D611D711D483929E95207A3
:1024E00029E9620729E1720748F084E0E82A06C07A
:1024F000EE3F31F4E3FC39C098E0E92AF990C0CF0F
:10250000E53311F0E53189F529912D3219F4E0E137
:10251000EE2A05C02B3219F081E090E003C029912A
:1025200082E090E0E22FE053EA3018F0C81BD90BAC
:102530001CC020E030E0FCE020383F075CF4C9011B
:10254000880F991F880F991F280F391F220F331FDB
:102550002E0F311DE991E053EA3068F3E4FE03C029
:10256000309521953F4F820E931ECE2CDD24E1FE47
:1025700007C0A114B10421F02197F501D183C083D4
:10258000CB01BA010E948FB57B018C01F3E0CF2211
:10259000DD2423E0C216D10421F417FB109517F9AE
:1025A000109557016801C801B70120E030E040E014
:1025B00050E00E94EFB4882309F44AC097FE0DC092
:1025C0002DE2E22E23E2F22E9094819491089394CE
:1025D000C0E2D0E000E010E012C095E4E92E93E202
:1025E000F92EF6CFF7012591359145915491C60109
:1025F000B5010E949FB75B016C018C1A9D0A8C1675
:102600009D0684F7D595C7950F5F1F4F06301105BE
:1026100029F08CEF9FEFE80EF91EF1CFC501D6012E
:102620007C018D018C2D880F8D2D881F8F3F51F0DF
:10263000C601B50120E030E040E050E00E94EFB478
:10264000882331F482E290E09093F80F8093F70FA3
:102650007E2D9F2D802F612F272F392F482F562F0A
:10266000B901CA01CDB7DEB7ECE00C9433B92F92B3
:102670003F925F926F927F928F929F92AF92BF92A2
:10268000CF92DF92EF92FF920F931F93CF93DF933E
:102690008C011B01EA016115710519F0FB019183A1
:1026A0008083209749F0CE010297839728F020E09D
:1026B00030E040E050E0F6C0F801A1908F018A2D93
:1026C00090E00E94FEB8892BB9F7FDE2AF1631F415
:1026D000F801A1908F015524539407C0FBE2AF1677
:1026E00019F4F801A1908F015524209719F0C031F9
:1026F000D105C1F4F0E3AF1679F4F8018081883791
:1027000011F0883549F4F801A1800E5F1F4FF2E007
:102710005F2AC0E1D0E006C0209721F480E3A8162C
:10272000E9F427C0C830D10531F1C930D10524F40E
:10273000C230D10531F50CC0CA30D10589F0C031A5
:10274000D105F9F4C12CD12CE12CB8E0FB2E28C026
:10275000C12CD12CE12CA0E4FA2E22C0CAE0D0E09A
:10276000FCECCF2EFCECDF2EFCECEF2EFCE0FF2E81
:1027700017C0C8E0D0E0C12CD12CE12CE0E1FE2E46
:102780000FC09E01442737FD4095542F60E070E054
:1027900080E090E80E94BBB8C901DA016C017D01BC
:1027A00020E030E040E050E060E03E01882477FC2B
:1027B0008094982C70EDB72EBA0CE9E0EB1570F40C
:1027C0008A2D81548A3118F499ECB92E06C08A2DCD
:1027D00081568A3150F589EAB82EBA0C8B2D90E0DB
:1027E0008C179D0714F56F3FE1F0C216D306E4067F
:1027F000F506B0F0CA01B901A40193010E9475B8B1
:102800009B01AC012B0D311D411D511D2130F0E00C
:102810003F07F0E04F07F0E85F0710F461E001C008
:102820006FEFF801A1908F01C5CF2114310481F021
:10283000662331F001501040F1011183008308C07C
:1028400051FE1AC002501040F1011183008314C0E0
:1028500067FF12C050FC05C02FEF3FEF4FEF5FE75F
:1028600004C020E030E040E050E882E290E0909345
:10287000F80F8093F70F16C050FE08C05095409592
:10288000309521953F4F4F4F5F4F0CC057FF0AC007
:1028900082E290E09093F80F8093F70F2FEF3FEFD5
:1028A0004FEF5FE7B901CA01DF91CF911F910F91FF
:1028B000FF90EF90DF90CF90BF90AF909F908F9060
:1028C0007F906F905F903F902F900895FB01DC0107
:1028D0004150504088F08D9181341CF08B350CF4C0
:1028E000805E659161341CF06B350CF4605E861B74
:1028F000611171F3990B0895881BFCCFFB01DC017A
:1029000004C08D910190801921F441505040C8F7C6
:10291000881B990B0895FB01DC0102C001900D9208
:1029200041505040D8F70895FC018191861721F05D
:102930008823D9F7992708953197CF010895A0E00A
:10294000B0E0E5EAF4E10C941BB97C01EB018A01EB
:10295000690109C0CE012196F6010995F70181931D
:102960007F010150104001151105A1F7CDB7DEB769
:10297000E8E00C9437B9BF92CF92DF92EF92FF92CA
:102980000F931F937B018C01FB010995B82EC801A1
:102990000196F7010995C82EC8010296F70109951D
:1029A000D82EC8010396F7010995982F6B2D7C2D21
:1029B0008D2D1F910F91FF90EF90DF90CF90BF90E2
:1029C0000895DF92EF92FF920F931F937B018C018A
:1029D000FB010995D82EC8010196F7010995982F9A
:1029E0008D2D1F910F91FF90EF90DF900895A0E043
:1029F000B0E0EDEFF4E10C941BB9EC017B018A012E
:102A0000690109C0CE012196F70161917F01F601AC
:102A100009950150104001151105A1F7CDB7DEB79A
:102A2000E8E00C9437B9BF92CF92DF92EF92FF9219
:102A30000F931F93D52EC62EB72E79018C01642FCC
:102A4000F9010995C80101966D2DF7010995C80195
:102A500002966C2DF7010995C80103966B2DF701BD
:102A600009951F910F91FF90EF90DF90CF90BF904D
:102A70000895DF92EF92FF920F931F93D72E7A0162
:102A80008C01FA010995C80101966D2DF701099590
:102A90001F910F91FF90EF90DF9008959C01F9999D
:102AA000FECF32BD21BDF89A80B508950895AC01DE
:102AB000893191051CF449E150E005C0893C91053C
:102AC00014F048EC50E050931405409313058BE349
:102AD00093E06FE474E00E94AA460895EF92FF929B
:102AE0000F931F93CF93DF93EC01893191051CF471
:102AF000C9E1D0E006C081E0C53FD80714F0C4EFBB
:102B0000D1E0BE01882777FD8095982F0E9491B56E
:102B10007B018C016091110570911205882777FD6A
:102B20008095982F0E9491B59B01AC01C801B70117
:102B30000E94F6B49B01AC0160910D0570910E05E9
:102B400080910F05909110050E949FB760930D052D
:102B500070930E0580930F0590931005D093120586
:102B6000C09311058BE393E06DE574E0AE010E9424
:102B7000AA46DF91CF911F910F91FF90EF9008959A
:102B80007F928F929F92AF92BF92CF92DF92EF92FD
:102B9000FF920F931F93CF93DF93862E742E88237B
:102BA00009F41EC181E79FE068E474E00E94D78FBA
:102BB00081E79FE00E9416A56091E9047091EA0404
:102BC0008091EB049091EC042091DD043091DE04BF
:102BD0004091DF045091E004621B730B840B950B52
:102BE00022273327A901261B370B480B590B2093AB
:102BF000A6043093A7044093A8045093A90400D0DE
:102C000000D000D0EDB7FEB73196660F771F881F52
:102C1000991F2091EB013091EC014091ED01509111
:102C2000EE01ADB7BEB711962D933D934D935C93D6
:102C30001497992493949482958220E030E040E0A8
:102C400050E0EE24FF248701AA24BB2465010E94E2
:102C500001621092A6041092A7041092A804109288
:102C6000A9040DB71EB70F5F1F4F6091CB01709184
:102C7000CC018091CD019091CE0120E030E040EA7E
:102C800050E40E949FB70E945EB56B017C01609189
:102C9000EB017091EC018091ED019091EE0120E04B
:102CA00030E040E05FE30E949FB7E80168837983EA
:102CB0008A839B839C821D82C701B60120E030E09D
:102CC00040E050E0EE24FF248701AA24BB246501E4
:102CD0000E940162CDB6DEB60894C11CD11C2091C1
:102CE000CB013091CC014091CD015091CE01CA0170
:102CF000B9010E9416B420E030E040EA50EC0E9496
:102D00009FB70E945EB57B018C016091EB017091D1
:102D1000EC018091ED019091EE0120E030E040E087
:102D20005FE30E949FB7F601608371838283938380
:102D300094829582C801B70120E030E040E050E085
:102D4000EE24FF248701AA24BB2465010E940162AE
:102D50000DB71EB70F5F1F4F6091CB017091CC0173
:102D60008091CD019091CE0120E030E040E05FE322
:102D70000E949FB70E945EB52091EB013091EC015B
:102D80004091ED015091EE01D8012D933D934D936B
:102D90005C93139714969C92149715961C9220E0BE
:102DA00030E040E050E0EE24FF2487010E94016201
:102DB0008091E9049091EA04A091EB04B091EC04B5
:102DC0008093A6049093A704A093A804B093A904A9
:102DD000CDB7DEB726960FB6F894DEBF0FBECDBFD7
:102DE000882009F41EC181E79FE061E474E00E943D
:102DF000D78F81E79FE00E9416A52091ED043091C6
:102E0000EE044091EF045091F0048091E104909120
:102E1000E204A091E304B091E404281B390B4A0BAF
:102E20005B0B88279927DC01821B930BA40BB50B46
:102E30008093AA049093AB04A093AC04B093AD0428
:102E400000D000D000D0EDB7FEB73196220F331F6F
:102E5000441F551F8091EF019091F001A091F10165
:102E6000B091F201CDB7DEB789839A83AB83BC837F
:102E7000992493949482958260E070E080E090E0E1
:102E8000EE24FF248701AA24BB2465010E9401626D
:102E90001092AA041092AB041092AC041092AD04EC
:102EA0000DB71EB70F5F1F4F6091CF017091D0011A
:102EB0008091D1019091D20120E030E040EA50E4CD
:102EC0000E949FB70E945EB56B017C016091EF018B
:102ED0007091F0018091F1019091F20120E030E0D9
:102EE00040E05FE30E949FB7F801608371838283B3
:102EF00093839482158260E070E080E090E0A70107
:102F00009601EE24FF248701AA24BB2465010E94B8
:102F10000162CDB6DEB60894C11CD11C2091CF0150
:102F20003091D0014091D1015091D201CA01B90133
:102F30000E9416B420E030E040EA50EC0E949FB7B7
:102F40000E945EB57B018C016091EF017091F001F0
:102F50008091F1019091F20120E030E040E05FE3E8
:102F60000E949FB7D6016D937D938D939C93139789
:102F700014969C92149715969C9260E070E080E005
:102F800090E0A8019701EE24FF248701AA24BB2426
:102F900065010E9401620DB71EB70F5F1F4F609160
:102FA000CF017091D0018091D1019091D20120E0A8
:102FB00030E040E650E40E949FB70E945EB59B015E
:102FC000AC018091EF019091F001A091F101B091DD
:102FD000F201E80188839983AA83BB839C821D82C6
:102FE00060E070E080E090E0EE24FF2487010E9422
:102FF00001628091ED049091EE04A091EF04B091F4
:10300000F0048093AA049093AB04A093AC04B09313
:10301000AD04EDB7FEB736960FB6F894FEBF0FBEFF
:10302000EDBF772009F4EEC081E79FE06AE374E02A
:103030000E94D78F81E79FE00E9416A5E090F104DF
:10304000F090F2040091F3041091F4048091E504EF
:103050009091E604A091E704B091E804E81AF90A17
:103060000A0B1B0B88279927DC018E199F09A00BDF
:10307000B10B8093AE049093AF04A093B004B093CF
:10308000B10400D000D000D0EDB7FEB73196EE0C01
:10309000FF1C001F111F8091F3019091F401A0917A
:1030A000F501B091F601CDB7DEB789839A83AB8382
:1030B000BC83992493949482958260E070E080E0D0
:1030C00090E020E030E040E050E0AA24BB2465011D
:1030D0000E9401621092AE041092AF041092B004EC
:1030E0001092B104CDB6DEB60894C11CD11C20915B
:1030F000D3013091D4014091D5015091D601CA013C
:10310000B9010E9416B40E945EB57B018C016091EA
:10311000F3017091F4018091F5019091F60120E0A6
:1031200030E040E05FE30E949FB7F6016083718367
:10313000828393839482158260E070E080E090E067
:1031400020E030E040E050E0AA24BB2465010E946A
:103150000162CDB6DEB60894C11CD11C2091D3010A
:103160003091D4014091D5015091D601CA01B901E5
:103170000E9416B420E030E040E050EC0E949FB77F
:103180000E945EB57B018C016091F3017091F401A6
:103190008091F5019091F60120E030E040E05FE39E
:1031A0000E949FB7D6016D937D938D939C93139747
:1031B00014969C92149715969C9260E070E080E0C3
:1031C00090E020E030E040E050E0AA24BB2465011C
:1031D0000E9401628091F1049091F204A091F304A5
:1031E000B091F4048093AE049093AF04A093B00424
:1031F000B093B104CDB7DEB726960FB6F894DEBF14
:103200000FBECDBF1092A60FDF91CF911F910F91EE
:10321000FF90EF90DF90CF90BF90AF909F908F90F6
:103220007F900895AF92BF92CF92DF92EF92FF927C
:103230000F931F932091A6043091A7044091A804F6
:103240005091A904A0905F04B0906004C090610404
:10325000D090620480915E04882359F40F2EF0E030
:10326000EF2EF0E0FF2EF0E80F2FFFE31F2FF02DE1
:103270000AC00F2EF0E7EF2EF2E4FF2EF1E20F2F3F
:10328000FDE31F2FF02DCA01B9010E9491B5A601DF
:1032900095010E949FB7A80197010E949FB79B01CB
:1032A000AC018BE393E063E874E002E00E94984C89
:1032B0002091AA043091AB044091AC045091AD042C
:1032C000A0906304B0906404C0906504D09066043C
:1032D00080915E04882359F40F2EF0E0EF2EF0E089
:1032E000FF2EF0E80F2FFFE31F2FF02D0AC00F2E47
:1032F000F0E7EF2EF2E4FF2EF1E20F2FFDE31F2F98
:10330000F02DCA01B9010E9491B5A60195010E9454
:103310009FB7A80197010E949FB79B01AC018BE367
:1033200093E06FE774E002E00E94984C2091AE04B5
:103330003091AF044091B0045091B104A090670463
:10334000B0906804C0906904D0906A0480915E04D3
:10335000882359F40F2EF0E0EF2EF0E0FF2EF0E876
:103360000F2FFFE31F2FF02D0AC00F2EF0E7EF2ED7
:10337000F2E4FF2EF1E20F2FFDE31F2FF02DCA0123
:10338000B9010E9491B5A60195010E949FB7A801BD
:1033900097010E949FB79B01AC018BE393E06BE721
:1033A00074E002E00E94984C2091B2043091B30482
:1033B0004091B4045091B504A0906B04B0906C049B
:1033C000C0906D04D0906E0480915E04882359F4FF
:1033D0000F2EF0E0EF2EF0E0FF2EF0E80F2FFFE3CE
:1033E0001F2FF02D0AC00F2EF0E7EF2EF2E4FF2E74
:1033F000F1E20F2FFDE31F2FF02DCA01B9010E944A
:1034000091B5A60195010E949FB7A80197010E945E
:103410009FB79B01AC018BE393E067E774E002E0A8
:103420000E947B4C1F910F91FF90EF90DF90CF9007
:10343000BF90AF9008950F93E0914C02F0914D0230
:1034400020A931A942A953A98BE393E064E774E072
:1034500002E00E94984C0E946E369B01AC018BE307
:1034600093E060E774E00E94984CE091C901EF3F5F
:1034700029F4E0914C02F0914D02E081F0E0E15539
:10348000F34F40818BE393E06CE674E050E00E94E0
:1034900075458BE393E00E94F7B10F9108958091F9
:1034A00050028823C1F0109250020E94C9388091C6
:1034B000C80181508093C801882349F48091C701D5
:1034C000833010F40E94E13A85E08093C80181E7DF
:1034D0009FE00E940BAD089508C00E94A1490E9480
:1034E0004F1A81E79FE00E9408908091A70C8823E3
:1034F000A1F708950F931F93182F092F662311F03A
:103500000E946C1A812F902F9C012F3F310519F0DA
:1035100014F02FEF30E037FF02C020E030E02093BE
:10352000B20C1F910F9108953F924F925F926F924C
:103530007F928F929F92AF92BF92CF92DF92EF9243
:10354000FF920F931F93DF93CF93CDB7DEB7AC9766
:103550000FB6F894DEBF0FBECDBF2C01362E809182
:103560001702282F84FF1CC0D2018C9182FD09C054
:1035700081FF16C016968D919C9117978F369105F5
:1035800079F0C2010E94924D0E94B8AF60934C0541
:1035900070934D0580934E0590934F050C946E29C2
:1035A000D201ED91FC911197E2FF79C318968D91AC
:1035B0009C9119978431910509F422C285319105B6
:1035C00050F48430910518F4029740F51CC004971C
:1035D00009F059C3D7C18A35910509F43AC28B3530
:1035E000910540F48531910509F40EC24C9709F01C
:1035F0004AC30DC28B35910509F42EC28C35910555
:1036000009F041C32DC2C2010E94116E882309F442
:103610003AC380E061E00E94295A35C3C2010E948A
:10362000116E882309F42FC3FE01359688E0DF016F
:103630001D928A95E9F7F201828180FD05C080E044
:1036400090E0A0E0B0E005C0F20187A190A5A1A59F
:10365000B2A58D839E83AF83B887D20112968C91D9
:1036600081FD0BC00F2EF0E0EF2EF0E0FF2EF0E01A
:103670000F2FF0E01F2FF02D05C0F201E3A4F4A4FA
:1036800005A516A5E986FA860B871C8780915E043E
:103690008823D1F06D817E818F81988523E333E388
:1036A0004BEC51E40E949FB76D837E838F83988794
:1036B000C801B70123E333E34BEC51E40E949FB709
:1036C00069877A878B879C8718E0FE013D96DF012A
:1036D000212F1D922A95E9F76091A6047091A70405
:1036E0008091A8049091A9040E9491B520915F0453
:1036F0003091600440916104509162040E949FB730
:103700006D877E878F87988B6091AA047091AB0438
:103710008091AC049091AD040E9491B52091630416
:103720003091640440916504509166040E949FB7F3
:10373000698B7A8B8B8B9C8BFE017596DF011D92BA
:103740001A95E9F76091B6047091B7048091B804B6
:103750009091B9040E9491B520915F04309160046A
:1037600040916104509162040E949FB76D8B7E8BE3
:103770008F8B988F6091BA047091BB048091BC04C8
:103780009091BD040E9491B520916304309164042E
:1037900040916504509166040E949FB77B018C01A3
:1037A000698F7A8F8B8F9C8FF201828182FFC7C0D5
:1037B000A7A4B0A8C1A8D2A880915E04882351F024
:1037C000C601B50123E333E34BEC51E40E949FB7FC
:1037D0005B016C016D897E898F89988D2D853E8571
:1037E0004F8558890E9415B469A77AA78BA79CA713
:1037F000C801B70129893A894B895C890E9415B4AF
:103800003B014C01C601B50120E030E040E850E446
:103810000E949FB7A60195010E949FB77B018C0172
:1038200069A57AA58BA59CA59B01AC010E949FB7B9
:103830009B01AC01C801B7010E9415B47B018C014A
:10384000C401B301A40193010E949FB79B01AC0185
:10385000C801B7010E9415B40E940CB87B018C010D
:1038600069A57AA58BA59CA5A40193010E940AB71E
:103870009B01AC0117FB109517F91095C801B70112
:103880000E94F6B47B018C01A80197010E9459B8EF
:10389000882339F08BE393E067E274E00E94884567
:1038A000F2C1D20118968D919C911997039721F43A
:1038B00017FB109517F91095C601B50120E030E00F
:1038C00040E050E00E94EFB4882344F417FB1095C9
:1038D00017F91095D7FAD094D7F8D094C401B30152
:1038E000A80197010E949FB79B01AC0169A57AA529
:1038F0008BA59CA50E9415B420E030E040E05FE37A
:103900000E949FB76D837E838F83988769A57AA570
:103910008BA59CA5A80197010E949FB79B01AC01B4
:10392000C401B3010E9416B420E030E040E05FE340
:103930000E949FB769877A878B879C870CC06D81AF
:103940007E818F81988529853A854B855C850E948B
:103950000AB75B016C01E0E0D20118968D919C9151
:103960001997029709F4E1E0CE010D96BE016B5E56
:103970007F4FAE014B5F5F4F96018501EE2E0E9497
:10398000EE5E81C10E946C1AF2018081918193FDEB
:1039900004C0EE24FF24870107C0D2019396ED9066
:1039A000FD900D911C91969792FF0DC0F201678DCD
:1039B00070A181A192A128EE33E040E050E00E9486
:1039C00075B87B018C010E94B8AF5B016C01AE0C35
:1039D000BF1CC01ED11E04C00E94A1490E944F1AE4
:1039E0000E94B8AFA6019501261B370B480B590B57
:1039F000DA01C90180509449A543B74768F343C130
:103A000081E080935E043FC110925E043CC1CF010F
:103A100088739070892B21F441E021E061E015C0AA
:103A2000CF0173E0969587957A95E1F7282F21705D
:103A3000CF0164E0969587956A95E1F7682F6170EC
:103A4000E5FD02C040E001C041E0822F0E94C015A8
:103A50001AC110924A0517C181E080934A0513C12B
:103A6000E3FF4CC0D2011A96AD90BD90CD90DC9092
:103A70001D972091CB013091CC014091CD01509107
:103A8000CE0180915E04882359F40F2EF0E0EF2ED2
:103A9000F0E0FF2EF0E80F2FFFE31F2FF02D0AC0FC
:103AA0000F2EF3E3EF2EF3E3FF2EFBEC0F2FF1E4E9
:103AB0001F2FF02DC601B5010E949FB7A8019701E5
:103AC0000E949FB77B018C0160911D0570911E05BE
:103AD00080911F05909120050E9491B59B01AC013A
:103AE000C801B7010E9415B40E945EB56093A60498
:103AF0007093A7048093A8049093A904F201808195
:103B000084FF49C0A684B784C088D1882091CF01A2
:103B10003091D0014091D1015091D20180915E0449
:103B2000882359F40F2EF0E0EF2EF0E0FF2EF0E89E
:103B30000F2FFFE31F2FF02D0AC00F2EF3E3EF2E00
:103B4000F3E3FF2EFBEC0F2FF1E41F2FF02DC60146
:103B5000B5010E949FB7A80197010E949FB77B0102
:103B60008C0160912105709122058091230590912F
:103B700024050E9491B59B01AC01C801B7010E94C8
:103B800015B40E945EB56093AA047093AB04809351
:103B9000AC049093AD04D2018C9185FF39C052964C
:103BA000AD90BD90CD90DC9055972091D301309190
:103BB000D4014091D5015091D60180915E048823B3
:103BC00059F40F2EF0E0EF2EF0E0FF2EF0E80F2F6B
:103BD000FFE31F2FF02D0AC00F2EF3E3EF2EF3E3C8
:103BE000FF2EFBEC0F2FF1E41F2FF02DC601B501C6
:103BF0000E949FB7A80197010E949FB70E945EB5DF
:103C00006093AE047093AF048093B0049093B104BA
:103C1000F201808186FF37C0A688B788C08CD18C1E
:103C20002091D7013091D8014091D9015091DA010A
:103C300080915E04882359F40F2EF0E0EF2EF0E01F
:103C4000FF2EF0E80F2FFFE31F2FF02D0AC00F2EDD
:103C5000F3E3EF2EF3E3FF2EFBEC0F2FF1E41F2F26
:103C6000F02DC601B5010E949FB7A80197010E94DF
:103C70009FB70E945EB56093B2047093B3048093C3
:103C8000B4049093B5040E94B8AF60934C05709350
:103C90004D0580934E0590934F050C944F29E1FDFF
:103CA00002C00C943629D20116968D919C911797DB
:103CB0008337910509F4DBC58437910508F08AC084
:103CC0008035910509F421C58135910508F03DC085
:103CD0008931910509F450C18A319105C8F48631C2
:103CE000910509F429C18731910548F48431910582
:103CF00009F414C1459711F00C944F2915C187316F
:103D0000910509F41FC1489711F00C944F2929C15E
:103D10008C31910509F457C18D31910548F48A31F0
:103D2000910509F42DC14B9711F00C944F2945C111
:103D30008032910509F463C18A32910509F46EC19C
:103D40004E9711F00C944F294DC18836910509F416
:103D5000BBC189369105F8F48335910509F4ECC4AB
:103D60008435910550F48135910509F4DDC482351F
:103D7000910511F00C944F29DCC48535910509F4A7
:103D8000FBC48535910508F4DBC48C35910511F031
:103D90000C944F2912C58B36910509F4ACC48C36AE
:103DA000910550F48936910509F4FCC18A369105D4
:103DB00011F00C944F298DC48F36910509F444C538
:103DC0008237910509F405C68D36910511F00C94E2
:103DD0004F29ECC18D3D910511F40C94F2268E3DD6
:103DE000910508F045C08A3C910509F4C0C68B3C9A
:103DF0009105F8F48837910509F436C6893791059D
:103E000050F48537910509F4E7C58737910511F01E
:103E10000C944F29EFC58E3B910509F4A9C3893C49
:103E2000910509F430C68C38910511F00C944F2996
:103E300092C18D3C910509F46CC78E3C910550F4FC
:103E40008B3C910509F407C78C3C910511F00C944B
:103E50004F2914C78F3C910509F462C78F3C910527
:103E600008F45AC78C3D910511F00C944F29ADC749
:103E7000B1E080399B0711F40C94502821E081397E
:103E8000920718F5883E910509F4CBC7893E910544
:103E900050F48F3D910509F4B4C7873E910511F0A8
:103EA0000C944F29E8C731E08F32930709F4EFC330
:103EB00041E08E35940711F40C942F29893E910529
:103EC00011F00C944F290C942A2851E0843F950757
:103ED00011F40C941329A1E0853F9A0768F4B1E02E
:103EE00081399B0711F40C9453288259914011F0A9
:103EF0000C944F290C94842831E0863F930711F4E9
:103F00000C94262941E0863F940710F40C941D2957
:103F1000875F914011F00C944F29FBC687EC9CE021
:103F20000E9432760C944F291092570D87EC9CE03A
:103F30000E941D780C944F291092570D1092580D25
:103F40000C944F29F7FD02C00C944F29D201D3964F
:103F50006D917C91D49787EC9CE00E94B1740C9495
:103F60004F298091580D882311F40C944F2981E03A
:103F70008093570D0C944F291092570D0C944F2994
:103F8000F2FD02C00C944F29F201478D50A161A1AE
:103F900072A18091580D882311F40C944F294093FD
:103FA000280D5093290D60932A0D70932B0D89E0F5
:103FB0009DE00E94927F0C944F2987EC9CE00E9428
:103FC00086740C944F29F7FD02C00C944F29D2013E
:103FD000D3966D917C91D49787EC9CE00E943474C9
:103FE0000C944F29F7FD02C00C944F29F20163A9EC
:103FF00074A987EC9CE00E94DA730C944F29F7FDBA
:1040000002C00C944F29D201D3966D917C91D49724
:1040100087EC9CE00E94AC730C944F29E070FC701C
:10402000E050FC4011F00C944F29F201878D90A1D3
:10403000A1A1B2A1B7FF02C00C944F298F3F9105F7
:10404000A105B10519F014F00C944F2903A114A196
:1040500020E030E0F901EE0FFF1FE756FE4FE4913C
:104060008E2F90E08017910711F40C944F292F5F49
:104070003F4F2833310571F717FF02C00C944F29C9
:10408000802F61E00E9406B1802FD2015F966C9173
:104090000E9483B1F201678D70A1802F0E9488B0C9
:1040A0008BE393E06BE174E0A8010E947545D201B7
:1040B0005F964D915C9190978BE393E066E174E09D
:1040C0000E94AA460C944F290E947238882311F04E
:1040D0000C944F290E94B8AF60934C0570934D0526
:1040E00080934E0590934F058091170283FF02C085
:1040F0000C944F29F2018081918193FF02C00E94AC
:104100006C1AD2018D919C91119792FD02C00C9472
:104110004F2991FF0EC05F966D917D918D919C917D
:1041200092970E9491B5F201468D0E94DF3E0C9459
:104130004F29D2015F966D917D918D919C919297BF
:104140000E9491B5E0914C02F0914D0240810E9495
:10415000DF3E0C944F290E947238882311F00C9492
:104160004F290E94B8AF60934C0570934D05809322
:104170004E0590934F058091170283FF02C00C9467
:104180004F29F2018081918192FD02C00C944F2948
:10419000678D70A181A192A10E9491B50E94253BDB
:1041A0000C944F290E941B1A0C944F290E947238BC
:1041B000882311F00C944F290E94B8AF60934C05EE
:1041C00070934D0580934E0590934F058091170293
:1041D00083FF02C00C944F2981E79FE065E074E003
:1041E0000E94D78F81E79FE00E9416A50E946C1A5B
:1041F00080904C0290904D02D2012D913C911197EC
:1042000031FF08C05E968C91882321F446E1842E0C
:1042100041E0942E32FF0BC0F201678D70A181A1A5
:1042200092A10E9491B5D4014C910E94DF3EF4010D
:1042300060A971A982A993A924A935A946A957A95A
:104240000E9415B47B018C0120E030E040E050E09A
:104250000E94FDB6181664F4C801B70120E030E0F2
:1042600040E050E40E94EFB4882374F40C944F298A
:10427000C801B70120E030E040E050EC0E94FDB6FC
:10428000181614F40C944F297724D4019E962D917E
:104290003C919F979C968D919C919D978217930737
:1042A00014F4772473940E94B8AF6D8F7E8F8F8F34
:1042B00098A31DA21EA21FA218A610E00E94B8AFCC
:1042C00069A37AA38BA39CA3DC01CB012D8D3E8D2A
:1042D0004F8D58A1821B930BA40BB50B895E9340A5
:1042E000A040B04050F00E941B1A89A19AA1ABA136
:1042F000BCA18D8F9E8FAF8FB8A30E944F1A809163
:104300004C0290914D028816990609F067C0D401BD
:104310009396ED90FC9094971E141F040CF05EC0D1
:10432000112309F05BC0772009F458C091966D9174
:104330007C919297882777FD8095982F0E9491B560
:104340009B01AC01F40160A971A982A993A90E9403
:10435000FDB618160CF042C000D000D000D00DB74A
:104360001EB70F5F1F4F662777276E197F098827B3
:1043700077FD8095982F0E9491B52091D7013091BB
:10438000D8014091D9015091DA010E949FB70E9453
:104390005EB55B016C01F40187859089A189B289C2
:1043A000F80180839183A283B3831482158260E035
:1043B00070E080E090E020E030E040E050E0EE246B
:1043C000FF2487010E94016211E02DB73EB72A5FEA
:1043D0003F4F0FB6F8943EBF0FBE2DBF8DA19EA1DB
:1043E000AFA1B8A50097A105B10509F055C0772088
:1043F000C9F0D401D4966D917D918D919C91D79700
:1044000020E030E040E05FE30E9415B49B01AC0186
:10441000F40160A971A982A993A90E94FDB687FF42
:104420001AC04CCFD401D4966D917D918D919C9101
:10443000D79720E030E040E05FE30E9416B49B0194
:10444000AC01F40160A971A982A993A90E94EFB4FB
:1044500018160CF433CFD4015F966D917C91909730
:10446000882777FD8095982F28EE33E040E050E0D4
:104470000E9475B829A13AA14BA15CA1260F371F54
:10448000481F591F2DA33EA34FA358A7211531053F
:104490004105510509F412CF8DA19EA1AFA1B8A588
:1044A00029A13AA14BA15CA1821B930BA40BB50BD4
:1044B00080509449A543B74708F400CF112309F46D
:1044C0004AC080914C0290914D028816990609F0DD
:1044D00042C000D000D000D00DB71EB70F5F1F4FF5
:1044E000D40193966D917C919497882777FD809560
:1044F000982F0E9491B52091D7013091D801409119
:10450000D9015091DA010E949FB70E945EB55B010C
:104510006C01F40187859089A189B289F8018083B3
:104520009183A283B3831482158260E070E080E0FF
:1045300090E020E030E040E050E0EE24FF248701EE
:104540000E9401622DB73EB72A5F3F4F0FB6F89425
:104550003EBF0FBE2DBF1092A60F0E94B8AF609352
:104560004C0570934D0580934E0590934F0597C66B
:1045700023FD95C681E79FE069EF73E00E94D78F26
:1045800081E79FE00E9416A50E946C1AD2018D91CE
:104590009C91119792FF0AC05F966D917D918D91CC
:1045A0009C9192970E9491B50E94253B60918A014F
:1045B00070918B0180918C0190918D0120918E01E1
:1045C00030918F0140919001509191010E9415B45A
:1045D0007B018C0120E030E040E050E00E94FDB61D
:1045E00018165CF4C801B70120E030E040E450E464
:1045F0000E94EFB4882364F452C6C801B70120E0DA
:1046000030E040E450EC0E94FDB618160CF447C6AA
:104610000E94B8AF7B018C0113C00E94B8AF6E1925
:104620007F09800B910B695E73408040904030F0B1
:104630000E941B1A0E94B8AF7B018C010E944F1A86
:1046400060918A0170918B0180918C0190918D0114
:1046500020E030E040E05FE30E9416B420918E013C
:1046600030918F0140919001509191010E94EFB4DF
:1046700087FDD3CF1092A60F0E94B8AF60934C0570
:1046800070934D0580934E0590934F0508C6F2FD3B
:1046900003C026E930E005C0D2015F962D913C9120
:1046A0009097F3FD03C000E010E008C0F20103A101
:1046B00014A10230110514F002E010E0B9018827BE
:1046C00077FD8095982F0E9491B5A8010E94863BA6
:1046D000E6C5F2FD03C08FEF90E005C0D2015F9602
:1046E0008D919C9190976F2F6695669566956170F8
:1046F0000E947A1AD4C56F2F66956695669561708B
:1047000080E090E00E947A1ACAC50E946C1A0E944A
:10471000B8AF60934C0570934D0580934E05909310
:104720004F05579A5F98BBC50E946C1A579A5F9ABB
:10473000B6C510924B05B3C581E080934B05AFC55C
:10474000F2FF14C0F201678D70A181A192A128EE41
:1047500033E040E050E00E9475B860931802709317
:10476000190280931A0290931B0299C50E946C1A39
:1047700081E00E94037093C5F2FF16C0D2015F96DC
:104780006D917D918D919C91929728EE33E040E060
:1047900050E00E9475B86093500570935105809366
:1047A0005205909353057BC5109250051092510508
:1047B000109252051092530572C5E3FF0DC0F2012D
:1047C00082859385A485B5858093CB019093CC0198
:1047D000A093CD01B093CE01D2018C9184FF0EC085
:1047E0001E968D919D910D90BC91A02D8093CF012F
:1047F0009093D001A093D101B093D201F2018081B6
:1048000085FF0CC082899389A489B5898093D301DF
:104810009093D401A093D501B093D601D2018C918D
:1048200086FF0FC020914C0230914D0256968D911B
:104830009D910D90BC91A02DF90181879287A3874E
:10484000B4870E94E3622BC5F2FF05C0D2015F96D8
:104850008C91809317028091170283FF20C560E03E
:1048600070E080E090E040E00E94DF3E18C58BE3FE
:1048700093E060E573E00E94884560912C0570919B
:104880002D0580912E0590912F052FE632E143E80A
:104890005AE30E949FB77B018C01CE01019661E82B
:1048A00070E044E050E02EE435E10E949F14C8011E
:1048B000B70129813A814B815C810E9416B49B012A
:1048C000AC018BE393E06EE373E002E00E94984C4E
:1048D0008BE393E06BE373E00E948845E091C301B2
:1048E000F091C401638574858585968520E030E06C
:1048F00040E751E40E94FDB618160CF4D6C4AA2471
:10490000BB2465018DE790E06EE475E10E94BB1465
:104910007B018C01EA0CFB1C0C1D1D1DC801B7019D
:1049200020E831E541E050E00E94DDB8922E832E70
:10493000742E652E622F732F842F952F20E83EEA68
:104940004EEF5FEF0E9475B85B016C01AE0CBF1CAF
:10495000C01ED11E8BE393E06CE273E0292D382D4D
:10496000472D562D0E94D948C601B50120E13EE0F1
:1049700040E050E00E94DDB8122F032FF42EE52E08
:104980008BE393E065E273E00E94D948612F702FBA
:104990008F2D9E2D20EF31EF4FEF5FEF0E9475B806
:1049A000A60EB71EC81ED91EC601B5012CE330E005
:1049B00040E050E00E94DDB88BE393E06DE173E0EE
:1049C0000E94D9488BE393E068E173E00E94884538
:1049D00066C40E94121963C4F7FF61C4F20163A99F
:1049E00074A981E79FE00E94F28F81E79FE00E9417
:1049F00016A555C40E946C1A8BE393E061E173E045
:104A00000E94DC44189B03C06BE073E002C06EE0C0
:104A100073E08BE393E00E94DC448BE393E064E07B
:104A200073E00E94DC44199B03C06EEF72E002C089
:104A300061E073E08BE393E00E94DC448BE393E05E
:104A400067EF72E00E94DC441A9B03C061EF72E0E2
:104A500002C064EF72E08BE393E00E94DC448BE3DE
:104A600093E00E94F7B11BC4E070FC70E050FC4082
:104A700009F015C4D2015F968C915F9793966C9163
:104A80000E944DA60CC4E3FF19C0F2016285738534
:104A9000848595852091CB013091CC014091CD0149
:104AA0005091CE010E949FB70E9463B560936F043E
:104AB000709370048093710490937204D2018C916E
:104AC00084FF1AC01E966D917D918D919C91519796
:104AD0002091CF013091D0014091D1015091D2016C
:104AE0000E949FB70E9463B560937304709374042F
:104AF0008093750490937604F201808185FF18C03D
:104B000062897389848995892091D3013091D40178
:104B10004091D5015091D6010E949FB70E9463B584
:104B200060937704709378048093790490937A0467
:104B3000D2018C9186FFB3C356966D917D918D9174
:104B40009C9159972091D7013091D8014091D9017A
:104B50005091DA010E949FB70E9463B560937B0475
:104B600070937C0480937D0490937E0498C3E3FF4C
:104B700019C0F20162857385848595852091CB01EA
:104B80003091CC014091CD015091CE010E949FB750
:104B90000E9463B560937F047093800480938104C6
:104BA00090938204D2018C9184FF1AC01E966D915D
:104BB0007D918D919C9151972091CF013091D001A1
:104BC0004091D1015091D2010E949FB70E9463B5DC
:104BD0006093830470938404809385049093860487
:104BE000F201808185FF18C0628973898489958963
:104BF0002091D3013091D4014091D5015091D6013B
:104C00000E949FB70E9463B56093870470938804E5
:104C10008093890490938A04D2018C9186FF3FC3CC
:104C200056966D917D918D919C9159972091D701C8
:104C30003091D8014091D9015091DA010E949FB77B
:104C40000E9463B560938B0470938C0480938D04F1
:104C500090938E0424C3F2FF22C3F201878D90A1AA
:104C6000A1A1B2A1181619061A061B061CF0809302
:104C7000C70115C381E08093C70111C380914C0225
:104C800090914D02F2FD04C09C01275D3F4F13C07F
:104C9000D2015F960D911D912D913C91929737FD18
:104CA000FEC2011511052105310519F42FE331E08C
:104CB00002C023E831E0E3FF0AC0F2018285938558
:104CC000A485B585F901828F938FA48FB58FD2010A
:104CD0008C9184FF0BC01E968D919D910D90BC917F
:104CE000A02DF901868F978FA0A3B1A3D2018C913B
:104CF00085FF0BC052968D919D910D90BC91A02D7A
:104D0000F90182A393A3A4A3B5A3C9010E942A36E3
:104D1000C6C20E947434C3C2C2010E940C33BFC217
:104D2000E3FF0DC0F20182859385A485B58580934C
:104D3000150590931605A0931705B0931805D20199
:104D40008C9185FF0EC052968D919D910D90BC91D6
:104D5000A02D8093190590931A05A0931B05B0937D
:104D60001C05F201808186FF12C0E0914C02F09197
:104D70004D02D20156962D913D914D915C915997DE
:104D8000278B308F418F528F80810E949D3F2091D1
:104D900015053091160540911705509118058BE3C4
:104DA00093E06BEE72E002E00E94984C20911905AE
:104DB00030911A0540911B0550911C058BE393E03F
:104DC00063EE72E00E947B4C6AC2F2FF06C0F20101
:104DD000878D90A10E946E1562C284E690E00E94C9
:104DE0006E155DC2F2FF08C0D2015F968D919C9155
:104DF00090970E94571553C284E690E00E94571581
:104E00004EC2F2FF4CC28091900490919104F20145
:104E1000278D30A1820F931F90939104809390046B
:104E20003EC24091A90C5091AA0C8BE393E064ED33
:104E300072E00E9475452091AB0C3091AC0C409112
:104E4000AD0C5091AE0C8BE393E06BEC72E002E0A2
:104E50000E947B4C1092AA0C1092A90C80E090E06A
:104E6000A0E0B0E08093AB0C9093AC0CA093AD0CA1
:104E7000B093AE0C14C2F2FF0EC0F201878D90A168
:104E8000A1A1B2A1B7FD07C083309105A105B1056D
:104E900014F48093D604D2018C9183FF18C01A9623
:104EA000ED90FD900D911C911D97C801B70120E078
:104EB00030E040E050E00E94FDB6882344F0E092EC
:104EC000CA04F092CB040093CC041093CD04F201F9
:104ED000808184FF16C0E684F78400891189C801A7
:104EE000B70120E030E040E050E00E94FDB68823AA
:104EF00044F0E092CE04F092CF040093D0041093DB
:104F0000D104D2018C9185FF1DC05296ED90FD9089
:104F10000D911C9155972091CE043091CF04409172
:104F2000D0045091D1045058C801B7010E94FDB679
:104F3000882344F0E092D204F092D3040093D40486
:104F40001093D504F2018081918190FF20C0E28C02
:104F5000F38C048D158DC801B70120E030E040E0EE
:104F600050E00E94FDB6882394F0C801B70120E00C
:104F700030E048EC52E40E94EFB4181644F0E0929E
:104F8000D704F092D8040093D9041093DA04E09186
:104F90004C02F0914D0280810E949D3F8091D60489
:104FA000882339F48BE393E06EEB72E00E9488452E
:104FB00076C1813029F48BE393E06CEA72E004C09F
:104FC0008BE393E06DE972E00E94DC442091CA0417
:104FD0003091CB044091CC045091CD048BE393E00D
:104FE0006DE872E002E00E94984C2091CE0430916E
:104FF000CF044091D0045091D1048BE393E060E85A
:1050000072E00E94984C2091D2043091D3044091D8
:10501000D4045091D5048BE393E061E772E00E94E1
:10502000984C8091D604823071F42091D70430914D
:10503000D8044091D9045091DA048BE393E061E6FF
:1050400072E00E94984C8BE393E00E94F7B10E94BB
:10505000C16225C1E4FF0EC020914C0230914D0287
:10506000F20186859785A089B189F90185A396A368
:10507000A7A3B0A7E0914C02F0914D0225A136A163
:1050800047A150A58BE393E067E572E002E00E9440
:10509000984C8BE393E00E94F7B10E94C162FFC07D
:1050A0000E946C1AFCC08091A6049091A704A09164
:1050B000A804B091A90480933E0590933F05A09366
:1050C0004005B09341058091AA049091AB04A09152
:1050D000AC04B091AD048093420590934305A09336
:1050E0004405B09345058091AE049091AF04A09122
:1050F000B004B091B1048093460590934705A09306
:105100004805B0934905CBC0E3FF0CC0E4FF0AC0DB
:10511000CF0135E0969587953A95E1F7682F609530
:10512000617001C061E0A0903E05B0903F05C09065
:105130004005D09041056090A6047090A70480902F
:10514000A8049090A904662339F4E4FD05C020E08A
:1051500030E040E050E016C0209142053091430518
:1051600040914405509145058091AA049091AB046B
:10517000A091AC04B091AD04281B390B4A0B5B0B1A
:10518000662331F4E5FD04C0EE24FF24870114C03A
:10519000E0904605F09047050091480510914905BB
:1051A0008091AE049091AF04A091B004B091B1048D
:1051B000E81AF90A0A0B1B0BF0FF06C0F201828DF8
:1051C000938DA48DB58D08C080910D0590910E052D
:1051D000A0910F05B091100500D000D000D06DB7A0
:1051E0007EB76F5F7F4FA618B708C808D908EDB71C
:1051F000FEB781839283A383B483DB0114961C9250
:10520000149715961C92C601B501AA24BB2465010A
:105210000E940162EDB7FEB736960FB6F894FEBF56
:105220000FBEEDBF3CC080E00E94BE2C8BE393E03C
:1052300067E372E00E94884532C00E94FB2F8BE337
:1052400093E065E172E00E94884529C00E94992A96
:105250008BE393E064EF71E00E94884520C08BE30C
:1052600093E062EE71E00E94884519C0F1FF08C02A
:105270000E946C1AD2015E968C910E949D3F0FC0D5
:1052800022FF0DC08BE393E061ED71E00E94DC44EE
:10529000C2010E94AE4C8BE393E00E94F7B1332031
:1052A000E9F0C2010E94924D19C00E94B8AF20914E
:1052B00028053091290540912A0550912B05621B44
:1052C000730B840B950B28EE33E040E050E00E9416
:1052D000BBB8C901DA015C016D0114CBAC960FB605
:1052E000F894DEBF0FBECDBFCF91DF911F910F911C
:1052F000FF90EF90DF90CF90BF90AF909F908F90F6
:105300007F906F905F904F903F9008959C01F99926
:10531000FECF32BD21BDF89A80B508959C01F99960
:10532000FECF1FBA32BD21BD60BD0FB6F894FA9A08
:10533000F99A0FBE0895F999FECF12BC11BCF89AE4
:1053400080B5833071F48BE490E066E879E20E94E6
:10535000BB1460931C0270931D0280931E029093F5
:105360001F020895DF93CF9300D000D0CDB7DEB7F2
:10537000BC01CE01019644E050E026E839E20E94EB
:105380009F1429813A814B815C81B901CA010F9038
:105390000F900F900F90CF91DF910895DF93CF93EF
:1053A00000D000D0CDB7DEB749835A836B837C83AE
:1053B000BE016F5F7F4F44E050E02EE839E20E946B
:1053C000F7140F900F900F900F90CF91DF910895E9
:1053D000EF92FF920F931F9360912C0570912D0512
:1053E00080912E0590912F0520E030E040E050E0C4
:1053F0000E94EFB4882309F497C00E94B8AF2091AF
:1054000028053091290540912A0550912B05621BF2
:10541000730B840B950B28EE33E040E050E00E94C4
:10542000BBB879018A018DE790E066E879E20E94D5
:10543000BB14E60EF71E081F191F8DE790E0B80198
:10544000A7012EE839E20E94131581E890E00E943E
:10545000B2297B018C0160912C0570912D05809102
:105460002E0590912F052FE632E143E85AE30E9482
:105470009FB79B01AC01C801B7010E9416B4AB01F4
:10548000BC0181E890E00E94CE2920912C0530914A
:105490002D0540912E0550912F058BE393E061EE91
:1054A00079E002E00E947B4C80E090E0A0E0B0E078
:1054B00080932C0590932D05A0932E05B0932F0576
:1054C0000E94B8AF609328057093290580932A0540
:1054D00090932B0520E030E040E02836310539F08C
:1054E000F999FECF32BD21BDF89A80B5480F2F5FE4
:1054F0003F4F88E02030380781F7F999FECF88E6E2
:1055000090E092BD81BDF89A80B5481769F0F9998D
:10551000FECF1FBA88E690E092BD81BD40BD0FB6B8
:10552000F894FA9AF99A0FBE1F910F91FF90EF909D
:105530000895EF92FF920F931F9380E092ECA1E009
:10554000B0E080931C0290931D02A0931E02B093C2
:105550001F021092500510925105109252051092A0
:10556000530580EC94EDA1E0B0E080931802909395
:105570001902A0931A02B0931B0280E090E0A0E20F
:10558000B3E48093CB019093CC01A093CD01B09371
:10559000CE018093CF019093D001A093D101B0931D
:1055A000D20180E090E0A0E2B5E48093D301909333
:1055B000D401A093D501B093D60180E090E0A0E89B
:1055C000BFE38093D7019093D801A093D901B09302
:1055D000DA0180E090E0A8E4B3E48093DB019093EB
:1055E000DC01A093DD01B093DE018093DF01909395
:1055F000E001A093E101B093E20180E090E0A0E43B
:10560000B0E48093E3019093E401A093E501B093AB
:10561000E6010F2EF0E0EF2EF0E0FF2EF0EA0F2F64
:10562000F2E41F2FF02DE092EB01F092EC010093D9
:10563000ED011093EE01E092EF01F092F001009382
:10564000F1011093F2018093F3019093F401A09380
:10565000F501B093F60180E090E0A0EAB1E4809318
:10566000150590931605A0931705B09318058AE9C0
:1056700099E9A9E9BEE38093190590931A05A093CF
:105680001B05B0931C058CED95E0A0E0B0E0809385
:10569000F7019093F801A093F901B093FA01809378
:1056A000FB019093FC01A093FD01B093FE0184E601
:1056B00090E0A0E0B0E08093FF0190930002A093FF
:1056C0000102B093020288EB9BE0A0E0B0E080937F
:1056D000070290930802A0930902B0930A028093F4
:1056E0000B0290930C02A0930D02B0930E028093D4
:1056F0000F0290931002A0931102B0931202109225
:10570000D6048DEC9CECACE4BFE38093CA04909388
:10571000CB04A093CC04B093CD0480E090E0A0EC47
:10572000BFE38093CE049093CF04A093D004B093B2
:10573000D10420E030E040E050E02093D2043093E8
:10574000D3044093D4045093D5042093D7043093CA
:10575000D8044093D9045093DA0471E07093960111
:105760006FEF60939B0180E580939C0180E090E067
:10577000A0E7B1E480939D0190939E01A0939F01C7
:10578000B093A00186E696E6A6E6BFE38093A1016A
:105790009093A201A093A301B093A40180E090E0B4
:1057A000A0E2B2E48093A5019093A601A093A70183
:1057B000B093A8016093A90180E090E0ACE5B3E468
:1057C0008093F5049093F604A093F704B093F80443
:1057D0008093FD049093FE04A093FF04B093000512
:1057E00080E090E0ACE0B3E480930505909306057B
:1057F000A0930705B09308052093F9043093FA04A9
:105800004093FB045093FC04209301053093020560
:1058100040930305509304052093090530930A052E
:1058200040930B0550930C052093310530933205BE
:105830004093330550933405209335053093360556
:1058400040933705509338052093390530933A0536
:1058500040933B0550933C0580E090E0AEEFB2E40E
:1058600080931F0190932001A0932101B093220106
:1058700080E090E0A0E4B1E48093250190932601BC
:10588000A0932701B093280180E090E0A0E2B1E46A
:1058900080932D0190932E01A0932F01B09330019E
:1058A00080E090E0AAE7B4E48093290190932A0174
:1058B000A0932B01B0932C017093520182E8809346
:1058C00057018CE38093580180E090E0A0ECB1E4B4
:1058D0008093590190935A01A0935B01B0935C01AE
:1058E0008EEA97E4A1E6BFE380935D0190935E01A9
:1058F000A0935F01B0936001E0926101F0926201B8
:1059000000936301109364016093650110921B0181
:1059100010921C0110921D0110921E01109217018D
:10592000109218011092190110921A0181E090E072
:10593000909336018093350186E990E09093380189
:105940008093370110923A011092390120933B0164
:1059500030933C0140933D0150933E01E0914C0255
:10596000F0914D0280810E949D3F0E94E3620E945F
:10597000DD351F910F91FF90EF9008951F93182F21
:1059800040911C0250911D0260911E0270911F02F5
:105990008BE490E02EE839E20E9413154091500507
:1059A0005091510560915205709153058FE490E03C
:1059B0002EE839E20E941315409118025091190205
:1059C00060911A0270911B0283E590E02EE839E2A3
:1059D0000E9413154091CB015091CC016091CD01F3
:1059E0007091CE0183E090E00E94CE294091CF01DA
:1059F0005091D0016091D1017091D20187E090E087
:105A00000E94CE294091D3015091D4016091D501DB
:105A10007091D6018BE090E00E94CE294091DB018D
:105A20005091DC016091DD017091DE018FE090E02A
:105A30000E94CE294091DF015091E0016091E10187
:105A40007091E20183E190E00E94CE294091E30150
:105A50005091E4016091E5017091E60187E190E0E9
:105A60000E94CE294091EB015091EC016091ED0133
:105A70007091EE018BE190E00E94CE294091EF0100
:105A80005091F0016091F1017091F2018FE190E08D
:105A90000E94CE294091F3015091F4016091F501EB
:105AA0007091F60183E290E00E94CE2940911505A5
:105AB00050911605609117057091180587E290E0E6
:105AC0000E94CE294091190550911A0560911B053D
:105AD00070911C058FE290E00E94CE296091F70141
