:100000000C941F0C0C944A0C0C944A0C0C944A0C43
:100010000C944A0C0C944A0C0C944A0C0C944A0C08
:100020000C944A0C0C944A0C0C944A0C0C944A0CF8
:100030000C944A0C0C9441470C944A0C0C944A0CB6
:100040000C9447450C9491440C94898E0C944A0C62
:100050000C949B450C94C5450C944A0C0C944A0C8A
:100060000C944A0C0C944A0C0C944A0C0C944A0CB8
:100070000C944A0C0C944A0C0C944A0C0C944A0CA8
:100080000C944A0C0C944A0C0C944A0C084AD73B2A
:100090003BCE016E84BCBFFDC12F3D6C74319ABD57
:1000A00056833DDA3D00C77F11BED9E4BB4C3E917B
:1000B0006BAAAABE000000803F05A84CCDB2D44E6A
:1000C000B93836A9020C50B9918688083CA6AAAA6C
:1000D0002ABE000000803F000001001D001C001926
:1000E000000000FFFF1B001A0019000100FFFF17AE
:1000F00000160019000200FFFFFFFF0F0004000DB3
:10010000001500130012001900010007000E005333
:100110006574204D6963726F7374657070696E6782
:10012000004649524D574152455F4E414D453A5266
:10013000657065746965725F302E393120464952A9
:100140004D574152455F55524C3A68747470733A3A
:100150002F2F6769746875622E636F6D2F726570DB
:1001600065746965722F52657065746965722D4694
:1001700069726D776172652F2050524F544F434F13
:100180004C5F56455253494F4E3A312E30204D4127
:100190004348494E455F545950453A4D656E646534
:1001A0006C2045585452554445525F434F554E5468
:1001B0003A312052455045544945525F50524F54B0
:1001C0004F434F4C3A320044656275673A006F6B9B
:1001D000000D0A004E414E00494E46004572726FB6
:1001E000723A00496E666F3A005761726E696E67C7
:1001F0003A00526573656E643A004563686F3A0071
:100200006F6B200057726F6E6720636865636B7356
:10021000756D004D697373696E6720636865636B04
:1002200073756D00466F726D6174206572726F72C6
:1002300000446F6E65207072696E74696E67206627
:10024000696C6500205800205900205A00204500A4
:10025000204600205300205000204900204A002062
:10026000520053442072656164206572726F72009F
:100270004572726F723A6578706563746564206C5C
:10028000696E65200020676F742000736B697020B1
:1002900000424C4B2000737461727400506F77659C
:1002A0007255700045787465726E616C205265738A
:1002B00065740042726F776E206F7574205265739B
:1002C0006574005761746368646F67205265736575
:1002D0007400536F6674776172652052657365743C
:1002E00000556E6B6E6F776E20636F6D6D616E641F
:1002F0003A00467265652052414D3A00583A002056
:10030000583A0020593A00205A3A0020453A005401
:100310003A0020423A0020403A0020540020400099
:100320002042403A0020524157003A002F005370BB
:100330006565644D756C7469706C793A00466C6FD4
:10034000774D756C7469706C793A0046616E7370A4
:100350006565643A005072696E7465642066696C04
:10036000616D656E743A005072696E74696E6720D3
:1003700074696D653A006D20002064617973200016
:1003800020686F7572732000206D696E00496E766B
:10039000616C696420617263002C002000593A008E
:1003A0005A3A0045303A0045313A004D53312C4D10
:1003B00053322050696E7300536574206F757470EA
:1003C0007574200020746F20004820004C200078B5
:1003D0005F6D696E3A00785F6D61783A00795F6DA4
:1003E000696E3A00795F6D61783A007A5F6D696E87
:1003F0003A007A5F6D61783A004A65726B3A002084
:100400005A4A65726B3A00206C696E65617220739E
:10041000746570733A002071756164726174696308
:100420002073746570733A002C2073706565643DA9
:1004300000454550524F4D207570646174656400ED
:100440006C696E656172204C3A002071756164724E
:1004500061746963204B3A00546172676574457832
:100460007472005461726765744265643A00504961
:1004700044204175746F74756E6520737461727475
:100480000020626961733A200020643A2000206DE8
:10049000696E3A2000206D61783A2000204B753A51
:1004A00020002054753A200020436C617373696307
:1004B0002050494400204B703A2000204B693A20DC
:1004C00000204B643A2000504944204175746F74F9
:1004D000756E65206661696C6564212054656D7078
:1004E0006572617475726520746F20686967680051
:1004F000504944204175746F74756E65206661695A
:100500006C6564212074696D656F75740050494491
:10051000204175746F74756E652066696E697368C5
:100520006564202120506C61636520746865204BF0
:10053000702C204B6920616E64204B6420636F6EC9
:100540007374616E747320696E2074686520436FE4
:100550006E66696775726174696F6E2E68206F725E
:1005600020454550524F4D004D54454D503A00687E
:100570006561746564206265640065787472756491
:10058000657220003A2074656D702073656E736F1C
:100590007220646566656374003A20776F726B69D8
:1005A0006E67005072696E7465722073657420699D
:1005B0006E746F206472792072756E206D6F646541
:1005C00020756E74696C2072657374617274210099
:1005D0004175746F6C6576656C696E6720656E61D8
:1005E000626C6564004175746F6C6576656C696EEC
:1005F000672064697361626C6564005A2D70726F64
:100600006265206661696C6564005A2D70726F6264
:1006100065206D61783A005072696E746572206869
:1006200065696768743A007761697400436F6E6644
:10063000696775726174696F6E2073746F72656437
:1006400020746F20454550524F4D2E00436F6E660B
:10065000696775726174696F6E206C6F616465643F
:100660002066726F6D20454550524F4D2E00436FEE
:100670006E66696775726174696F6E207265736505
:100680007420746F2064656661756C74732E0050FD
:10069000726F746F636F6C2076657273696F6E2012
:1006A0006368616E6765642C207570677261646948
:1006B0006E6700457874722E004550523A30200023
:1006C0004550523A3120004550523A3220004550B0
:1006D000523A332000426175647261746500466964
:1006E0006C616D656E74207072696E746564205BF8
:1006F0006D5D005072696E74657220616374697615
:1007000065205B735D004D61782E20696E616374B6
:100710006976652074696D65205B6D732C303D6F63
:1007200066665D0053746F702073746570706572D7
:1007300020616674657220696E616374697669749C
:1007400079205B6D732C303D6F66665D00582068C4
:100750006F6D6520706F73205B6D6D5D0059206853
:100760006F6D6520706F73205B6D6D5D005A206842
:100770006F6D6520706F73205B6D6D5D0058206D2F
:100780006178206C656E677468205B6D6D5D0059E3
:10079000206D6178206C656E677468205B6D6D5D9F
:1007A000005A206D6178206C656E677468205B6DFF
:1007B0006D5D0058206261636B6C617368205B6DD6
:1007C0006D5D0059206261636B6C617368205B6DC5
:1007D0006D5D005A206261636B6C617368205B6DB4
:1007E0006D5D004D61782E206A65726B205B6D6DCA
:1007F0002F735D004D61782E205A2D6A65726B2033
:100800005B6D6D2F735D00582D6178697320737473
:1008100065707320706572206D6D00592D61786967
:100820007320737465707320706572206D6D005A4B
:100830002D61786973207374657073207065722000
:100840006D6D00582D61786973206D61782E20667A
:1008500065656472617465205B6D6D2F735D005911
:100860002D61786973206D61782E206665656472EC
:10087000617465205B6D6D2F735D005A2D61786921
:1008800073206D61782E20666565647261746520E1
:100890005B6D6D2F735D00582D6178697320686FF3
:1008A0006D696E67206665656472617465205B6D55
:1008B0006D2F735D00592D6178697320686F6D69C4
:1008C0006E67206665656472617465205B6D6D2F6F
:1008D000735D005A2D6178697320686F6D696E676A
:1008E000206665656472617465205B6D6D2F735D54
:1008F00000582D6178697320616363656C6572616E
:1009000074696F6E205B6D6D2F735E325D00592DC3
:100910006178697320616363656C65726174696F86
:100920006E205B6D6D2F735E325D005A2D617869AC
:100930007320616363656C65726174696F6E205BBF
:100940006D6D2F735E325D00582D61786973207470
:10095000726176656C20616363656C657261746950
:100960006F6E205B6D6D2F735E325D00592D617867
:1009700069732074726176656C20616363656C6570
:10098000726174696F6E205B6D6D2F735E325D00F6
:100990005A2D617869732074726176656C20616389
:1009A00063656C65726174696F6E205B6D6D2F732A
:1009B0005E325D004F5053206F7065726174696FD5
:1009C0006E206D6F6465205B303D4F66662C313D57
:1009D000436C61737369632C323D466173745D00CF
:1009E0004F5053206D6F7665206166746572207874
:1009F000252072657472616374205B255D004F5021
:100A000053206D696E2E2064697374616E63652076
:100A1000666F722066696C2E2072657472616374F1
:100A2000696F6E205B6D6D5D004F50532072657471
:100A300072616374696F6E206C656E677468205BA9
:100A40006D6D5D004F5053207265747261637469FF
:100A50006F6E206261636B6C617368205B6D6D5DAE
:100A6000004265642048656174204D616E61676570
:100A700072205B302D335D00426564205049442074
:100A80006472697665206D61780042656420504922
:100A900044206472697665206D696E004265642049
:100AA00050494420502D6761696E004265642050B2
:100AB000494420492D6761696E00426564205049B0
:100AC0004420442D6761696E0042656420504944AA
:100AD000206D61782076616C7565205B302D323534
:100AE000355D00737465707320706572206D6D00E4
:100AF0006D61782E206665656472617465205B6D3A
:100B00006D2F735D00737461727420666565647225
:100B1000617465205B6D6D2F735D00616363656C4F
:100B200065726174696F6E205B6D6D2F735E325DEF
:100B30000068656174206D616E61676572205B306D
:100B40002D335D00504944206472697665206D61E3
:100B50007800504944206472697665206D696E00A2
:100B600050494420502D6761696E2F646561642D82
:100B700074696D650050494420492D6761696E00B4
:100B800050494420442D6761696E00504944206DEE
:100B900061782076616C7565205B302D3235355D6E
:100BA00000582D6F6666736574205B73746570738F
:100BB0005D00592D6F6666736574205B7374657094
:100BC000735D0074656D702E2073746162696C6969
:100BD0007A652074696D65205B735D0074656D7066
:100BE0002E20666F722072657472616374696F6E15
:100BF000207768656E2068656174696E67205B4365
:100C00005D0064697374616E636520746F20726542
:100C10007472616374207768656E206865617469B9
:100C20006E67205B6D6D5D006578747275646572CA
:100C300020636F6F6C6572207370656564205B3034
:100C40002D3235355D00616476616E6365204B2021
:100C50005B303D6F66665D00616476616E63652042
:100C60004C205B303D6F66665D00534420436172EB
:100C7000642072656D6F7665640053442043617231
:100C80006420696E73657274656400534420696EF4
:100C90006974206661696C006572726F7220777288
:100CA0006974696E6720746F2066696C65004265BF
:100CB00067696E2066696C65206C69737400456EA7
:100CC000642066696C65206C6973740046696C65A4
:100CD000206F70656E65643A002053697A653A004A
:100CE00046696C652073656C65637465640066694C
:100CF0006C652E6F70656E206661696C656400536B
:100D000044207072696E74696E6720627974652020
:100D1000004E6F74205344207072696E74696E6760
:100D2000006F70656E206661696C65642C20466991
:100D30006C653A200057726974696E6720746F2081
:100D400066696C653A2000446F6E65207361766950
:100D50006E672066696C652E0046696C6520646567
:100D60006C657465640044656C6574696F6E2066BB
:100D700061696C6564004469726563746F7279209F
:100D800063726561746564004372656174696F6E56
:100D9000206661696C6564005344206572726F72ED
:100DA000436F64653A0001001C151C141C000022EE
:100DB00043141F1FDD0D4D0EA10E110F610F00001A
:100DC0000000D10F59106511B51131124D31313775
:100DD000204578747275646572203100000000A0AF
:100DE0000F5C006009690010097900C0088C007070
:100DF00008A2002008BD00D007DE008007050130F2
:100E0000073401E0066D019006B20140060702F0CA
:100E1000056D02A005E80250057B0300052B04B018
:100E200004F8046004EB06C003350920037F0B803F
:100E300002650DE001B00E40011D0FF000480FC823
:100E4000006C0FA000ED0F60FFFE0F48FE04008055
:100E50001AD8009808AC012007800250065403C835
:100E60000528045805FC040005D005B004A4066854
:100E700004780728044C08E8032009B003F409703B
:100E800003C80A38039C0BF802700CB002440D68CA
:100E900002180E0802EC0E8801C00F8800F00F0047
:100EA000000400001B54006009640010097400C0B5
:100EB00008840070089C002008B800D007D8008083
:100EC00007000130072C01E00668019006AC0140E4
:100ED000060002F0056802A005E002500574030058
:100EE000052404B004F0046004DC051004E406C02A
:100EF000030408700330092003780B8002600DE0C2
:100F000001A80E4001680FA000C00F0000E80F60AC
:100F1000FF0400700DD8004804AC0158038002D8CB
:100F2000025403800228043802FC040002D005C8E1
:100F300001A4069801780770014C0848012009189F
:100F400001F409F000C80AC8009C0BA000700C70E6
:100F500000440D3800180E0000EC0EA8FFC00FE88A
:100F6000FE0400001B54006009640010097400C0F6
:100F700008840070089C002008B800D007D80080C2
:100F800007000130072C01E00668019006AC014023
:100F9000060002F0056802A005E002500574030097
:100FA000052404B004F0046004DC051004E406C069
:100FB000030408700330092003780B8002600DE001
:100FC00001A80E4001680FA000C00F0000E80F60EC
:100FD000FF0000401F450060094F0010095C00C081
:100FE000086B0070087D0020089200D007AC0080DC
:100FF00007CC003007DE00E006230190065E0140CA
:1010000006A601F005FF01A0056D025005F30200E0
:10101000059603B0045A046004400510044806C055
:10102000036E077003A8082003EB09D002230B808E
:1010300002410C3002390DE001040E9001A20E4075
:1010400001170FF000690FA000A20F5000C60F009B
:1010500000DD0FB0FFEB0F60FF0400681D4C005077
:101060000B94005809DC0050082401A8076C0128E3
:1010700007B401C006FC017006440228068C02F089
:1010800005D402B8051C03880564035805AC033079
:1010900005F40310053C04E8048404C804CC04A847
:1010A00004140590045C057004A4055804EC05388C
:1010B00004340620047C060804C406F0030C07D898
:1010C000035407C8039C07B003E40798032C088067
:1010D0000374087003BC085803040948034C093022
:1010E0000394091803DC090803240AF0026C0AE0DF
:1010F00002B40AC802FC0AB002440BA0028C0B889E
:1011000002D40B70021C0C5802640C4002AC0C2878
:1011100002F40C10023C0DF001840DD801CC0DB886
:1011200001140E98015C0E7001A40E4801EC0E181B
:1011300001340FD8007C0F8800C40F0800FC0F009A
:10114000000000000000000000000000000000009F
:10115000000000000000000000000000000000008F
:10116000000000000004000016D800C006AC0178A2
:10117000058002C004540348042804E803FC0498D2
:1011800003D0055003A40618037807D8024C08A81A
:101190000220097002F4093802C80A08029C0BD028
:1011A00001700C9001440D5001180EF800EC0E88EF
:1011B00000C00F00000400401D900060091C01B039
:1011C00007A801D00634023806C002C8054C0368DF
:1011D00005D80318056404D804F00498047C05605D
:1011E0000408063004940600042007D003AC07A8C6
:1011F0000338088003C408580350093003DC090889
:1012000003680AE002F40AB802800B88020C0C6042
:1012100002980C3002240DF801B00DC0013C0E8084
:1012200001C80E3001540FB800B40F2800E00F00C1
:10123000000400081D900058091C01B007A801C84F
:101240000634023006C002C0054C036805D80318F6
:10125000056404D004F00498047C0560040806309A
:1012600004940600042007D003AC07A803380880C4
:1012700003C408580350093003DC090803680AD87E
:1012800002F40AB002800B88020C0C6002980C3049
:1012900002240DF801B00DC0013C0E8001C80E30D3
:1012A00001540FB800B40F2800E00F000000000048
:1012B000000000000000000000000000002D31448C
:1012C0000F24F4F2DD73CBCCBB62AEC2A296989C25
:1012D0008FA2877E80127A4174F96E256AB965A85B
:1012E00061E65D6C5A31572F546151C14E4B4CFB36
:1012F00049CE47C145D143FB413F40993E093D8B13
:101300003B203AC6387C3740361235F133DC32D3D5
:1013100031D430DE2FF32E102E362D632C982BD4A3
:101320002A172A6129B02805286027C02625268F7C
:1013300025FD247024E7236123E0226222E8217145
:1013400021FD208D201F20B41F4C1FE71E841E246A
:101350001EC51D6A1D101DB81C631C0F1CBE1B6E14
:101360001B201BD41A891A401AF819B2196E192BAE
:1013700019E918A9186A182C18EF17B3177917402C
:10138000170817D1169B1665163116FE15CC159A3F
:10139000156A153A150B15DD14B014841458142D64
:1013A000140214D913B0138813601339131213ECF9
:1013B00012C712A2127E125B1238121512F311D24A
:1013C00011B01190117011501131111211F410D689
:1013D00010B8109B107E10621046102B100F10F4E6
:1013E0000FDA0FC00FA60F8C0F730F5A0F420F2981
:1013F0000F120FFA0EE20ECB0EB50E9E0E880E7275
:101400000E5C0E460E310E1C0E070EF30DDF0DCBDB
:101410000DB70DA30D900D7D0D6A0D570D440D32C6
:101420000D200D0E0DFC0CEA0CD90CC80CB70CA647
:101430000C950C850C740C640C540C440C350C2568
:101440000C160C060CF70BE80BD90BCB0BBC0BAE38
:101450000BA00B920B840B760B680B5A0B4D0B40B9
:101460000B320B250B180B0C0BFF0AF20AE60AD9FC
:101470000ACD0AC10AB50AA90A9D0A910A850A7A03
:101480000A6E0A630A580A4D0A420A370A2C0A21D0
:101490000A160A0C0A010AF709EC09E209D809CE72
:1014A00009C409BA09B009A6099C09920989090069
:1014B00000121389095B06C404D0032D03B902622C
:1014C000021E02E801BB01960177015C0145013172
:1014D0000100002110422063308440A550C660E71F
:1014E00070088129914AA16BB18CC1ADD1CEE1EFD9
:1014F000F13112100273325222B5529442F772D671
:1015000062399318837BB35AA3BDD39CC3FFF3DE28
:10151000E36224433420040114E664C774A44485C0
:10152000546AA54BB528850995EEE5CFF5ACC58D78
:10153000D55336722611163006D776F6669556B410
:10154000465BB77AA719973887DFF7FEE79DD7BCC8
:10155000C7C448E5588668A7784008611802282360
:1015600038CCC9EDD98EE9AFF9488969990AA92B18
:10157000B9F55AD44AB77A966A711A500A333A12B0
:101580002AFDDBDCCBBFFB9EEB799B588B3BBB1A68
:10159000ABA66C877CE44CC55C222C033C600C4100
:1015A0001CAEED8FFDECCDCDDD2AAD0BBD688D49B8
:1015B0009D977EB66ED55EF44E133E322E511E7050
:1015C0000E9FFFBEEFDDDFFCCF1BBF3AAF599F7808
:1015D0008F8891A981CAB1EBA10CD12DC14EF16FB9
:1015E000E18010A100C230E320045025404670671E
:1015F00060B9839893FBA3DAB33DC31CD37FE35E4A
:10160000F3B1029012F322D232354214527762566D
:1016100072EAB5CBA5A89589856EF54FE52CD50D59
:10162000C5E234C324A014810466744764245405BD
:1016300044DBA7FAB79987B8975FE77EF71DC73CE9
:10164000D7D326F2369106B016576676761546340D
:10165000564CD96DC90EF92FE9C899E9898AB9ABF9
:10166000A94458654806782768C018E1088238A35D
:10167000287DCB5CDB3FEB1EFBF98BD89BBBAB9A89
:10168000BB754A545A376A167AF10AD01AB32A92AD
:101690003A2EFD0FED6CDD4DCDAABD8BADE89DC999
:1016A0008D267C076C645C454CA23C832CE01CC1FD
:1016B0000C1FEF3EFF5DCF7CDF9BAFBABFD98FF829
:1016C0009F176E367E554E745E932EB23ED10EF04D
:1016D0001E7C3C3E5E2B3D3F2F5B5D3B2C2A225CFB
:1016E000004E6F206572726F7220666F756E642E89
:1016F0000043616E2774206F70656E20726F6F7487
:10170000206469726563746F72792E00496E766128
:101710006C696420666F726D61742C207265666FEF
:10172000726D61742053442E004E6F2063617264A9
:101730002C2077726F6E6720636869702073656C08
:101740006563742070696E2C206F7220535049209D
:1017500070726F626C656D3F0043616E277420612B
:10176000636365737320534420636172642E204465
:101770006F206E6F74207265666F726D61742E00DB
:1017800000002100240027002A000000220025007C
:1017900028002B0000002000230026002900020260
:1017A0000202020202020404040404040404030307
:1017B000030303030303010101010101010101020C
:1017C000040810204080010204081020408001021B
:1017D000040810204080804020100804020100000E
:1017E00000010200000000000000040307060000E2
:1017F0000000000000000000000000000000494E52
:1018000046494E4954594E414ECDCCCC3D0AD72382
:101810003C17B7D13877CC2B329595E6241FB14FC2
:101820000A000020410000C84200401C4620BCBE07
:101830004CCA1B0E5AAEC59D7400FD46CC711124D6
:101840001FBECFEFD0E4DEBFCDBF12E0A0E0B1E01D
:10185000E6E8FBE201E00BBF02C007900D92A03466
:10186000B107D9F71BBE10E1A0E4B2E001C01D92A0
:10187000A337B107E1F718E1CEE3D8E104C022971E
:10188000FE010E947395CA33D107C9F70E94629086
:101890000C94C1950C940000CF93DF93BC0182306F
:1018A000910510F462E070E0A0916F10B09170109B
:1018B000ED01E0E0F0E040E050E021C08881998156
:1018C0008617970769F48A819B81309719F0938373
:1018D000828304C09093701080936F10FE0134C017
:1018E0006817790738F44115510519F084179507E1
:1018F00008F4AC01FE018A819B819C01E9012097DB
:10190000E9F641155105A9F1CA01861B970B049709
:1019100008F4BA01E0E0F0E02AC08D919C911197A3
:1019200084179507F9F46417750781F412968D9161
:101930009C911397309719F09383828304C09093FE
:10194000701080936F10FD0132964CC0CA01861B47
:10195000970BFD01E80FF91F6193719302978D9327
:101960009C9340C0FD01828193819C01D901109715
:10197000A1F680916D1090916E10892B41F48091A9
:1019800011019091120190936E1080936D1040910F
:101990001301509114014115510541F44DB75EB743
:1019A00080910F0190911001481B590B20916D10EF
:1019B00030916E10CA01821B930B8617970780F037
:1019C000AB014E5F5F4F8417950750F0420F531FD6
:1019D00050936E1040936D10F9016193719302C0A2
:1019E000E0E0F0E0CF01DF91CF910895CF93DF9356
:1019F000009709F450C0EC0122971B821A82A09133
:101A00006F10B0917010109709F140E050E0AC17E2
:101A1000BD0708F1BB83AA83FE0121913191E20F3A
:101A2000F31FAE17BF0779F48D919C911197280F82
:101A3000391F2E5F3F4F3983288312968D919C91D9
:101A400013979B838A834115510571F4D0937010CD
:101A5000C0936F1020C012968D919C911397AD0189
:101A6000009711F0DC01D3CFFA01D383C283219117
:101A70003191E20FF31FCE17DF0769F48881998156
:101A8000280F391F2E5F3F4FFA01318320838A814F
:101A90009B8193838283DF91CF910895A0E0B0E092
:101AA000E4E5FDE00C949095EC015B016115710596
:101AB00019F0FB0191838083F9908F2D90E00E94B3
:101AC0007795892BC9F7FDE2FF1621F4F990EE24F2
:101AD000E39405C02BE2F21609F4F990EE248E018E
:101AE00001501040C8016EEF77E143E050E00E94E2
:101AF000DD0F892B01F58E010E5F1F4FC80161E0DC
:101B000078E145E050E00E94DD0F892B19F48E0149
:101B1000095F1F4FA114B10419F0F501118300836F
:101B2000E0FC04C070E090E080E814C070E090E059
:101B300080E86FEF08C1C80166E078E143E050E05B
:101B40000E94DD0F892B69F4A114B10429F470E01F
:101B500090E080EC6FE7F7C02296F501D183C08357
:101B6000F6CF8824992440E050E060E070E0EF2D4B
:101B7000E053EA30A0F5F2E0EF2A8E2D90E09C01D0
:101B800028703070E2FE06C0232B79F50894811C82
:101B9000911C2BC0232B19F0089481089108DB01BC
:101BA000CA0112E0880F991FAA1FBB1F1A95D1F70F
:101BB000480F591F6A1F7B1F440F551F661F771F51
:101BC0004E0F511D611D711D483929E9520729E940
:101BD000620729E1720748F084E0E82A06C0EE3F78
:101BE00031F4E3FC39C098E0E92AF990C0CFE5333D
:101BF00011F0E53189F529912D3219F4E0E1EE2A51
:101C000005C02B3219F081E090E003C0299182E0F9
:101C100090E0E22FE053EA3018F0C81BD90B1CC04B
:101C200020E030E0FCE020383F075CF4C901880F79
:101C3000991F880F991F280F391F220F331F2E0F4E
:101C4000311DE991E053EA3068F3E4FE03C03095BA
:101C500021953F4F820E931ECE2CDD24E1FE07C05E
:101C6000A114B10421F02197F501D183C083CB01E8
:101C7000BA010E9402927B018C01F3E0CF22DD24A5
:101C800023E0C216D10421F417FB109517F9109523
:101C900057016801C801B70120E030E040E050E0A2
:101CA0000E946291882309F44AC097FE0DC02DE17D
:101CB000E22E28E1F22E9094819491089394C0E250
:101CC000D0E000E010E012C095E3E92E98E1F92E93
:101CD000F6CFF7012591359145915491C601B50193
:101CE0000E9412945B016C018C1A9D0A8C169D0651
:101CF00084F7D595C7950F5F1F4F0630110529F062
:101D00008CEF9FEFE80EF91EF1CFC501D6017C01E3
:101D10008D018C2D880F8D2D881F8F3F51F0C601AE
:101D2000B50120E030E040E050E00E94629188235D
:101D300031F482E290E090937210809371107E2DC6
:101D40009F2D802F612F272F392F482F562FB90114
:101D5000CA01CDB7DEB7ECE00C94AC952F923F9260
:101D60005F926F927F928F929F92AF92BF92CF922B
:101D7000DF92EF92FF920F931F93CF93DF938C012B
:101D80001B01EA016115710519F0FB019183808344
:101D9000209749F0CE010297839728F020E030E0A9
:101DA00040E050E0F6C0F801A1908F018A2D90E04C
:101DB0000E947795892BB9F7FDE2AF1631F4F8014F
:101DC000A1908F015524539407C0FBE2AF1619F47C
:101DD000F801A1908F015524209719F0C031D10549
:101DE000C1F4F0E3AF1679F4F8018081883711F07F
:101DF000883549F4F801A1800E5F1F4FF2E05F2A99
:101E0000C0E1D0E006C0209721F480E3A816E9F4F1
:101E100027C0C830D10531F1C930D10524F4C23012
:101E2000D10531F50CC0CA30D10589F0C031D105DA
:101E3000F9F4C12CD12CE12CB8E0FB2E28C0C12C28
:101E4000D12CE12CA0E4FA2E22C0CAE0D0E0FCECB8
:101E5000CF2EFCECDF2EFCECEF2EFCE0FF2E17C0AB
:101E6000C8E0D0E0C12CD12CE12CE0E1FE2E0FC067
:101E70009E01442737FD4095542F60E070E080E0DC
:101E800090E80E942895C901DA016C017D0120E0EB
:101E900030E040E050E060E03E01882477FC809430
:101EA000982C70EDB72EBA0CE9E0EB1570F48A2D82
:101EB00081548A3118F499ECB92E06C08A2D8156C6
:101EC0008A3150F589EAB82EBA0C8B2D90E08C1728
:101ED0009D0714F56F3FE1F0C216D306E406F50640
:101EE000B0F0CA01B901A40193010E94E8949B01DA
:101EF000AC012B0D311D411D511D2130F0E03F077C
:101F0000F0E04F07F0E85F0710F461E001C06FEF09
:101F1000F801A1908F01C5CF2114310481F066230F
:101F200031F001501040F1011183008308C051FECF
:101F30001AC002501040F1011183008314C067FFE2
:101F400012C050FC05C02FEF3FEF4FEF5FE704C01A
:101F500020E030E040E050E882E290E090937210A0
:101F60008093711016C050FE08C050954095309572
:101F700021953F4F4F4F5F4F0CC057FF0AC082E281
:101F800090E090937210809371102FEF3FEF4FEF1E
:101F90005FE7B901CA01DF91CF911F910F91FF90C7
:101FA000EF90DF90CF90BF90AF909F908F907F90F9
:101FB0006F905F903F902F900895FB01DC0141509E
:101FC000504088F08D9181341CF08B350CF4805E8C
:101FD000659161341CF06B350CF4605E861B6111F9
:101FE00071F3990B0895881BFCCFFB01DC0102C043
:101FF00001900D9241505040D8F70895FB01DC014B
:102000000D900020E9F7119701900D920020E1F763
:102010000895FC018191861721F08823D9F799272B
:1020200008953197CF010895FB01DC018D91019056
:1020300080190110D9F3990B0895FB01DC0101907F
:102040000D920020E1F70895FB01DC014150504062
:1020500048F001900D920020C9F701C01D92415037
:102060005040E0F70895FC0181E090E001900616F1
:1020700009F4CF010020D1F701970895A0E0B0E066
:10208000E4E4F0E10C9494957C01EB018A01690190
:1020900009C0CE012196F6010995F70181937F01D0
:1020A0000150104001151105A1F7CDB7DEB7E8E0EA
:1020B0000C94B095BF92CF92DF92EF92FF920F9364
:1020C0001F937B018C01FB010995B82EC801019675
:1020D000F7010995C82EC8010296F7010995D82E77
:1020E000C8010396F7010995982F6B2D7C2D8D2D36
:1020F0001F910F91FF90EF90DF90CF90BF900895C8
:10210000DF92EF92FF920F931F937B018C01FB01F3
:102110000995D82EC8010196F7010995982F8D2DA4
:102120001F910F91FF90EF90DF900895A0E0B0E035
:10213000ECE9F0E10C949495EC017B018A016901D2
:1021400009C0CE012196F70161917F01F601099541
:102150000150104001151105A1F7CDB7DEB7E8E039
:102160000C94B095BF92CF92DF92EF92FF920F93B3
:102170001F93D52EC62EB72E79018C01642FF9013D
:102180000995C80101966D2DF7010995C8010296C0
:102190006C2DF7010995C80103966B2DF701099580
:1021A0001F910F91FF90EF90DF90CF90BF90089517
:1021B000DF92EF92FF920F931F93D72E7A018C013B
:1021C000FA010995C80101966D2DF70109951F9136
:1021D0000F91FF90EF90DF9008959C01F999FECF49
:1021E00032BD21BDF89A80B508950895609115011A
:1021F0007091160180911701909118016817790765
:1022000044F4709318016093170182EF92E00E94EA
:10221000C6210895BC01893191051CF469E170E083
:1022200005C0893C910514F068EC70E070934B0D8B
:1022300060934A0D8DE393E00E94C6210895EF92CA
:10224000FF920F931F93CF93DF93EC018931910598
:102250001CF4C9E1D0E006C081E0C53FD80714F006
:10226000C4EFD1E0BE01882777FD8095982F0E94AA
:1022700004927B018C016091480D7091490D882773
:1022800077FD8095982F0E9404929B01AC01C801B4
:10229000B7010E9469919B01AC016091440D70915E
:1022A000450D8091460D9091470D0E9412946093C8
:1022B000440D7093450D8093460D9093470DD09338
:1022C000490DC093480D8EE293E0BE010E94C621E5
:1022D000DF91CF911F910F91FF90EF9008950E9491
:1022E0000B489C0180911501909116012817390720
:1022F00024F4309316012093150108950E9456444A
:1023000008952F923F924F925F926F927F928F9299
:102310009F92AF92BF92CF92DF92EF92FF920F9374
:102320001F93DF93CF93CDB7DEB728970FB6F894FE
:10233000DEBF0FBECDBFA090CF0CB090D00CC09030
:10234000D10CD090D20C2090D30C3090D40C409073
:10235000D50C5090D60C8091D70C9091D80CA091B0
:10236000D90CB091DA0C89839A83AB83BC8320911A
:10237000EB0C3091EC0C4091ED0C5091EE0C609018
:10238000EF0C7090F00C8090F10C9090F20C80911A
:10239000F30C9091F40CA091F50CB091F60C8D8398
:1023A0009E83AF83B88780918C0C882359F40F2EBD
:1023B000F0E0EF2EF0E0FF2EF0E80F2FFFE31F2FED
:1023C000F02D0AC00F2EF0E7EF2EF2E4FF2EF1E21F
:1023D0000F2FFDE31F2FF02DC601B5010E949C9029
:1023E000A80197010E941294AB01BC018CEF92E00E
:1023F00022E00E94012380918C0C882359F40F2E37
:10240000F0E0EF2EF0E0FF2EF0E80F2FFFE31F2F9C
:10241000F02D0AC00F2EF0E7EF2EF2E4FF2EF1E2CE
:102420000F2FFDE31F2FF02DC201B101A401930175
:102430000E949C90A80197010E941294AB01BC01DC
:1024400083E093E022E00E94012380918C0C88239A
:1024500059F40F2EF0E0EF2EF0E0FF2EF0E80F2FF2
:10246000FFE31F2FF02D0AC00F2EF0E7EF2EF2E44E
:10247000FF2EF1E20F2FFDE31F2FF02D69817A81EE
:102480008B819C812D813E814F8158850E949C903B
:10249000A80197010E941294AB01BC0187E093E070
:1024A00022E00E9401232091CB0C3091CC0C409172
:1024B000CD0C5091CE0CA090990CB0909A0CC0907D
:1024C0009B0CD0909C0C80918C0C882359F40F2E7F
:1024D000F0E0EF2EF0E0FF2EF0E80F2FFFE31F2FCC
:1024E000F02D0AC00F2EF0E7EF2EF2E4FF2EF1E2FE
:1024F0000F2FFDE31F2FF02DCA01B9010E94049296
:10250000A60195010E941294A80197010E941294BD
:10251000AB01BC018BE093E022E00E9416232896D9
:102520000FB6F894DEBF0FBECDBFCF91DF911F91E4
:102530000F91FF90EF90DF90CF90BF90AF909F9062
:102540008F907F906F905F904F903F902F90089565
:102550000F931F930CEF13E0C8016DE00E94CC466F
:10256000C8016AE00E94CC461F910F9108956F92B6
:102570007F928F929F92AF92BF92CF92DF92EF9213
:10258000FF920F931F93DF93CF9300D000D0CDB76E
:10259000DEB76091620D7091630D8091640D909132
:1025A000650D2FE632E143E85AE30E9412947B0165
:1025B0008C01CE01019661E870E044E050E02DEE20
:1025C00030E10E943E10C801B70129813A814B8158
:1025D0005C810E949C90AB01BC0185E593E022E008
:1025E0000E94012386E793E00E94A321E091D3019A
:1025F000F091D401638574858585968520E030E06F
:1026000040E751E40E94709318160CF47AC06624D7
:10261000772443018DE790E06DEE70E10E945A103F
:102620007B018C01E60CF71C081D191DC801B701C0
:1026300020E831E541E050E00E944A95922E832E39
:10264000742E652E622F732F842F952F20E83EEA7B
:102650004EEF5FEF0E94E8945B016C01AE0CBF1C73
:10266000C01ED11E87E693E0492D582D672D762D8B
:102670000E94ED21C601B50120E13EE040E050E0BE
:102680000E944A95122F032FF42EE52E89E793E03E
:10269000422F502F6F2D7E2D0E94ED21612F702F24
:1026A0008F2D9E2D20EF31EF4FEF5FEF0E94E894CA
:1026B000A60EB71EC81ED91EC601B5012CE330E018
:1026C00040E050E00E944A9580E893E0BA01A901F9
:1026D0000E94ED2188E893E00E942A220F900F903B
:1026E0000F900F90CF91DF911F910F91FF90EF907E
:1026F000DF90CF90BF90AF909F908F907F906F9022
:1027000008950E94CE8E20915E0D30915F0D409114
:10271000600D5091610D621B730B840B950B28EEBD
:1027200033E040E050E00E942895C901DA013C0105
:102730004D0170CF1F93182FE0914E02F0914F0280
:1027400046A957A960AD71AD8FE093E022E00E94E9
:1027500001230E94922FAB01BC0182E193E022E0B1
:102760000E940123112391F085E293E061E070E083
:102770000E94FE216CEF7FE080919501909196017F
:10278000681B790B8AE293E00E94FE21E09192019E
:10279000F0E0E75DFB4F608180E293E070E00E9433
:1027A000FE21E0911B01EF3F29F4E0914E02F091F0
:1027B0004F02E081F0E0E75DFB4F608186E193E04E
:1027C00070E00E94FE210E94A8121F91089580913E
:1027D00042028823A1F0109242020E94F5388091B3
:1027E0001A01815080931A01882349F480911901BC
:1027F000833010F40E94643285E080931A010895BA
:1028000004C00E945C410E94E7138091820C8823DF
:10281000C1F70895CF93DF9397FD10C0EC018F3F70
:10282000910521F01CF0CFEFD0E002C0009731F00D
:102830008091F90C88608093F90C07C08091F90CA5
:10284000877F8093F90CC0E0D0E0662311F00E94EE
:10285000001480912C0490E0C817D90729F08BE46C
:1028600093E0BE010E94C621C0932C04DF91CF915A
:1028700008952F923F924F925F926F927F928F9224
:102880009F92AF92BF92CF92DF92EF92FF920F93FF
:102890001F93DF93CF93CDB7DEB7E0970FB6F894D1
:1028A000DEBF0FBECDBF6C0180912E02282F84FFAA
:1028B00019C0D6018C9182FD09C081FF13C0169604
:1028C0008D919C9117978F36910561F00E94CE8E65
:1028D0006093190470931A0480931B0490931C0452
:1028E0000C94AD20F6010081118102FF11C3808597
:1028F00091858431910509F414C28531910550F414
:102900008430910518F4029740F51CC0049709F033
:10291000F3C2C9C18A35910509F42EC28B359105E0
:1029200040F48531910509F400C24C9709F0E4C2E6
:10293000FFC18B35910509F422C28C35910509F050
:10294000DBC221C2C6010E941668882309F4D4C2E2
:1029500080E061E00E949560CFC28091CF0C9091A1
:10296000D00CA091D10CB091D20C89879A87AB87FB
:10297000BC878091D30C9091D40CA091D50CB091D0
:10298000D60C8D879E87AF87B88B8091D70C90919E
:10299000D80CA091D90CB091DA0C898B9A8BAB8BA7
:1029A000BC8BC6010E941668882309F4A5C2FE01EB
:1029B000319688E0DF011D928A95E9F7F601828160
:1029C00080FD05C020E030E040E050E007C0D601C7
:1029D00097962D913D914D915C919A9780918C0C99
:1029E000882351F0CA01B90123E333E34BEC51E4EE
:1029F0000E9412949B01AC0129833A834B835C8330
:102A0000F601828181FD05C020E030E040E050E029
:102A100007C0D6019B962D913D914D915C919E975B
:102A200080918C0C882351F0CA01B90123E333E370
:102A30004BEC51E40E9412949B01AC012D833E8328
:102A40004F835887FE01759680E1DF011D928A95BC
:102A5000E9F78091CF0C9091D00CA091D10CB0915E
:102A6000D20C8D8B9E8BAF8BB88F8091D30C9091B5
:102A7000D40CA091D50CB091D60C898F9A8FAB8FC6
:102A8000BC8F8091D70C9091D80CA091D90CB091AB
:102A9000DA0C8D8F9E8FAF8FB8A36091E70C709189
:102AA000E80C8091E90C9091EA0C0E94049220912C
:102AB000990C30919A0C40919B0C50919C0C0E9467
:102AC000129469A37AA38BA39CA3F601828182FF4F
:102AD000C7C087A490A8A1A8B2A880918C0C882315
:102AE00051F0C501B40123E333E34BEC51E40E9400
:102AF00012944B015C016D897E898F89988D29859F
:102B00003A854B855C850E949B906DA77EA78FA719
:102B100098AB698D7A8D8B8D9C8D2D853E854F85EB
:102B200058890E949B902B013C01C501B40120E013
:102B300030E040E850E40E941294A50194010E9404
:102B400012947B018C016DA57EA58FA598A99B0190
:102B5000AC010E9412949B01AC01C801B7010E9414
:102B60009B907B018C01C301B201A30192010E94E1
:102B700012949B01AC01C801B7010E949B900E9476
:102B80007F947B018C016DA57EA58FA598A9A301DB
:102B900092010E947D939B01AC0117FB109517F9E0
:102BA0001095C801B7010E9469917B018C01A801B1
:102BB00097010E94CC94882329F08DE893E00E942D
:102BC0002F229AC1D60118968D919C91199703973F
:102BD00021F417FB109517F91095C501B40120E0F9
:102BE00030E040E050E00E946291882344F417FBFB
:102BF000109517F91095B7FAB094B7F8B094C301CF
:102C0000B201A80197010E9412949B01AC016DA52D
:102C10007EA58FA598A90E949B9020E030E040E01F
:102C20005FE30E94129469837A838B839C836DA5F2
:102C30007EA58FA598A9A80197010E9412949B01D7
:102C4000AC01C301B2010E949C9020E030E040E062
:102C50005FE30E9412946D837E838F8398870CC0FC
:102C600069817A818B819C812D813E814F8158853C
:102C70000E947D934B015C01E0E0D60118968D9196
:102C80009C911997029709F4E1E0CE010996BE01E3
:102C90006B5E7F4FAE014F5F5F4F95018401EE2E5B
:102CA0000E94AF4F29C10E940014F60180819181DA
:102CB00093FD04C0EE24FF24870107C0D60193963C
:102CC000ED90FD900D911C91969792FF0DC0F6012D
:102CD000678D70A181A192A128EE33E040E050E021
:102CE0000E94E8947B018C010E94CE8E5B016C01F6
:102CF000AE0CBF1CC01ED11E04C00E945C410E94CD
:102D0000E7130E94CE8EA6019501261B370B480BB8
:102D1000590BDA01C90180509449A543B74768F3BC
:102D2000EBC081E080938C0CE7C010928C0CE4C067
:102D3000C80188739070892B21F441E021E061E0A3
:102D400015C0C80143E0969587954A95E1F7282F6D
:102D50002170C80134E0969587953A95E1F7682F80
:102D6000617005FD02C040E001C041E0822F0E9479
:102D7000BD6C0E944364C0C01092BD0CBDC081E018
:102D80008093BD0CB9C0A090EB0CB090EC0CE0901F
:102D9000ED0CF090EE0C6090EF0C7090F00C8090C9
:102DA000F10C9090F20C2090F30C3090F40C4090C9
:102DB000F50C5090F60C03FF23C0D6011A962D9106
:102DC0003D914D915C911D9780918C0C882351F021
:102DD000CA01B90123E333E34BEC51E40E9412949E
:102DE0009B01AC01CA01B9012091CF0C3091D00CEC
:102DF0004091D10C5091D20C0E949B905B017C01C0
:102E000004FF21C0F60126853785408951898091CC
:102E10008C0C882351F0CA01B90123E333E34BEC56
:102E200051E40E9412949B01AC01CA01B9012091A6
:102E3000D30C3091D40C4091D50C5091D60C0E94FB
:102E40009B903B014C0105FF23C0D60152962D916A
:102E50003D914D915C91559780918C0C882351F058
:102E6000CA01B90123E333E34BEC51E40E9412940D
:102E70009B01AC01CA01B9012091D70C3091D80C4B
:102E80004091D90C5091DA0C0E949B901B012C01AF
:102E9000B501C7019301A401710182010E9422645E
:102EA000F601808186FF28C026893789408D518DA3
:102EB00080918C0C882351F0CA01B90123E333E3DC
:102EC0004BEC51E40E9412949B01AC01CA01B90180
:102ED0002091EE013091EF014091F0015091F1010C
:102EE0000E9412940E94D1916093CB0C7093CC0CF1
:102EF0008093CD0C9093CE0C0E94CE8E60931904DB
:102F000070931A0480931B0490931C040C94AD20BE
:102F100001FD02C00C949B20D60116968D919C91C8
:102F200017978237910509F49AC68337910508F0FF
:102F300086C08035910509F4D7C58135910508F023
:102F40003DC08931910509F43DC18A319105C8F42C
:102F50008631910509F419C18731910548F484310E
:102F6000910509F406C1459711F00C94AD2007C1F5
:102F70008731910509F40FC1489711F00C94AD20E9
:102F80001CC18C31910509F441C18D31910548F482
:102F90008A31910509F41CC14B9711F00C94AD20B6
:102FA00030C18032910509F44CC18A32910509F48F
:102FB00059C14E9711F00C94AD2034C18C35910558
:102FC00009F4EAC58D359105D8F48335910509F4E6
:102FD000A2C58435910550F48135910509F493C556
:102FE0008235910511F00C94AD2092C58435910580
:102FF00009F495C58535910511F00C94AD20ABC54C
:103000008A36910509F454C58B36910550F48836FB
:10301000910509F46FC18936910511F00C94AD202A
:1030200019C28D36910509F41FC28F36910509F436
:10303000FCC58B36910511F00C94AD204BC58C3D31
:10304000910509F476C78D3D910508F041C0893C92
:10305000910509F433C68A3C9105D8F48737910568
:1030600009F400C68837910550F48337910509F4B7
:10307000EFC58437910511F00C94AD2074C48C38E1
:10308000910509F4ADC18E3B910511F00C94AD2072
:10309000CFC38C3C910509F4B0C68D3C910550F42A
:1030A0008A3C910509F450C68B3C910511F00C94B3
:1030B000AD2090C68E3C910509F4E8C68E3C910582
:1030C00008F4E1C68F3C910511F00C94AD20E2C6E6
:1030D000B1E080399B0709F4D7C7E1E081399E0749
:1030E00010F5883E910509F45BC7893E910550F4BF
:1030F0008D3D910509F42FC78F3D910511F00C947A
:10310000AD2039C7F1E08F329F0709F49DC421E05B
:103110008E35920711F40C949620893E910511F09A
:103120000C94AD206FC731E0843F930711F40C94E9
:103130007D2041E0853F940758F451E0813995079F
:1031400009F4A5C78259914011F00C94AD20A2C793
:10315000B1E0863F9B0711F40C949320E1E0863F99
:103160009E0708F4D2C7875F914011F00C94AD2000
:103170008AC68CEC9DE00E943C730C94AD208CECD4
:103180009DE00E9464760C94AD208CEC9DE00E9442
:1031900094710C94AD2017FFE0C78CEC9DE060E0CB
:1031A0000E947D81D601D3966D917C91D4978CEC51
:1031B0009DE040E00E94A572D0C78CEC9DE00E948B
:1031C000A571CBC78CEC9DE060E00E94B275C5C7CD
:1031D00012FFC3C7F601478D50A161A172A1809172
:1031E000360E882309F4B9C740932D0E50932E0E46
:1031F00060932F0E7093300E8CE09EE00E94107F43
:10320000ACC78CEC9DE00E948072A7C717FFA5C7D2
:10321000D601D3966D917C91D4978CEC9DE00E9461
:1032200048729BC717FF99C78CEC9DE060E00E9435
:103230007D81F60163A974A98CEC9DE00E94FB716D
:103240008CC717FF8AC78CEC9DE060E00E947D81EF
:10325000D601D3966D917C91D4978CEC9DE00E9421
:10326000D1717BC712FF79C713FF77C7F601878D2E
:1032700090A1A1A1B2A1B7FD70C78F3F9105A10593
:10328000B10511F00CF069C703A114A120E030E0F2
:10329000F901EE0FFF1FE952FF4FE4918E2F90E0EE
:1032A0008017910709F459C72F5F3F4F2833310525
:1032B00079F717FD52C7802F61E00E94B28F802FEF
:1032C000D6015F966C910E942F90F601678D70A1D8
:1032D000802F0E94348F88EB93E0B8010E94FE217A
:1032E000D6015F966D917C91909784EC93E00E945B
:1032F000C62133C70E941632882309F02EC70E94C8
:10330000CE8E6093190470931A0480931B049093DB
:103310001C0480912E0283FD20C7F60180819181DB
:1033200093FD0AC092FF0AC0878D90A1A1A1B2A10E
:103330000097A105B10511F40E940014D6018D91EA
:103340009C91119792FF09C75F968D909D90AD90CB
:10335000BC9092979C012070317091FF1EC05E96C8
:103360000C91232B11F410E00FC010E0F601628DD8
:10337000738D848D958D20E030E040E050E00E9418
:10338000709318160CF411E0C501B4010E94049268
:10339000402F212F0E945D36E0C6E0914E02F09151
:1033A0004F020081232B11F410E011C010E0D60170
:1033B0005A966D917D918D919C915D9720E030E0C2
:1033C00040E050E00E94709318160CF411E0C50123
:1033D000B4010E940492402F212F0E945D36BDC689
:1033E0000E941632882309F0B8C60E94CE8E6093E0
:1033F000190470931A0480931B0490931C04809109
:103400002E0283FDAAC6F6018081918192FFA5C696
:10341000E78CF0A001A112A190FD02C0BB2412C054
:10342000BB24D6015A966D917D918D919C915D97AB
:1034300020E030E040E050E00E947093181614F451
:10344000BB24B394C801B7010E9404924B2D0E9483
:103450009F3283C683E0169507958A95E1F7802F02
:1034600081700E949A1379C60E941632882309F04F
:1034700074C60E94CE8E6093190470931A048093D0
:103480001B0490931C0480912E0283FD66C60E944B
:10349000001480904E0290904F02F60120813181FD
:1034A00031FF07C0868D882321F41CE1812E11E0B5
:1034B000912E32FF27C0D6015F96ED90FD900D91C1
:1034C0001C919297F401A08030FD02C0BB2412C071
:1034D000BB24D6015A966D917D918D919C915D97FB
:1034E00020E030E040E050E00E947093181614F4A1
:1034F000BB24B394C801B7010E9404924A2D2B2D1E
:103500000E945D36F40166A977A980AD91AD22AD28
:1035100033AD44AD55AD0E949B907B018C0120E002
:1035200030E040E050E00E94709318165CF4C8014F
:10353000B70120E030E040E050E40E94629188232F
:1035400064F40BC6C801B70120E030E040E050EC65
:103550000E94709318160CF400C63324D401D4963C
:103560002D913C91D597D2968D919C91D3978217AE
:10357000930714F4332433940E94CE8E69A77AA75C
:103580008BA79CA744245524320110E00E94CE8EC4
:103590006DA37EA38FA398A7DC01CB0129A53AA533
:1035A0004BA55CA5821B930BA40BB50B895E9340C6
:1035B000A040B04058F080E00E949A138DA19EA1D7
:1035C000AFA1B8A589A79AA7ABA7BCA70E94E7138C
:1035D00080914E0290914F028816990609F067C0BB
:1035E000D4019396ED90FC9094971E141F040CF058
:1035F0005EC0112309F05BC0332009F458C09196D6
:103600006D917C919297882777FD8095982F0E94E5
:1036100004929B01AC01F40166A977A980AD91AD3C
:103620000E94709318160CF042C000D000D000D059
:103630000DB71EB70F5F1F4F662777276E197F09DB
:10364000882777FD8095982F0E9404922091EE01A3
:103650003091EF014091F0015091F1010E941294DC
:103660000E94D1915B016C01F40187859089A18949
:10367000B289F80180839183A283B3831482158277
:1036800060E070E080E090E020E030E040E050E07A
:10369000EE24FF2487010E94196311E02DB73EB785
:1036A0002A5F3F4F0FB6F8943EBF0FBE2DBF4114A7
:1036B00051046104710409F053C03320C9F0D401EE
:1036C000DA966D917D918D919C91DD9720E030E0AF
:1036D00040E85FE30E949B909B01AC01F40166A966
:1036E00077A980AD91AD0E94709387FF1AC04ECF2D
:1036F000D401DA966D917D918D919C91DD9720E0BA
:1037000030E040E85FE30E949C909B01AC01F40133
:1037100066A977A980AD91AD0E94629118160CF44C
:1037200035CFD4015F966D917C919097882777FD76
:103730008095982F28EE33E040E050E00E94E89416
:103740002B013C012DA13EA14FA158A5420E531EB5
:10375000641E751E411451046104710409F416CFEE
:10376000D301C2012DA13EA14FA158A5821B930BED
:10377000A40BB50B80509449A543B74708F406CF76
:10378000112309F44AC080914E0290914F0288168D
:10379000990609F042C000D000D000D00DB71EB786
:1037A0000F5F1F4FD40193966D917C91949788275A
:1037B00077FD8095982F0E9404922091EE01309120
:1037C000EF014091F0015091F1010E9412940E948A
:1037D000D1915B016C01F40187859089A189B2893F
:1037E000F80180839183A283B3831482158260E001
:1037F00070E080E090E020E030E040E050E0EE2437
:10380000FF2487010E9419632DB73EB72A5F3F4FFF
:103810000FB6F8943EBF0FBE2DBF0E94CE8E6093B0
:10382000190470931A0480931B0490931C0495C48C
:1038300023FD93C40E940014D6018D919C91119791
:1038400092FF21C05F96ED90FD900D911C91929793
:1038500090FD02C0BB2410C0BB24F601628D738DA5
:10386000848D958D20E030E040E050E00E94709320
:10387000181614F4BB24B394C801B7010E94049233
:103880004B2D0E949F326091990170919A01809115
:103890009B0190919C0120919D0130919E0140914E
:1038A0009F015091A0010E949B907B018C0120E020
:1038B00030E040E050E00E94709318165CF4C801BC
:1038C000B70120E030E040E450E40E946291882398
:1038D00064F443C4C801B70120E030E040E450EC98
:1038E0000E94709318160CF438C40E94CE8E7B018F
:1038F0008C0114C00E94CE8E6E197F09800B910B33
:10390000695E73408040904038F080E00E949A13D6
:103910000E94CE8E7B018C010E94E7136091990179
:1039200070919A0180919B0190919C0120E030E080
:1039300040E05FE30E949C9020919D0130919E01A8
:1039400040919F015091A0010E94629187FDD2CFCA
:103950000E94CE8E6093190470931A0480931B0406
:1039600090931C04FAC323FDF8C30E94CE8E4B0132
:103970005C010E94CE8E681979098A099B09695EEB
:1039800073408040904038F080E00E949A130E947B
:10399000CE8E4B015C010E94E713C090D301D09002
:1039A000D401D6011B96ED90FD900D911C911E97B0
:1039B000C801B70120E030E040EF51E40E9470936D
:1039C0001816A4F4C801B701F60127813085418596
:1039D00052850E949B909F7720E030E040E85FE3B3
:1039E0000E947093181614F4772402C077247394FD
:1039F000C090D501D090D601D6011B96ED90FD90D8
:103A00000D911C911E97C801B70120E030E040EFF6
:103A100051E40E94709318169CF4C801B701F60196
:103A200027813085418552850E949B909F7720E0B9
:103A300030E040E85FE30E94709318160CF499CFD1
:103A4000772009F496CF89C312FD03C026E930E040
:103A500005C0D6015F962D913C91909713FD03C050
:103A6000CC24DD240AC0F601C3A0D4A0F2E0CF1616
:103A7000D1041CF0B2E0CB2ED12CF601EE0FFF1FCB
:103A8000ED52FE4FE080F180B901882777FD8095E7
:103A9000982F0E940492AB01BC01E3E016950795B4
:103AA000EA95E1F70170C7012C2D0E94063355C33A
:103AB00012FD03C08FEF90E005C0D6015F968D9197
:103AC0009C919097612F66956695669561700E94AE
:103AD0000A1443C3612F669566956695617080E010
:103AE00090E00E940A1439C30E9400140E94CE8EF6
:103AF0006093190470931A0480931B0490931C0420
:103B0000579A5F982AC30E940014579A5F9A25C358
:103B10001092BE0C22C381E08093BE0C1EC312FF24
:103B200014C0F601678D70A181A192A128EE33E047
:103B300040E050E00E94E8946093D8017093D9016E
:103B40008093DA019093DB0108C30E94001481E0A6
:103B50000E94E66D02C312FF16C0D6015F966D91FA
:103B60007D918D919C91929728EE33E040E050E05A
:103B70000E94E89460931D0470931E0480931F04B8
:103B800090932004EAC210921D0410921E04109219
:103B90001F0410922004E1C203FF0DC0F6018285CC
:103BA0009385A485B5858093E2019093E301A0936A
:103BB000E401B093E501D6018C9184FF0EC01E96FE
:103BC0008D919D910D90BC91A02D8093E6019093D5
:103BD000E701A093E801B093E901F601808185FF38
:103BE0000CC082899389A489B5898093EA01909356
:103BF000EB01A093EC01B093ED010E94766ED6012B
:103C00008C9186FFAAC2E0914E02F0914F02569627
:103C10002D913D914D915C91599721873287438732
:103C2000548780810E94233798C212FF04C0F60196
:103C3000878D80932E0280912E0283FF8EC260E0DA
:103C400070E080E090E040E020E00E945D3685C2B8
:103C500081E291E00E942A220E94B7127EC20E9455
:103C600081117BC20E9400148FEC93E00E94A3217B
:103C7000189B03C08CEC93E002C089EC93E00E9497
:103C8000A3218DED93E00E94A321199B03C08CEC2E
:103C900093E002C089EC93E00E94A3218BEE93E0B5
:103CA0000E94A3211A9B03C08CEC93E002C089EC14
:103CB00093E00E94A3210E94A8124FC203FF0DC0EF
:103CC000F60182859385A485B58580930E02909335
:103CD0000F02A0931002B0931102D6018C9184FFC1
:103CE0000EC01E968D919D910D90BC91A02D80933C
:103CF000120290931302A0931402B0931502F601DE
:103D0000808185FF0CC082899389A489B5898093BD
:103D1000160290931702A0931802B0931902D601CD
:103D20008C9186FF0EC056968D919D910D90BC9101
:103D3000A02D80931A0290931B02A0931C02B093B3
:103D40001D020E94766E09C203FF0DC0F601828536
:103D50009385A485B58580931E0290931F02A0933E
:103D60002002B0932102D6018C9184FF0EC01E96D2
:103D70008D919D910D90BC91A02D809322029093E6
:103D80002302A0932402B0932502F601808185FFCF
:103D90000CC082899389A489B58980932602909367
:103DA0002702A0932802B0932902D6018C9186FFA6
:103DB0000EC056968D919D910D90BC91A02D809333
:103DC0002A0290932B02A0932C02B0932D020E9402
:103DD000766EC3C112FFC1C1F601278D30A141A18A
:103DE00052A112161306140615061CF02093190191
:103DF000B4C181E080931901B0C180914E029091CD
:103E00004F0212FD03C0FC01BF9610C0F601878D62
:103E100090A1A1A1B2A1B7FDA0C10097A105B105D4
:103E200019F4EBE4F1E002C0E2E9F1E003FF0BC0BA
:103E3000D6011A962D913D914D915C911D97228F3F
:103E4000338F448F558FD6018C9184FF0AC01E9604
:103E50002D913D914D915C915197268F378F40A3C5
:103E600051A3D6018C9185FF0AC052962D913D91A8
:103E70004D915C91559722A333A344A355A3CF0141
:103E80000E94462F6AC10E94472467C1C6010E9452
:103E9000D02C63C103FF0DC0F60182859385A485F4
:103EA000B58580934C0D90934D0DA0934E0DB0931E
:103EB0004F0DD6018C9186FF11C0E0914E02F0911A
:103EC0004F0256962D913D914D915C915997278BBC
:103ED000308F418F528F80810E942337F60180817D
:103EE00085FF0CC082899389A489B5898093500D80
:103EF0009093510DA093520DB093530D40914C0DE2
:103F000050914D0D60914E0D70914F0D89EF93E0E2
:103F100022E00E9401234091500D5091510D60917B
:103F2000520D7091530D8FEF93E022E00E94162303
:103F300014C112FD05C024E630E040E050E007C0A7
:103F4000D6015F962D913D914D915C919297C9015B
:103F50000E941F1102C112FD05C024E630E040E0BE
:103F600050E005C0F601278D30A141A152A1C90141
:103F70000E940A11F2C012FFF0C08FB7F89420918E
:103F80008A0C30918B0CD6015F964D915C91909785
:103F9000240F351F30938B0C20938A0C8FBFDDC00C
:103FA000609123047091240487E094E00E94FE2134
:103FB000609121047091220486E194E00E94FE2128
:103FC00040912504509126046091270470912804A3
:103FD00088E294E022E00E941623109222041092BC
:103FE0002104109224041092230480E090E0A0E0C9
:103FF000B0E08093250490932604A0932704B09307
:104000002804ABC004FF0EC020914E0230914F0235
:10401000F60186859785A089B189F90181A792A7C4
:10402000A3A7B4A7E0914E02F0914F0241A552A57B
:1040300063A574A580E494E022E00E940123D601E8
:104040008C9183FF0FC020914E0230914F021A963F
:104050008D919D910D90BC91A02DF90185A396A302
:10406000A7A3B0A7E0914E02F0914F0245A156A13F
:1040700067A170A58AE494E022E00E9401230E94D7
:10408000A8120E94F26369C00E94001466C00E94D8
:10409000C46463C010FF08C0D6015A96CD90DD906D
:1040A000ED90FC905D9708C0C090440DD090450DF8
:1040B000E090460DF090470DB80134E07695679595
:1040C0003A95E1F76170A80125E0569547952A9544
:1040D000E1F74170980196E0369527959A95E1F7BA
:1040E000217083E0169507958A95E1F7802F8170FE
:1040F000870176010E944C6D30C080E00E94C72687
:104100008CE296E00E94492228C00E94B729E091E3
:104110004E02F0914F0280810E9423378CE496E09A
:104120000E9449221AC00E944B2D17C08FE091E0D7
:104130000E942A2212C011FF07C00E940014F6013B
:10414000868D0E94233709C022FF07C081EE92E0CE
:104150000E94A321C6010E94093CE0960FB6F89484
:10416000DEBF0FBECDBFCF91DF911F910F91FF90AA
:10417000EF90DF90CF90BF90AF909F908F907F9007
:104180006F905F904F903F902F900895CF93DF9363
:104190001CC08091370E882381F0888181FF04C084
:1041A0008E819F814D97F9F08CEC9DE0BE010E94BD
:1041B000E273CE010E94624003C0CE010E94391416
:1041C000CE010E9473400E94E7138091820C8823E5
:1041D00029F40E94F83BEC01009751F00E945C41E9
:1041E0002097B9F6F0CF8CEC9DE00E942A72E1CFC7
:1041F000DF91CF910895CF93DF930E945C410E949D
:10420000F83BEC010097D1F08091370E882381F0C4
:10421000888181FF04C08E819F814D9791F08CEC45
:104220009DE0BE010E94E273CE010E94624003C085
:10423000CE010E943914CE010E9473400E941E6E6E
:10424000DCCF8CEC9DE00E942A72EECFCF93DF93FF
:10425000EC0105C021968CEF93E00E94CC4668816A
:104260006623C1F7DF91CF910895AF92BF92CF92AD
:10427000DF92EF92FF920F931F93DF93CF93CDB70F
:10428000DEB72B970FB6F894DEBF0FBECDBFC62E9C
:10429000D92E1B869BE0A92EB12CAC0EBD1E6C2D19
:1042A0009D2D2AE030E040E050E00E942895D52E78
:1042B0007901042F152F80E3C80EC801B7012AE049
:1042C00030E040E050E00E94E894C61AF501C29246
:1042D0005F01CE2C7F2D802FE114F1040105110523
:1042E000F1F6CF010E9426212B960FB6F894DEBF7F
:1042F0000FBECDBFCF91DF911F910F91FF90EF9037
:10430000DF90CF90BF90AF900895EF92FF920F9300
:104310001F937B018C0197FF0DC08CEF93E06DE242
:104320000E94CC4610950095F094E094E11CF11C9D
:10433000011D111DC801B7010E9435211F910F9168
:10434000FF90EF900895CF93DF93EC0104C08CEFC2
:1043500093E00E94CC46FE01649121966623B9F752
:10436000DF91CF910895EF92FF920F931F937A01FF
:104370008B010E94A321C801B7010E9435210E9430
:10438000A8121F910F91FF90EF900895EF92FF9266
:104390000F931F937B010E94A3210027F7FC009538
:1043A000102FC801B7010E9485210E94A8121F91F9
:1043B0000F91FF90EF900895EF92FF920F931F934C
:1043C0007A018B010E94A321C801B7010E94352107
:1043D0001F910F91FF90EF900895EF92FF920F932E
:1043E0001F937A018B010E94A321C801B7010E948B
:1043F00085211F910F91FF90EF900895EF92FF920A
:104400000F931F937B010E94A3210027F7FC0095C7
:10441000102FC801B7010E9485211F910F91FF90B5
:10442000EF9008950F931F938B010E94A321C80161
:104430000E9426211F910F9108950F931F938B01C6
:104440000E94A321C8010E9426210E94A8121F9148
:104450000F9108950E94A3210E94A81208950F931E
:104460001F938C018CED91E00E94A321C8010E9452
:104470002A221F910F9108950F931F938C0183EEB1
:1044800091E00E94A321C8010E942A221F910F914E
:1044900008950F931F938C0183EE91E00E94A32156
:1044A000C8010E94A3211F910F9108959F92AF927E
:1044B000BF92CF92DF92EF92FF920F931F93CF9311
:1044C000DF937B018C01942EA80197010E94CC946C
:1044D000882319F084ED91E020C0C0E0D0E05701BE
:1044E0006801E894D7F8C601B5012FEF3FEF4FE719
:1044F0005FE70E94CC94882351F4C601B5012FEFE9
:104500003FEF4FE75FE70E946291181614F0C1E099
:10451000D0E0219729F088ED91E00E94A32165C0A9
:10452000C801B70120E030E040E050E00E94629115
:1045300088234CF48CEF93E06DE20E94CC4617FB8D
:10454000109517F9109520E030E040E05FE3DD249E
:104550000BC0CA01B90120E030E040E251E40E9402
:1045600069919B01AC01D394D91498F3C801B701A8
:104570000E949C905B016C010E94D6917B018C0192
:104580000E943521992029F08CEF93E06EE20E9481
:10459000CC46C801B7010E9402929B01AC01C60142
:1045A000B5010E949B901FC020E030E040E251E442
:1045B0000E9412947B018C010E94D1915B016C01DD
:1045C000CC24B7FCC094DC2CC601B5010E94852127
:1045D000C601B5010E9404929B01AC01C801B7015C
:1045E0000E949B909A949920F9F6DF91CF911F91A8
:1045F0000F91FF90EF90DF90CF90BF90AF909F9082
:104600000895DF92EF92FF920F931F937A018B012F
:10461000D22E0E94A321C801B7014D2D0E9456221F
:104620001F910F91FF90EF90DF900895DF92EF922E
:10463000FF920F931F937A018B01D22E0E94A32128
:10464000C801B7014D2D0E9456220E94A8121F9149
:104650000F91FF90EF90DF9008959C01F999FECFA4
:1046600032BD21BDF89A80B508959C01F999FECF1D
:104670001FBA32BD21BD60BD0FB6F894FA9AF99AFF
:104680000FBE0895885C904022E08835920778F448
:1046900064E670E00E9414956F5F7F4F83EB96E0B5
:1046A0000E94FE218CEF93E060E20E94CC460895C8
:1046B0000F931F93CF93DF93EC018B0189EB96E06F
:1046C000BE010E94FE218CEF93E060E20E94CC4686
:1046D000F999FECFD2BDC1BDF89A60B570E08827C8
:1046E00077FD8095982F0E9485218CEF93E060E202
:1046F0000E94CC46CE010E944223C8010E942A2279
:10470000DF91CF911F910F910895CF92DF92EF9299
:10471000FF920F931F938C016B0180EC96E0B80120
:104720000E94FE218CEFE82E83E0F82EC70160E2A4
:104730000E94CC46C8016DE273E20E948010AA2755
:1047400097FDA095BA2FBC01CD010E948521C7011C
:1047500060E20E94CC46C8010E944223C6010E942A
:104760002A221F910F91FF90EF90DF90CF90089534
:10477000CF92DF92EF92FF920F931F938C016B0108
:1047800087EC96E0B8010E94FE219CEFE92E93E0B1
:10479000F92EC70160E20E94CC46C8016DE273E2C7
:1047A0000E945A100E948521C70160E20E94CC46F7
:1047B000C8010E944223C6010E942A221F910F9124
:1047C000FF90EF90DF90CF900895F999FECF12BC43
:1047D00011BCF89A80B5813071F48BE490E06DE201
:1047E00073E20E945A106093DC017093DD018093A4
:1047F000DE019093DF010895DF93CF9300D000D0C6
:10480000CDB7DEB7BC01CE01019644E050E02DE209
:1048100033E20E943E1029813A814B815C81B901CB
:10482000CA010F900F900F900F90CF91DF910895D4
:10483000BF92CF92DF92EF92FF920F931F938C0162
:104840006B01B42E8EEC96E0B8010E94FE212CEF95
:10485000E22E23E0F22EC70160E20E94CC46C8019E
:104860000E94FC234B2D0E945622C70160E20E9449
:10487000CC46C8010E944223C6010E942A221F91F1
:104880000F91FF90EF90DF90CF90BF9008958BE451
:1048900090E065ED76E00E94B82381E890E06EED4F
:1048A00076E043E00E9418248DE790E063EF76E025
:1048B0000E94B8238FE490E066E077E00E94B8237E
:1048C00083E590E064E277E00E94B82383E090E023
:1048D00067E078E044E00E94182487E090E06BE114
:1048E00078E044E00E9418248BE090E06FE278E0EA
:1048F00044E00E9418248FE090E063E478E043E015
:104900000E94182483E190E06FE578E043E00E9484
:10491000182487E190E06BE778E043E00E941824D8
:104920008BE190E067E978E043E00E9418248FE192
:1049300090E065EB78E043E00E94182483E290E089
:1049400063ED78E043E00E94182487E290E063EE94
:1049500077E043E00E9418248FE290E064EF77E074
:1049600043E00E94182485E890E06DE477E043E09E
:104970000E94182489E890E06DE577E043E00E940A
:1049800018248DE890E06DE677E043E00E9418245B
:1049900081E990E06DE777E043E00E94182485E923
:1049A00090E06FE877E043E00E94182489E990E006
:1049B00061EA77E043E00E94182483E390E061EF2E
:1049C00078E043E00E94182487E390E06EE079E00D
:1049D00043E00E9418248BE390E06BE279E043E02F
:1049E0000E9418248FE390E068E479E043E00E949D
:1049F000182483E490E06CE679E043E00E941824F8
:104A000087E490E060E979E043E00E9418248AE6B8
:104A100090E061E67AE00E9458238BE690E068E738
:104A20007AE00E9458238CE790E06AE87AE00E94DE
:104A300058238CE690E06CE97AE043E00E94182469
:104A400080E790E06BEA7AE043E00E94182484E774
:104A500090E06AEB7AE043E00E94182488E790E057
:104A600069EC7AE00E94582388EC90E063EE7AE0EB
:104A700043E00E9418248CEC90E060EF7AE043E081
:104A80000E94182480ED90E065E07BE043E00E9406
:104A9000182484ED90E06BE17BE043E00E94182451
:104AA00088ED90E061E37BE00E94582389ED90E07F
:104AB00064E47BE00E94582385EF90E062E57BE0B0
:104AC0000E9458238AED90E060E67BE044E00E947B
:104AD00018248EED90E065E77BE044E00E94182406
:104AE00082EE90E060E87BE044E00E94182486EECD
:104AF00090E06BE87BE00E94582387EE90E061EA4B
:104B00007BE00E94B8238BEE90E062EB7BE00E949A
:104B1000B8238FEE90E063EC7BE00E9485238AEF60
:104B200090E06CED7BE00E9485238CEF90E062E0EA
:104B30007CE00E9485238EEF90E068E27CE00E949A
:104B4000582381EF90E066E47CE043E00E94182463
:104B500086EF90E068E57CE043E00E941824089529
:104B6000DF93CF9300D000D0CDB7DEB749835A830F
:104B70006B837C83BE016F5F7F4F44E050E025E391
:104B800033E20E9496100F900F900F900F90CF91EC
:104B9000DF91089588E293E047ED53EA6FE172E414
:104BA0000E94B0258CE293E040E050E060E070E4C9
:104BB0000E94B02588E493E040E050E066E173E4B1
:104BC0000E94B02580E293E040E050E060E070E0B9
:104BD0000E94B02584E293E040E050E060E070E0A5
:104BE0000E94B02580E393E040E050E068EC72E47E
:104BF0000E94B02584E393E040E050E060EA71E475
:104C00000E94B02588E393E040E050E060E273E466
:104C10000E94B0258CE393E040E050E06AE273E448
:104C20000E94B02580E493E040E050E060EA71E447
:104C30000E94B02584E493E040E050E06AE273E42F
:104C40000E94B0250895EF92FF920F931F936091F9
:104C5000620D7091630D8091640D9091650D20E05F
:104C600030E040E050E00E946291882309F48AC05D
:104C70000E94CE8E20915E0D30915F0D4091600DAF
:104C80005091610D621B730B840B950B28EE33E082
:104C900040E050E00E94289579018A018DE790E07C
:104CA0006DE273E20E945A10E60EF71E081F191FEC
:104CB0008DE790E0B801A70125E333E20E94B2102E
:104CC00081E890E00E94FC237B018C016091620DE1
:104CD0007091630D8091640D9091650D2FE632E126
:104CE00043E85AE30E9412949B01AC01C801B7014A
:104CF0000E949C90AB01BC0181E890E00E94B0252D
:104D000080E090E0A0E0B0E08093620D9093630DAE
:104D1000A093640DB093650D0E94CE8E60935E0DDE
:104D200070935F0D8093600D9093610D20E030E0F3
:104D300040E02836310539F0F999FECF32BD21BD6A
:104D4000F89A80B5480F2F5F3F4F88E02030380732
:104D500081F7F999FECF88E690E092BD81BDF89A7F
:104D600080B5481769F0F999FECF1FBA88E690E040
:104D700092BD81BD40BD0FB6F894FA9AF99A0FBE64
:104D80000E94B7121F910F91FF90EF9008951F930B
:104D9000182F4091DC015091DD016091DE0170918E
:104DA000DF018BE490E025E333E20E94B2104091F2
:104DB0001D0450911E0460911F04709120048FE423
:104DC00090E025E333E20E94B2104091D801509167
:104DD000D9016091DA017091DB0183E590E025E370
:104DE00033E20E94B2104091E2015091E3016091E0
:104DF000E4017091E50183E090E00E94B0254091CC
:104E0000E6015091E7016091E8017091E90187E0C6
:104E100090E00E94B0254091EA015091EB01609131
:104E2000EC017091ED018BE090E00E94B025409183
:104E3000F2015091F3016091F4017091F5018FE05E
:104E400090E00E94B0254091F6015091F7016091E9
:104E5000F8017091F90183E190E00E94B025409142
:104E6000FA015091FB016091FC017091FD0187E115
:104E700090E00E94B025409102025091030260919F
:104E80000402709105028BE190E00E94B0254091F0
:104E900006025091070260910802709109028FE1A9
:104EA00090E00E94B02540910A0250910B0260915F
:104EB0000C0270910D0283E290E00E94B0254091B7
:104EC0004C0D50914D0D60914E0D70914F0D87E23C
:104ED00090E00E94B0254091500D5091510D60918D
:104EE000520D7091530D8FE290E00E94B0254091D9
:104EF0000E0250910F02609110027091110283E333
:104F000090E00E94B02540911202509113026091EE
:104F100014027091150287E390E00E94B025409141
:104F200016025091170260911802709119028BE3DA
:104F300090E00E94B02540911E0250911F026091A6
:104F40002002709121028FE390E00E94B0254091F1
:104F5000220250912302609124027091250283E481
:104F600090E00E94B0254091260250912702609166
:104F700028027091290287E490E00E94B0252091D8
:104F8000A501F999FECF1FBA8AE690E092BD81BDD6
:104F900020BD0FB6F894FA9AF99A0FBE2091AA0193
:104FA000F999FECF1FBA8BE690E092BD81BD20BD7E
:104FB0000FB6F894FA9AF99A0FBE2091AB01F999BD
:104FC000FECF1FBA8CE790E092BD81BD20BD0FB629
:104FD000F894FA9AF99A0FBE4091AC015091AD0144
:104FE0006091AE017091AF018CE690E00E94B02517
:104FF0004091B0015091B1016091B2017091B30143
:1050000080E790E00E94B0254091B4015091B50135
:105010006091B6017091B70184E790E00E94B025DD
:105020002091B801F999FECF1FBA88E790E092BDB0
:1050300081BD20BD0FB6F894FA9AF99A0FBE40913F
:10504000300D5091310D6091320D7091330D85E826
:1050500090E00E94B0254091380D5091390D60913B
:105060003A0D70913B0D89E890E00E94B025409187
:10507000400D5091410D6091420D7091430D8DE8AE
:1050800090E00E94B02540912C0D50912D0D609123
:105090002E0D70912F0D81E990E00E94B025409176
:1050A000340D5091350D6091360D7091370D85E9B5
:1050B00090E00E94B02540913C0D50913D0D6091D3
:1050C0003E0D70913F0D89E990E00E94B0258DE979
:1050D00090E040E050E060E070E00E94B02581EA9E
:1050E00090E040E050E060E070E00E94B02585EA8A
:1050F00090E040E050E060E070E00E94B025A895AC
:10510000409125015091260160912701709128015D
:1051100088EC90E00E94B02540912B0150912C0129
:1051200060912D0170912E018CEC90E00E94B025D1
:1051300040913301509134016091350170913601F5
:1051400080ED90E00E94B02540912F0150913001F8
:10515000609131017091320184ED90E00E94B025A0
:1051600020915E01F999FECF1FBA88ED90E092BDC3
:1051700081BD20BD0FB6F894FA9AF99A0FBE20911E
:105180006301F999FECF1FBA89ED90E092BD81BD10
:1051900020BD0FB6F894FA9AF99A0FBE20916401D7
:1051A000F999FECF1FBA85EF90E092BD81BD20BD79
:1051B0000FB6F894FA9AF99A0FBE40916501509192
:1051C000660160916701709168018AED90E00E942C
:1051D000B0254091690150916A0160916B01709115
:1051E0006C018EED90E00E94B02540916D015091D0
:1051F0006E0160916F017091700182EE90E00E94EB
:10520000B02520917101F999FECF1FBA86EE90E08A
:1052100092BD81BD20BD0FB6F894FA9AF99A0FBEDF
:1052200040911D0150911E0160911F01709120015C
:1052300087EE90E025E333E20E94B2104091210115
:105240005091220160912301709124018BEE90E036
:1052500025E333E20E94B21060913B0170913C0162
:105260008FEE90E045E353E20E94D81060913D013B
:1052700070913E018AEF90E045E353E20E94D8101E
:1052800060913F01709140018CEF90E045E353E263
:105290000E94D81020919001F999FECF1FBA8EEF8D
:1052A00090E092BD81BD20BD0FB6F894FA9AF99AAC
:1052B0000FBE4091410150914201609143017091B4
:1052C000440181EF90E00E94B0254091450150914A
:1052D0004601609147017091480186EF90E00E947D
:1052E000B0251123A1F08DE790E040E050E060E0B0
:1052F00070E025E333E20E94B21081E890E040E0E4
:1053000050E060E070E00E94B0250E94CA25F99943
:10531000FECF1FBA89E690E092BD81BD86E080BDD8
:105320000FB6F894FA9AF99A0FBE20E030E040E008
:105330002836310539F0F999FECF32BD21BDF89AF2
:1053400080B5480F2F5F3F4F88E02030380781F746
:10535000F999FECF1FBA88E690E092BD81BD40BDAD
:105360000FB6F894FA9AF99A0FBE1F9108951F93F9
:10537000F999FECF89E690E092BD81BDF89A10B50B
:105380008BE490E06DE273E20E945A106093DC01BE
:105390007093DD018093DE019093DF018FE490E054
:1053A0006DE273E20E945A1060931D0470931E0414
:1053B00080931F049093200483E590E06DE273E2F4
:1053C0000E945A106093D8017093D9018093DA013A
:1053D0009093DB0183E090E00E94FC236093E20164
:1053E0007093E3018093E4019093E50187E090E0FE
:1053F0000E94FC236093E6017093E7018093E8012B
:105400009093E9018BE090E00E94FC236093EA0115
:105410007093EB018093EC019093ED018FE090E0AD
:105420000E94FC236093F2017093F3018093F401D6
:105430009093F50183E190E00E94FC236093F601D4
:105440007093F7018093F8019093F90187E190E060
:105450000E94FC236093FA017093FB018093FC018E
:105460009093FD018BE190E00E94FC236093020287
:105470007093030280930402909305028FE190E001
:105480000E94FC2360930602709307028093080237
:105490009093090283E290E00E94FC2360930A0249
:1054A00070930B0280930C0290930D0287E290E0C0
:1054B0000E94FC2360934C0D70934D0D80934E0D14
:1054C00090934F0D8FE290E00E94FC236093500D6B
:1054D0007093510D8093520D9093530D83E390E0A0
:1054E0000E94FC2360930E0270930F0280931002BF
:1054F0009093110287E390E00E94FC2360931202D4
:105500007093130280931402909315028BE390E042
:105510000E94FC2360931602709317028093180276
:10552000909319028FE390E00E94FC2360931E0287
:1055300070931F02809320029093210283E490E0F5
:105540000E94FC2360932202709323028093240222
:105550009093250287E490E00E94FC23609326024A
:10556000709327028093280290932902F999FECF25
:105570008AE690E092BD81BDF89A80B58093A5013E
:10558000F999FECF8BE690E092BD81BDF89A80B587
:105590008093AA01F999FECF8CE790E092BD81BD7E
:1055A000F89A80B58093AB018CE690E00E94FC23D2
:1055B0006093AC017093AD018093AE019093AF0105
:1055C00080E790E00E94FC236093B0017093B101EA
:1055D0008093B2019093B30184E790E00E94FC2392
:1055E0006093B4017093B5018093B6019093B701B5
:1055F000F999FECF88E790E092BD81BDF89A80B519
:105600008093B80185E890E00E94FC236093300D00
:105610007093310D8093320D9093330D89E890E0B3
:105620000E94FC236093380D7093390D80933A0DDE
:1056300090933B0D8DE890E00E94FC236093400D19
:105640007093410D8093420D9093430D81E990E05A
:105650000E94FC2360932C0D70932D0D80932E0DD2
:1056600090932F0D85E990E00E94FC236093340D08
:105670007093350D8093360D9093370D89E990E046
:105680000E94FC2360933C0D70933D0D80933E0D72
:1056900090933F0DA89588EC90E00E94FC236093C6
:1056A00025017093260180932701909328018CECAB
:1056B00090E00E94FC2360932B0170932C01809357
:1056C0002D0190932E0180ED90E00E94FC236093C9
:1056D000330170933401809335019093360184ED4A
:1056E00090E00E94FC2360932F017093300180931F
:1056F000310190933201F999FECF88ED90E092BD8F
:1057000081BDF89A80B580935E01F999FECF89ED4D
:1057100090E092BD81BDF89A80B580936301F999BC
:10572000FECF85EF90E092BD81BDF89A80B5809361
:1057300064018AED90E00E94FC2360936501709300
:10574000660180936701909368018EED90E00E945E
:10575000FC236093690170936A0180936B019093BD
:105760006C0182EE90E00E94FC2360936D017093C7
:105770006E0180936F0190937001F999FECF86EED0
:1057800090E092BD81BDF89A80B58093710187EE5B
:1057900090E06DE273E20E945A1060931D017093D5
:1057A0001E0180931F01909320018BEE90E06DE22B
:1057B00073E20E945A10609321017093220180933A
:1057C0002301909324018FEE90E06DE273E20E943A
:1057D000801090933C0180933B018AEF90E06DE252
:1057E00073E20E94801090933E0180933D018CEF04
:1057F00090E06DE273E20E948010909340018093EC
:105800003F0181EF90E00E94FC236093410170937F
:105810004201809343019093440186EF90E00E94FF
:10582000FC23609345017093460180934701909358
:105830004801123068F0F999FECF8EEF90E092BDEA
:1058400081BDF89A80B580939001163009F462C04A
:105850008FE896E00E943C22133008F058C088E29E
:1058600093E047ED53EA6FE172E40E94B0258CE2C9
:1058700093E040E050E060E070E40E94B02588E4EE
:1058800093E040E050E066E173E40E94B02580E2DE
:1058900093E040E050E060E070E00E94B02584E2D8
:1058A00093E040E050E060E070E00E94B02580E3CB
:1058B00093E040E050E068EC72E40E94B02584E39D
:1058C00093E040E050E060EA71E40E94B02588E394
:1058D00093E040E050E060E273E40E94B0258CE386
:1058E00093E040E050E06AE273E40E94B02580E477
:1058F00093E040E050E060EA71E40E94B02584E467
:1059000093E040E050E06AE273E40E94B02580E05A
:105910000E94C7260E94766E0E948D2F1F910895C7
:105920000F931F9320E030E010E02836310539F066
:10593000F999FECF32BD21BDF89A80B5180F2F5FBF
:105940003F4F88E02030380781F7F999FECF88E68D
:1059500090E092BD81BDF89A00B5F999FECF12BCD6
:1059600011BCF89A80B5813029F4011719F40E940E
:10597000B72913C0F999FECF1FBA12BC11BC81E040
:1059800080BD0FB6F894FA9AF99A0FBE0E94CA2504
:1059900080E0011381E00E94C7261F910F910895B6
:1059A000FC018081918191FF42C093FF40C0268D10
:1059B0002130D9F0213030F0223011F1233009F0BC
:1059C00036C02BC092FF33C023A134A145A156A1FC
:1059D000878DF999FECF1FBA32BD21BD80BD0FB6AC
:1059E000F894FA9AF99A0FBE22C092FF20C0678DF0
:1059F00070A183A194A145E353E20E94D81017C07F
:105A000092FF15C0478D50A161A172A183A194A1FD
:105A100025E333E20E94B2100AC083FF08C042852A
:105A200053856485758583A194A10E94B02520E0EB
:105A300030E040E02836310539F0F999FECF32BD2B
:105A400021BDF89A80B5480F2F5F3F4F88E0203086
:105A5000380781F7F999FECF88E690E092BD81BDC5
:105A6000F89A80B5481769F0F999FECF1FBA88E611
:105A700090E092BD81BD40BD0FB6F894FA9AF99AB4
:105A80000FBE0E94B729E0914E02F0914F02808133
:105A90000E9423370895EF92FF920F931F9380E0A7
:105AA00092ECA1E0B0E08093DC019093DD01A09343
:105AB000DE01B093DF0110921D0410921E041092BB
:105AC0001F041092200480E49EE7A5E0B0E08093DC
:105AD000D8019093D901A093DA01B093DB018FE153
