:100000000C94AE130C94D9130C94D9130C94D913EB
:100010000C94D9130C94D9130C94D9130C94D913B0
:100020000C94D9130C94D9130C94D9130C94D913A0
:100030000C94D9130C94B14F0C94D9130C94D9137C
:100040000C94F94C0C94F34E0C94F0BE0C94D91310
:100050000C944D4D0C94774D0C94D9130C94D913EA
:100060000C94D9130C94D9130C94D9130C94D91360
:100070000C94D9130C94D9130C94D9130C94D91350
:100080000C94D9130C94D9130C94D913A39C319DBF
:10009000D19D0F9F7FA87FA87FA87FA87FA87FA85A
:1000A0007FA87FA87FA86C9EA09ED59E7FA87FA8D2
:1000B0007FA87FA87FA87FA87FA87FA87FA87FA808
:1000C0007FA861A0A5A0E6A02AA16EA1B2A1F3A17C
:1000D0003AA2DDA481A2C2A203A344A385A3C6A31E
:1000E00007A44EA495A47FA87FA87FA87FA87FA877
:1000F000BB9FFD9F2FA034A55CA5A5A5F0A500A6DC
:1001000025A657A689A6C9A60CA74CA792A7ACA757
:1001100010A601A87FA87FA87FA87FA87FA87FA896
:100120007FA87FA87FA87FA87FA8529F869F7FA8CF
:100130007FA87FA87FA87FA87FA87FA87FA841A8C5
:100140007FA8D69F7FA87FA87FA8C8A7E5A77FA87C
:100150007FA87FA87FA8959C084AD73B3BCE016E1D
:1001600084BCBFFDC12F3D6C74319ABD56833DDA0E
:100170003D00C77F11BED9E4BB4C3E916BAAAABE1D
:10018000000000803F05A84CCDB2D44EB93836A946
:10019000020C50B9918688083CA6AAAA2ABE000083
:1001A00000803F000001001D001C0019000000FF3E
:1001B000FF1B001A0019000100FFFF1700160019AD
:1001C000000200FFFFFFFF0F0004000D00150013E9
:1001D0000012001900010007000E00536574204D45
:1001E0006963726F7374657070696E6700486561EA
:1001F00074696E67204265640048656174696E6762
:10020000204578747275646572004649524D5741B5
:1002100052455F4E414D453A52657065746965724D
:100220005F302E3931204649524D574152455F5576
:10023000524C3A68747470733A2F2F6769746875FA
:10024000622E636F6D2F72657065746965722F52CF
:10025000657065746965722D4669726D7761726546
:100260002F2050524F544F434F4C5F5645525349E5
:100270004F4E3A312E30204D414348494E455F5450
:100280005950453A4D656E64656C20455854525539
:100290004445525F434F554E543A312052455045E4
:1002A000544945525F50524F544F434F4C3A3200DD
:1002B00044656275673A006F6B000D0A004E414E4F
:1002C00000494E46004572726F723A00496E666F81
:1002D0003A005761726E696E673A00526573656ED7
:1002E000643A004563686F3A006F6B200057726F85
:1002F0006E6720636865636B73756D004D6973731A
:10030000696E6720636865636B73756D00466F7215
:100310006D6174206572726F7200446F6E6520703B
:1003200072696E74696E672066696C65002058009A
:10033000205900205A00204500204600205300206C
:100340005000204900204A0020520053442072658A
:100350006164206572726F72004572726F723A65E5
:1003600078706563746564206C696E652000206731
:100370006F742000736B69702000424C4B20007337
:100380007461727400506F776572557000457874AF
:1003900065726E616C2052657365740042726F778E
:1003A0006E206F75742052657365740057617463B5
:1003B00068646F6720526573657400536F66747765
:1003C00061726520526573657400556E6B6E6F7750
:1003D0006E20636F6D6D616E643A004672656520D4
:1003E00052414D3A00583A0020583A0020593A00FC
:1003F000205A3A0020453A00543A0020423A002060
:10040000403A002054002040002042403A00205250
:100410004157003A002F0053706565644D756C7448
:1004200069706C793A00466C6F774D756C746970C1
:100430006C793A0046616E73706565643A0050727B
:10044000696E7465642066696C616D656E743A00EE
:100450005072696E74696E672074696D653A006DDB
:1004600020002064617973200020686F757273200A
:1004700000206D696E00496E76616C69642061725E
:1004800063002C002000593A005A3A0045303A00E7
:1004900045313A004D53312C4D53322050696E7323
:1004A00000536574206F7574707574200020746F2C
:1004B00020004820004C2000785F6D696E3A00787B
:1004C0005F6D61783A00795F6D696E3A00795F6DB2
:1004D00061783A007A5F6D696E3A007A5F6D617893
:1004E0003A004A65726B3A00205A4A65726B3A00CC
:1004F000206C696E6561722073746570733A0020B8
:100500007175616472617469632073746570733AA4
:10051000002C2073706565643D00454550524F4D79
:100520002075706461746564006C696E6561722029
:100530004C3A0020717561647261746963204B3AB2
:100540000054617267657445787472005461726713
:1005500065744265643A00504944204175746F7473
:10056000756E652073746172740020626961733AFC
:10057000200020643A2000206D696E3A2000206D32
:1005800061783A2000204B753A20002054753A20BB
:100590000020436C61737369632050494400204B11
:1005A000703A2000204B693A2000204B643A20002A
:1005B000504944204175746F74756E652066616999
:1005C0006C6564212054656D706572617475726527
:1005D00020746F2068696768005049442041757431
:1005E0006F74756E65206661696C6564212074693D
:1005F0006D656F757400504944204175746F747552
:100600006E652066696E6973686564202120506C90
:1006100061636520746865204B702C204B692061F4
:100620006E64204B6420636F6E7374616E7473200C
:10063000696E2074686520436F6E666967757261C4
:1006400074696F6E2E68206F7220454550524F4D71
:10065000004D54454D503A006865617465642062F0
:10066000656400657874727564657220003A207460
:10067000656D702073656E736F7220646566656367
:1006800074003A20776F726B696E67005072696E02
:100690007465722073657420696E746F206472795A
:1006A0002072756E206D6F646520756E74696C20A4
:1006B0007265737461727421004175746F6C657634
:1006C000656C696E6720656E61626C65640041757A
:1006D000746F6C6576656C696E67206469736162BE
:1006E0006C6564005A2D70726F6265206661696C7A
:1006F0006564005A2D70726F6265206D61783A00F2
:100700005072696E746572206865696768743A0032
:100710007761697400436F6E6669677572617469A9
:100720006F6E2073746F72656420746F204545503E
:10073000524F4D2E00436F6E666967757261746922
:100740006F6E206C6F616465642066726F6D20450A
:100750004550524F4D2E00436F6E6669677572614A
:1007600074696F6E20726573657420746F206465A0
:100770006661756C74732E0050726F746F636F6C6A
:100780002076657273696F6E206368616E67656459
:100790002C20757067726164696E670045787472A9
:1007A0002E004550523A3020004550523A31200038
:1007B0004550523A3220004550523A3320004261AF
:1007C0007564726174650046696C616D656E742054
:1007D0007072696E746564205B6D5D005072696E45
:1007E00074657220616374697665205B735D004D8A
:1007F00061782E20696E6163746976652074696D15
:1008000065205B6D732C303D6F66665D0053746FC1
:1008100070207374657070657220616674657220F3
:10082000696E6163746976697479205B6D732C30CD
:100830003D6F66665D005820686F6D6520706F7350
:10084000205B6D6D5D005920686F6D6520706F7362
:10085000205B6D6D5D005A20686F6D6520706F7351
:10086000205B6D6D5D0058206D6178206C656E6752
:100870007468205B6D6D5D0059206D6178206C653A
:100880006E677468205B6D6D5D005A206D61782025
:100890006C656E677468205B6D6D5D0058206261E9
:1008A000636B6C617368205B6D6D5D0059206261E4
:1008B000636B6C617368205B6D6D5D005A206261D3
:1008C000636B6C617368205B6D6D5D004D61782EAC
:1008D000206A65726B205B6D6D2F735D004D6178D2
:1008E0002E205A2D6A65726B205B6D6D2F735D0033
:1008F000582D617869732073746570732070657208
:10090000206D6D00592D6178697320737465707363
:1009100020706572206D6D005A2D617869732073A7
:100920007465707320706572206D6D00582D61784C
:100930006973206D61782E206665656472617465E7
:10094000205B6D6D2F735D00592D61786973206D8B
:1009500061782E206665656472617465205B6D6DDB
:100960002F735D005A2D61786973206D61782E2098
:100970006665656472617465205B6D6D2F735D00E3
:10098000582D6178697320686F6D696E67206665A0
:10099000656472617465205B6D6D2F735D00592D08
:1009A0006178697320686F6D696E6720666565643C
:1009B00072617465205B6D6D2F735D005A2D6178D7
:1009C000697320686F6D696E672066656564726122
:1009D0007465205B6D6D2F735D00582D61786973B0
:1009E00020616363656C65726174696F6E205B6D15
:1009F0006D2F735E325D00592D61786973206163DC
:100A000063656C65726174696F6E205B6D6D2F73C9
:100A10005E325D005A2D6178697320616363656C95
:100A200065726174696F6E205B6D6D2F735E325DF0
:100A300000582D617869732074726176656C20614D
:100A40006363656C65726174696F6E205B6D6D2F99
:100A5000735E325D00592D6178697320747261761E
:100A6000656C20616363656C65726174696F6E208B
:100A70005B6D6D2F735E325D005A2D617869732056
:100A800074726176656C20616363656C6572617414
:100A9000696F6E205B6D6D2F735E325D004F50533A
:100AA000206F7065726174696F6E206D6F64652070
:100AB0005B303D4F66662C313D436C6173736963F7
:100AC0002C323D466173745D004F5053206D6F763C
:100AD0006520616674657220782520726574726184
:100AE0006374205B255D004F5053206D696E2E208E
:100AF00064697374616E636520666F722066696CE9
:100B00002E2072657472616374696F6E205B6D6D07
:100B10005D004F50532072657472616374696F6E2B
:100B2000206C656E677468205B6D6D5D004F50537F
:100B30002072657472616374696F6E206261636BA9
:100B40006C617368205B6D6D5D0042656420486573
:100B50006174204D616E61676572205B302D335D7D
:100B60000042656420504944206472697665206DB6
:100B7000617800426564205049442064726976655A
:100B8000206D696E004265642050494420502D67F5
:100B900061696E004265642050494420492D6761B7
:100BA000696E004265642050494420442D676169A4
:100BB0006E0042656420504944206D617820766162
:100BC0006C7565205B302D3235355D007374657052
:100BD0007320706572206D6D006D61782E206665E2
:100BE000656472617465205B6D6D2F735D00737455
:100BF000617274206665656472617465205B6D6DF9
:100C00002F735D00616363656C65726174696F6EFB
:100C1000205B6D6D2F735E325D0068656174206DC1
:100C2000616E61676572205B302D335D0050494411
:100C3000206472697665206D6178005049442064B3
:100C400072697665206D696E0050494420502D67A9
:100C500061696E2F646561642D74696D650050492A
:100C60004420492D6761696E0050494420442D6736
:100C700061696E00504944206D61782076616C7521
:100C800065205B302D3235355D00582D6F666673FB
:100C90006574205B73746570735D00592D6F6666B3
:100CA000736574205B73746570735D0074656D703B
:100CB0002E2073746162696C697A652074696D6550
:100CC000205B735D0074656D702E20666F722072FC
:100CD000657472616374696F6E207768656E2068F1
:100CE000656174696E67205B435D0064697374615C
:100CF0006E636520746F207265747261637420770F
:100D000068656E2068656174696E67205B6D6D5DF6
:100D100000657874727564657220636F6F6C6572BC
:100D2000207370656564205B302D3235355D006160
:100D30006476616E6365204B205B303D6F66665D57
:100D400000616476616E6365204C205B303D6F66A8
:100D5000665D00534420436172642072656D6F7656
:100D60006564005344204361726420696E73657248
:100D700074656400534420696E6974206661696C0F
:100D8000006572726F722077726974696E67207481
:100D90006F2066696C6500426567696E2066696CE4
:100DA00065206C69737400456E642066696C65200B
:100DB0006C6973740046696C65206F70656E65645C
:100DC0003A002053697A653A0046696C652073657C
:100DD0006C65637465640066696C652E6F70656E22
:100DE000206661696C6564005344207072696E749A
:100DF000696E67206279746520004E6F74205344D9
:100E0000207072696E74696E67006F70656E20661F
:100E100061696C65642C2046696C653A20005772E4
:100E20006974696E6720746F2066696C653A20008A
:100E3000446F6E6520736176696E672066696C65C4
:100E40002E0046696C652064656C657465640044B9
:100E5000656C6574696F6E206661696C65640044D9
:100E600069726563746F7279206372656174656419
:100E7000004372656174696F6E206661696C6564B8
:100E8000005344206572726F72436F64653A0001CB
:100E9000001C151C141C00002243141F1FC60E3614
:100EA0000F8A0FFA0F4A1000000000BA1042114ECC
:100EB000129E121A134D31313720457874727564C1
:100EC0006572203100000000A00F5C00600969001D
:100ED00010097900C0088C007008A2002008BD002D
:100EE000D007DE008007050130073401E0066D0100
:100EF0009006B20140060702F0056D02A005E80267
:100F000050057B0300052B04B004F8046004EB06D5
:100F1000C003350920037F0B8002650DE001B00E90
:100F200040011D0FF000480FC8006C0FA000ED0F2E
:100F300060FFFE0F48FE0400801AD8009808AC013C
:100F40002007800250065403C80528045805FC04F5
:100F50000005D005B004A4066804780728044C08EE
:100F6000E8032009B003F4097003C80A38039C0B96
:100F7000F802700CB002440D6802180E0802EC0E64
:100F80008801C00F8800F00F00000400001B54000F
:100F90006009640010097400C008840070089C0097
:100FA0002008B800D007D8008007000130072C01C6
:100FB000E00668019006AC0140060002F0056802F8
:100FC000A005E0025005740300052404B004F004F9
:100FD0006004DC051004E406C00304087003300953
:100FE0002003780B8002600DE001A80E4001680F1D
:100FF000A000C00F0000E80F60FF0400700DD800D3
:101000004804AC0158038002D8025403800228042B
:101010003802FC040002D005C801A4069801780734
:1010200070014C08480120091801F409F000C80AB1
:10103000C8009C0BA000700C7000440D3800180E06
:101040000000EC0EA8FFC00FE8FE0400001B5400D7
:101050006009640010097400C008840070089C00D6
:101060002008B800D007D8008007000130072C0105
:10107000E00668019006AC0140060002F005680237
:10108000A005E0025005740300052404B004F00438
:101090006004DC051004E406C00304087003300992
:1010A0002003780B8002600DE001A80E4001680F5C
:1010B000A000C00F0000E80F60FF0000401F4500C7
:1010C00060094F0010095C00C0086B0070087D00CB
:1010D00020089200D007AC008007CC003007DE006B
:1010E000E006230190065E014006A601F005FF011F
:1010F000A0056D025005F30200059603B0045A04E2
:101100006004400510044806C0036E077003A80879
:101110002003EB09D002230B8002410C3002390D71
:10112000E001040E9001A20E4001170FF000690FBC
:10113000A000A20F5000C60F0000DD0FB0FFEB0FA4
:1011400060FF0400681D4C00500B94005809DC003F
:1011500050082401A8076C012807B401C006FC014F
:101160007006440228068C02F005D402B8051C0360
:10117000880564035805AC033005F40310053C04EE
:10118000E8048404C804CC04A804140590045C0595
:101190007004A4055804EC053804340620047C06C9
:1011A0000804C406F0030C07D8035407C8039C07BF
:1011B000B003E40798032C08800374087003BC088C
:1011C0005803040948034C09300394091803DC0947
:1011D0000803240AF0026C0AE002B40AC802FC0AFE
:1011E000B002440BA0028C0B8802D40B70021C0CC2
:1011F0005802640C4002AC0C2802F40C10023C0DA6
:10120000F001840DD801CC0DB801140E98015C0ECC
:101210007001A40E4801EC0E1801340FD8007C0FA9
:101220008800C40F0800FC0F000000000000000050
:1012300000000000000000000000000000000000AE
:10124000000000000000000000000000000004009A
:101250000016D800C006AC0178058002C004540313
:1012600048042804E803FC049803D0055003A406AE
:1012700018037807D8024C08A80220097002F40964
:101280003802C80A08029C0BD001700C9001440D72
:101290005001180EF800EC0E8800C00F000004008A
:1012A000401D900060091C01B007A801D00634025F
:1012B0003806C002C8054C036805D8031805640445
:1012C000D804F00498047C056004080630049406F1
:1012D00000042007D003AC07A80338088003C40823
:1012E000580350093003DC090803680AE002F40AD5
:1012F000B802800B88020C0C6002980C3002240D9E
:10130000F801B00DC0013C0E8001C80E3001540F31
:10131000B800B40F2800E00F00000400081D900082
:1013200058091C01B007A801C80634023006C002E3
:10133000C0054C036805D80318056404D004F00404
:1013400098047C0560040806300494060004200715
:10135000D003AC07A80338088003C4085803500919
:101360003003DC090803680AD802F40AB002800BD3
:1013700088020C0C6002980C3002240DF801B00DAC
:10138000C0013C0E8001C80E3001540FB800B40FEC
:101390002800E00F0000534420526561642045722C
:1013A000726F720042696E6172793A00436F6D6DBF
:1013B000616E6442756666657200000000000000A0
:1013C000000000000000000000002D31440F24F454
:1013D000F2DD73CBCCBB62AEC2A296989C8FA28783
:1013E0007E80127A4174F96E256AB965A861E65D5E
:1013F0006C5A31572F546151C14E4B4CFB49CE476B
:10140000C145D143FB413F40993E093D8B3B203ACA
:10141000C6387C3740361235F133DC32D331D43024
:10142000DE2FF32E102E362D632C982BD42A172A5C
:101430006129B02805286027C02625268F25FD2490
:101440007024E7236123E0226222E8217121FD203C
:101450008D201F20B41F4C1FE71E841E241EC51D97
:101460006A1D101DB81C631C0F1CBE1B6E1B201BAD
:10147000D41A891A401AF819B2196E192B19E918D9
:10148000A9186A182C18EF17B317791740170817FF
:10149000D1169B1665163116FE15CC159A156A15D0
:1014A0003A150B15DD14B014841458142D140214BD
:1014B000D913B0138813601339131213EC12C71227
:1014C000A2127E125B1238121512F311D211B01152
:1014D00090117011501131111211F410D610B81072
:1014E0009B107E10621046102B100F10F40FDA0FB5
:1014F000C00FA60F8C0F730F5A0F420F290F120F38
:10150000FA0EE20ECB0EB50E9E0E880E720E5C0E1B
:10151000460E310E1C0E070EF30DDF0DCB0DB70D71
:10152000A30D900D7D0D6A0D570D440D320D200D4C
:101530000E0DFC0CEA0CD90CC80CB70CA60C950CC3
:10154000850C740C640C540C440C350C250C160CD6
:10155000060CF70BE80BD90BCB0BBC0BAE0BA00B9F
:10156000920B840B760B680B5A0B4D0B400B320B16
:10157000250B180B0C0BFF0AF20AE60AD90ACD0A52
:10158000C10AB50AA90A9D0A910A850A7A0A6E0A51
:10159000630A580A4D0A420A370A2C0A210A160A17
:1015A0000C0A010AF709EC09E209D809CE09C409B5
:1015B000BA09B009A6099C09920989090000121309
:1015C00089095B06C404D0032D03B90262021E021E
:1015D000E801BB01960177015C01450131014964D5
:1015E0006C6500486F6D65205A00486F6D65205925
:1015F00000486F6D652058005374657070657220E7
:1016000044697361626C6564004B696C6C6564006D
:1016100055706C6F6164696E672E2E2E00534420E6
:101620007072696E742073746F7070656420627973
:1016300020757365722E00000021104220633084F3
:1016400040A550C660E770088129914AA16BB18C12
:10165000C1ADD1CEE1EFF13112100273325222B599
:10166000529442F772D662399318837BB35AA3BD62
:10167000D39CC3FFF3DEE36224433420040114E669
:1016800064C774A44485546AA54BB528850995EEB2
:10169000E5CFF5ACC58DD55336722611163006D779
:1016A00076F6669556B4465BB77AA719973887DF02
:1016B000F7FEE79DD7BCC7C448E5588668A77840C1
:1016C00008611802282338CCC9EDD98EE9AFF94852
:1016D0008969990AA92BB9F55AD44AB77A966A71D9
:1016E0001A500A333A122AFDDBDCCBBFFB9EEB79A2
:1016F0009B588B3BBB1AABA66C877CE44CC55C2229
:101700002C033C600C411CAEED8FFDECCDCDDD2AF1
:10171000AD0BBD688D499D977EB66ED55EF44E13B8
:101720003E322E511E700E9FFFBEEFDDDFFCCF1B41
:10173000BF3AAF599F788F8891A981CAB1EBA10CAC
:10174000D12DC14EF16FE18010A100C230E3200421
:1017500050254046706760B9839893FBA3DAB33D88
:10176000C31CD37FE35EF3B1029012F322D2323571
:1017700042145277625672EAB5CBA5A89589856E58
:10178000F54FE52CD50DC5E234C324A014810466C1
:1017900074476424540544DBA7FAB79987B8975F68
:1017A000E77EF71DC73CD7D326F2369106B0165711
:1017B000667676154634564CD96DC90EF92FE9C8B0
:1017C00099E9898AB9ABA94458654806782768C061
:1017D00018E1088238A3287DCB5CDB3FEB1EFBF9C8
:1017E0008BD89BBBAB9ABB754A545A376A167AF1B1
:1017F0000AD01AB32A923A2EFD0FED6CDD4DCDAA18
:10180000BD8BADE89DC98D267C076C645C454CA200
:101810003C832CE01CC10C1FEF3EFF5DCF7CDF9BA7
:10182000AFBABFD98FF89F176E367E554E745E9350
:101830002EB23ED10EF01E7C3C3E5E2B3D3F2F5B18
:101840005D3B2C2A225C004E6F206572726F722005
:10185000666F756E642E0043616E2774206F70652D
:101860006E20726F6F74206469726563746F727931
:101870002E00496E76616C696420666F726D6174CA
:101880002C207265666F726D61742053442E004E79
:101890006F20636172642C2077726F6E67206368BB
:1018A00069702073656C6563742070696E2C206F9D
:1018B00072205350492070726F626C656D3F004317
:1018C000616E2774206163636573732053442063E2
:1018D0006172642E20446F206E6F74207265666F93
:1018E000726D61742E000000000000000000000016
:1018F00000FF00000100416374696F6E3A256C615E
:10190000000310270200E21A0310270200E61A0162
:1019100000000100EA1A0310270200EC1A0200007E
:101920000800F01A03ED030400001B03EE0304009B
:10193000081B03EF030400101B03FA030400181B29
:1019400003FB030400201B03FC030400281B02000C
:10195000000A00301B0200000600441B02000009C0
:1019600000501B5265717565737450617573653AEB
:10197000004E6F205344204361726400436F6F6CCC
:10198000646F776E005072656865617420414253E0
:10199000005072656865617420504C4100802500DC
:1019A0000040380000004B000080700000009600EE
:1019B00000C0DA000000E10000002C010008B201C4
:1019C0000000C2010000F401000084030090D00375
:1019D0000000E803000008070020A1070000100E27
:1019E0000040420F0060E31600000000000200000B
:1019F0000900621B741B7B1B821B891B4F6E004FEF
:101A0000666600596573004E6F00030004004E2F98
:101A10004100003A002064617973200045636B73D4
:101A2000626F7420342E300042616E6742616E67CF
:101A300000536C6F7742616E6700446561642054A7
:101A4000696D6500504944005072696E74696E6733
:101A50002E2E2E002064656620000000003FCDCCB5
:101A60004C3D0AD7A33B6F12033A52657065746907
:101A7000657220302E3931004F70656E4861726496
:101A8000776172652E636F2E7A610045636B7362B6
:101A90006F7420342E30005072696E74657220723B
:101AA000656164792E0000401454040E15041C0076
:101AB0000000040A040000000000001F1F1F1F1F79
:101AC0000000001F1111111F0000040A0A0A0E1F56
:101AD0001F0E001C1F11111F0000110A0411040A1F
:101AE0001111901B971B9E1BA51BAC1BB31BBA1B94
:101AF000AC1BC11BC81BCF1BD61BDD1BE41BEB1B88
:101B0000F21BF91B001C071C0E1C151C1C1C231CA3
:101B10002A1C311C381C3F1C461C4D1C541C5B1CD1
:101B2000621C691C701C771C7E1C851C8C1C931C01
:101B3000AC1B9A1CA11CA81CAF1CB61CBD1CC41C51
:101B4000CB1CD21CAC1BD91CE01CE71CEE1CF51CEA
:101B5000AC1B9A1CFC1C031D0A1D111D181D1F1D0A
:101B6000EE1CAC1B261DC11B2D1D341D3B1D421D33
:101B7000491D501D0000000400571D000000040016
:101B80005F1D0000000400671D00000004006F1DC1
:101B9000771D0000000000851D0000000000961D5C
:101BA0000000000000A41D0000000000B51D03E8B7
:101BB000030000BC1D0000000000CC1D0000000060
:101BC00000D01D03F5030102DB1D03F6030204E749
:101BD0001D0354040200F21D03F7030400011E0359
:101BE000F80301000E1E03F9030001191E03F4039C
:101BF0000102251E00000000002E1E000000000053
:101C00003E1E00000000004E1E00000000004F1E9F
:101C10000000000000581E0000000000681E0000C8
:101C2000000000781E0000000000791E0000000087
:101C300000821E0000000000921E0000000000A2B2
:101C40001E0000000000A31E0000000000AC1E00EB
:101C500000000000BC1E0000000000CC1E000000C0
:101C60000000CD1E0000000000D61E000000000095
:101C7000E61E0000000000F61E0000000000F71E37
:101C80000000000000001F0000000000101F000006
:101C9000000000201F0000000000211F03FD0300C2
:101CA000002A1F041F0400003C1F04480400004ECB
:101CB0001F03370400005A1F0347040000661F0378
:101CC000380400006F1F03310400007D1F0342042D
:101CD00000008D1F03360400009E1F043C0400001A
:101CE000AE1F043D040000BE1F033A040000CD1FD8
:101CF00002DC1F0000E31F0343040000EE1F03FE8D
:101D0000030000F51F03FF030000FC1F0300040095
:101D100000032002241900000E20022B19000019D4
:101D20002002321900002420024E19000033200244
:101D30005C1900003C2002551900004520024F208C
:101D400000005620021D1900005E200268200000DD
:101D50006F20027D20000084208B2092209920A0FB
:101D600020A720AE20B520BC20C320CA20D120D877
:101D700020DF20E620ED20436F6E66696775726193
:101D800074696F6E0073746F72656420696E2045AC
:101D90004550524F4D00436F6E66696775726174AE
:101DA000696F6E006C6F6164656420662E20454526
:101DB00050524F4D004261636B2001002A2A2A2AAB
:101DC000204552524F52202A2A2A2A00256F6500A8
:101DD0005072696E742066696C6500506175736538
:101DE000205072696E740053746F70205072696E67
:101DF0007400436F6E74696E7565205072696E74FD
:101E000000556E6D6F756E742043617264004D6F86
:101E1000756E7420436172640044656C657465205E
:101E200066696C6500583A257830206D6D004D6903
:101E30006E20656E6473746F703A257378004D611F
:101E40007820656E6473746F703A2573580000597A
:101E50003A257831206D6D004D696E20656E647392
:101E6000746F703A257379004D617820656E6473E4
:101E7000746F703A25735900005A3A257832206DF4
:101E80006D004D696E20656E6473746F703A2573D2
:101E90007A004D617820656E6473746F703A2573B3
:101EA0005A0000583A257830206D6D004D696E203B
:101EB000656E6473746F703A257378004D61782095
:101EC000656E6473746F703A2573580000593A2533
:101ED0007831206D6D004D696E20656E6473746F8E
:101EE000703A257379004D617820656E6473746F64
:101EF000703A25735900005A3A257832206D6D00EA
:101F00004D696E20656E6473746F703A25737A0044
:101F10004D617820656E6473746F703A25735A0052
:101F200000486F6D6520416C6C00537065656420DE
:101F30004D756C2E3A256F6D25252500466C6F7703
:101F4000204D756C2E203A256F6625252500507290
:101F5000656865617420504C410050726568656128
:101F6000742041425300436F6F6C646F776E00536F
:101F7000657420746F204F726967696E00446973DD
:101F800061626C65207374657070657200415458AD
:101F900020706F776572206F6E2F6F6666004265E6
:101FA000642054656D702E3A2545620243005465E5
:101FB0006D702E203020203A2545300243004578B0
:101FC0007472756465722030204F666600457874BF
:101FD000722E20706F736974696F6E0003F00302D4
:101FE00000F420536574204F726967696E00486F72
:101FF0006D65205800486F6D65205900486F6D650C
:10200000205A005820506F736974696F6E00592010
:10201000506F736974696F6E005A20506F736974E2
:10202000696F6E00517569636B2053657474696ED6
:10203000677300506F736974696F6E0045787472CE
:10204000756465720046616E207370656564000298
:1020500000000700F8205344204361726400446587
:1020600062756767696E670002000005000621431C
:102070006F6E66696775726174696F6E0002000049
:102080000800102120210000000000332100000082
:10209000000039210000000000492100000000007C
:1020A0004D210000000000562100000000005F21CB
:1020B0000000000000682100000000006C2100000A
:1020C0000000007D2100000000007E2100000000D3
:1020D000008E21000000000092210000000000A0FE
:1020E000210000000000A4210000000000B5210034
:1020F00000000000BB21C221AC1BC921D021D72187
:10210000DE21E521EC21AC1BF321FA21012208227A
:10211000AC1B0F2216221D2224222B22322239220E
:10212000052565632F25456302422565422F254518
:102130006202005A3A257832004D756C3A256F6D6F
:10214000204275663A256F4200256F7300583A2584
:102150007830206D6D00593A257831206D6D005A28
:102160003A257832206D6D00256F730045313A2590
:1021700065302F25453002437E256F300000423AFE
:102180002565622F25456202437E256F6200256F1B
:1021900073005072696E74696E672074696D6500B2
:1021A0002555740046696C616D656E7420707269A6
:1021B0006E74656400255566206D004022000000A5
:1021C00000004922000000000058220452040000D0
:1021D0006922031A0408007622031B0400008422EB
:1021E000031C0400009222031D040000A022031E11
:1021F000040000AD220332040000B92203330400BE
:1022000000C5220334040000D1220335040000DDA0
:102210002202E5220000EC2202F922000000230243
:1022200009230000102302192300002023030604C1
:102230000000302303070400003F2302482300006E
:10224000453A257833206D6D003120636C69636BEE
:10225000203D2031206D6D0046616E2073706565F4
:10226000643A254673252525005475726E20466113
:102270006E204F6666005365742046616E203235CD
:10228000252525005365742046616E2035302525AF
:1022900025005365742046616E20373525252500BD
:1022A0005365742046616E2046756C6C004563680A
:1022B0006F2020203A25646F00496E666F20202031
:1022C0003A256469004572726F7273203A2564651D
:1022D000004472792072756E3A2564640047656E19
:1022E0006572616C0002000004004F234163636566
:1022F0006C65726174696F6E0002000009005723FB
:102300004665656472617465000200000700692318
:1023100045787472756465720002000011007723BD
:1023200053746F726520746F20454550524F4D00B5
:102330004C6F616420662E20454550524F4D005A27
:102340002043616C69622E0002000004009923ACF6
:102350001BA123A823AF23AC1BB623BD23C423CBCF
:1023600023D223D923E023E723AC1BEE23F523FC60
:102370002303240A241124AC1B18241F2426242DF3
:102380002434243B2442244924502457245E2465C9
:10239000246C2473247A248124AC1B9A1C1F1D886E
:1023A000248F2404100400009C2402AD240000B4F7
:1023B0002402C2240000C9240408040000D5240417
:1023C00009040000E124040A040000ED24040B04C5
:1023D0000000F924040C0400000525040D0400008D
:1023E0001125040E0400001D25040F0400002925FA
:1023F0000414040000332504150400003D250416D0
:1024000004000047250411040000522504120400B2
:10241000005D2504130400006825042904000075EC
:1024200025042C0400008225042B0400008D2504C3
:102430002A0400009725042E040000A525044D045D
:102440000000B825044C040000C92504460400001F
:10245000D9250430040000EA25042D040000F625E7
:102460000422040000032604230400000D26042493
:102470000400001726042504000025260426040075
:10248000003326042F0400003F2603AC0F00004257
:10249000617564726174653A256F63005374657089
:1024A00070657220496E616374697665000320046B
:1024B000020047264D61782E20496E61637469766B
:1024C000650003210402004B265072696E74205887
:1024D0003A256178005072696E7420593A25617905
:1024E000005072696E74205A3A25617A004D6F76F9
:1024F000652058203A256158004D6F766520592097
:102500003A256159004D6F7665205A203A25615A67
:10251000004A65726B2020203A25616A005A2D4AD4
:1025200065726B203A25614A004D617820583A2542
:102530006678004D617820593A256679004D6178BA
:10254000205A3A25667A00486F6D6520583A25660C
:102550005800486F6D6520593A25665900486F6DDF
:1025600065205A3A25665A0053746570732F4D4D95
:102570003A2553650053746172742046523A2558C7
:1025800066004D61782046523A2558460041636303
:10259000656C3A25584100537461622E54696D652B
:1025A0003A255877005761697420556E6974733AFB
:1025B00020255855206D6D00576169742054656D54
:1025C000702E20255854024300416476616E636585
:1025D000206C696E3A25586C00416476616E6365C3
:1025E00020717561643A25586100436F6E74726F93
:1025F0006C3A2558680044542F50494420503A25DD
:1026000058700050494420493A25586900504944BF
:1026100020443A255864004472697665204D696EFD
:102620003A25586D004472697665204D61783A25E7
:10263000584D00504944204D61783A255844005384
:102640006574205A3D30004F2656265D2664266B61
:102650002600000000007A2600000000008426000A
:1026600000000000932600000000004469732E2043
:1026700041667465723A256973005B735D20303D75
:102680004F6666004469732E2041667465723A2570
:102690006970005B735D20303D4F6666000000216D
:1026A00000240027002A0000002200250028002B1B
:1026B000000000200023002600290002020202027E
:1026C00002020204040404040404040303030303D5
:1026D00003030301010101010101010102040810CA
:1026E00020408001020408102040800102040810EC
:1026F00020408080402010080402010000000102F8
:1027000000000000000000040307060000000000B5
:102710000000000000000000000000494E46494E45
:102720004954594E414ECDCCCC3D0AD7233C17B726
:10273000D13877CC2B329595E6241FB14F0A000093
:1027400020410000C84200401C4620BCBE4CCA1BB1
:102750000E5AAEC59D74AF4EA07AD19A11241FBEF9
:10276000CFEFD0E4DEBFCDBF12E0A0E0B1E0EEE4F9
:10277000FDE801E00BBF02C007900D92A234B10743
:10278000D9F71BBE11E1A2E4B2E001C01D92A93944
:10279000B107E1F717E2CCE5D7E204C02297FE01CA
:1027A0000E9457C6C635D107C9F70E9433C10C94A1
:1027B000A5C60C940000CF93DF93BC018230910535
:1027C00010F462E070E0A0919511B0919611ED01C6
:1027D000E0E0F0E040E050E021C088819981861778
:1027E000970769F48A819B81309719F093838283DC
:1027F00004C09093961180939511FE0134C0681720
:10280000790738F44115510519F08417950708F434
:10281000AC01FE018A819B819C01E9012097E9F6C8
:1028200041155105A9F1CA01861B970B049708F4BD
:10283000BA01E0E0F0E02AC08D919C9111978417D5
:102840009507F9F46417750781F412968D919C91A0
:102850001397309719F09383828304C09093961155
:1028600080939511FD0132964CC0CA01861B970BCF
:10287000FD01E80FF91F6193719302978D939C936B
:1028800040C0FD01828193819C01D9011097A1F67E
:102890008091931190919411892B41F480911301AF
:1028A000909114019093941180939311409115018C
:1028B000509116014115510541F44DB75EB7809115
:1028C000110190911201481B590B209193113091E5
:1028D0009411CA01821B930B8617970780F0AB01F6
:1028E0004E5F5F4F8417950750F0420F531F509370
:1028F000941140939311F9016193719302C0E0E048
:10290000F0E0CF01DF91CF910895CF93DF9300974F
:1029100009F450C0EC0122971B821A82A0919511F4
:10292000B0919611109709F140E050E0AC17BD0747
:1029300008F1BB83AA83FE0121913191E20FF31FBD
:10294000AE17BF0779F48D919C911197280F391F0D
:102950002E5F3F4F3983288312968D919C91139758
:102960009B838A834115510571F4D0939611C093CE
:10297000951120C012968D919C911397AD010097EF
:1029800011F0DC01D3CFFA01D383C28321913191BD
:10299000E20FF31FCE17DF0769F488819981280FB2
:1029A000391F2E5F3F4FFA01318320838A819B813B
:1029B00093838283DF91CF910895A0E0B0E0E3EEAE
:1029C000F4E10C9474C6EC015B016115710519F01A
:1029D000FB0191838083F9908F2D90E00E945BC66C
:1029E000892BC9F7FDE2FF1621F4F990EE24E39458
:1029F00005C02BE2F21609F4F990EE248E01015085
:102A00001040C8016BE177E243E050E00E946C1790
:102A1000892B01F58E010E5F1F4FC8016EE177E231
:102A200045E050E00E946C17892B19F48E01095F74
:102A30001F4FA114B10419F0F50111830083E0FCCC
:102A400004C070E090E080E814C070E090E080E89E
:102A50006FEF08C1C80163E277E243E050E00E94F3
:102A60006C17892B69F4A114B10429F470E090E08B
:102A700080EC6FE7F7C02296F501D183C083F6CFD3
:102A80008824992440E050E060E070E0EF2DE053AE
:102A9000EA30A0F5F2E0EF2A8E2D90E09C0128703C
:102AA0003070E2FE06C0232B79F50894811C911C3E
:102AB0002BC0232B19F0089481089108DB01CA016F
:102AC00012E0880F991FAA1FBB1F1A95D1F7480F54
:102AD000591F6A1F7B1F440F551F661F771F4E0F1C
:102AE000511D611D711D483929E9520729E9620705
:102AF00029E1720748F084E0E82A06C0EE3F31F48D
:102B0000E3FC39C098E0E92AF990C0CFE53311F031
:102B1000E53189F529912D3219F4E0E1EE2A05C05D
:102B20002B3219F081E090E003C0299182E090E01F
:102B3000E22FE053EA3018F0C81BD90B1CC020E08C
:102B400030E0FCE020383F075CF4C901880F991F92
:102B5000880F991F280F391F220F331F2E0F311D89
:102B6000E991E053EA3068F3E4FE03C03095219523
:102B70003F4F820E931ECE2CDD24E1FE07C0A11430
:102B8000B10421F02197F501D183C083CB01BA01B3
:102B90000E94D3C27B018C01F3E0CF22DD2423E02D
:102BA000C216D10421F417FB109517F9109557019F
:102BB0006801C801B70120E030E040E050E00E9429
:102BC00033C2882309F44AC097FE0DC02AE3E22EDF
:102BD00027E2F22E9094819491089394C0E2D0E081
:102BE00000E010E012C092E5E92E97E2F92EF6CF50
:102BF000F7012591359145915491C601B5010E9487
:102C0000E3C45B016C018C1A9D0A8C169D0684F747
:102C1000D595C7950F5F1F4F0630110529F08CEF32
:102C20009FEFE80EF91EF1CFC501D6017C018D01A1
:102C30008C2D880F8D2D881F8F3F51F0C601B50157
:102C400020E030E040E050E00E9433C2882331F4BD
:102C500082E290E090939811809397117E2D9F2DA2
:102C6000802F612F272F392F482F562FB901CA01E6
:102C7000CDB7DEB7ECE00C9490C62F923F925F92F6
:102C80006F927F928F929F92AF92BF92CF92DF927C
:102C9000EF92FF920F931F93CF93DF938C011B0151
:102CA000EA016115710519F0FB019183808320977A
:102CB00049F0CE010297839728F020E030E040E011
:102CC00050E0F6C0F801A1908F018A2D90E00E949B
:102CD0005BC6892BB9F7FDE2AF1631F4F801A1907C
:102CE0008F015524539407C0FBE2AF1619F4F80185
:102CF000A1908F015524209719F0C031D105C1F45E
:102D0000F0E3AF1679F4F8018081883711F0883547
:102D100049F4F801A1800E5F1F4FF2E05F2AC0E185
:102D2000D0E006C0209721F480E3A816E9F427C07C
:102D3000C830D10531F1C930D10524F4C230D105F4
:102D400031F50CC0CA30D10589F0C031D105F9F494
:102D5000C12CD12CE12CB8E0FB2E28C0C12CD12CE9
:102D6000E12CA0E4FA2E22C0CAE0D0E0FCECCF2E89
:102D7000FCECDF2EFCECEF2EFCE0FF2E17C0C8E0D1
:102D8000D0E0C12CD12CE12CE0E1FE2E0FC09E0141
:102D9000442737FD4095542F60E070E080E090E8D4
:102DA0000E940CC6C901DA016C017D0120E030E00F
:102DB00040E050E060E03E01882477FC8094982C4D
:102DC00070EDB72EBA0CE9E0EB1570F48A2D815442
:102DD0008A3118F499ECB92E06C08A2D81568A31B1
:102DE00050F589EAB82EBA0C8B2D90E08C179D0710
:102DF00014F56F3FE1F0C216D306E406F506B0F015
:102E0000CA01B901A40193010E94B9C59B01AC019B
:102E10002B0D311D411D511D2130F0E03F07F0E029
:102E20004F07F0E85F0710F461E001C06FEFF801B1
:102E3000A1908F01C5CF2114310481F0662331F0B8
:102E400001501040F1011183008308C051FE1AC0E7
:102E500002501040F1011183008314C067FF12C0BB
:102E600050FC05C02FEF3FEF4FEF5FE704C020E0BD
:102E700030E040E050E882E290E090939811809337
:102E8000971116C050FE08C0509540953095219579
:102E90003F4F4F4F5F4F0CC057FF0AC082E290E098
:102EA00090939811809397112FEF3FEF4FEF5FE7CB
:102EB000B901CA01DF91CF911F910F91FF90EF905F
:102EC000DF90CF90BF90AF909F908F907F906F904A
:102ED0005F903F902F900895FB01DC0141505040DE
:102EE00088F08D9181341CF08B350CF4805E6591F7
:102EF00061341CF06B350CF4605E861B611171F35C
:102F0000990B0895881BFCCFFB01DC0102C00190E6
:102F10000D9241505040D8F70895FB01DC010D900F
:102F20000020E9F7119701900D920020E1F7089534
:102F3000FC018191861721F08823D9F799270895FC
:102F40003197CF010895FB01DC018D91019080192B
:102F50000110D9F3990B0895FB01DC0101900D924A
:102F60000020E1F70895FB01DC014150504048F09A
:102F700001900D920020C9F701C01D9241505040B0
:102F8000E0F70895FC0181E090E00190061609F455
:102F9000CF010020D1F701970895A0E0B0E0E3ED64
:102FA000F7E10C9478C67C01EB018A01690109C044
:102FB000CE012196F6010995F70181937F01015019
:102FC000104001151105A1F7CDB7DEB7E8E00C946C
:102FD00094C6BF92CF92DF92EF92FF920F931F930E
:102FE0007B018C01FB010995B82EC8010196F70100
:102FF0000995C82EC8010296F7010995D82EC80177
:103000000396F7010995982F6B2D7C2D8D2D1F911F
:103010000F91FF90EF90DF90CF90BF900895DF92D7
:10302000EF92FF920F931F937B018C01FB01099597
:10303000D82EC8010196F7010995982F8D2D1F9163
:103040000F91FF90EF90DF900895A0E0B0E0EBE2E9
:10305000F8E10C9478C6EC017B018A01690109C092
:10306000CE012196F70161917F01F601099501508A
:10307000104001151105A1F7CDB7DEB7E8E00C94BB
:1030800094C6BF92CF92DF92EF92FF920F931F935D
:10309000D52EC62EB72E79018C01642FF901099522
:1030A000C80101966D2DF7010995C80102966C2D96
:1030B000F7010995C80103966B2DF70109951F913A
:1030C0000F91FF90EF90DF90CF90BF900895DF9227
:1030D000EF92FF920F931F93D72E7A018C01FA0182
:1030E0000995C80101966D2DF70109951F910F9162
:1030F000FF90EF90DF9008959C01F999FECF32BDCB
:1031000021BDF89A80B508950895609117017091D6
:1031100018018091190190911A016817790744F4F8
:1031200070931A01609319018BED93E00E949F291F
:103130000895BC01893191051CF469E170E005C076
:10314000893C910514F068EC70E070934D0D60932C
:103150004C0D86E294E00E949F290895EF92FF9221
:103160000F931F93CF93DF93EC01893191051CF4EA
:10317000C9E1D0E006C081E0C53FD80714F0C4EF34
:10318000D1E0BE01882777FD8095982F0E94D5C297
:103190007B018C0160914A0D70914B0D882777FD62
:1031A0008095982F0E94D5C29B01AC01C801B70140
:1031B0000E943AC29B01AC016091460D7091470D8F
:1031C0008091480D9091490D0E94E3C46093460D93
:1031D0007093470D8093480D9093490DD0934B0DFC
:1031E000C0934A0D87E194E0BE010E949F29DF91C0
:1031F000CF911F910F91FF90EF9008950E947B5007
:103200009C0180911701909118012817390724F427
:10321000309318012093170108950E94414C08959E
:103220002F923F924F925F926F927F928F929F92D6
:10323000AF92BF92CF92DF92EF92FF920F931F93C4
:10324000DF93CF93CDB7DEB728970FB6F894DEBFE4
:103250000FBECDBFA090D10CB090D20CC090D30CBB
:10326000D090D40C2090D50C3090D60C4090D70C38
:103270005090D80C8091D90C9091DA0CA091DB0C75
:10328000B091DC0C89839A83AB83BC832091ED0CD5
:103290003091EE0C4091EF0C5091F00C6090F10CDD
:1032A0007090F20C8090F30C9090F40C8091F50CDF
:1032B0009091F60CA091F70CB091F80C8D839E8341
:1032C000AF83B88780918E0C882359F40F2EF0E0DD
:1032D000EF2EF0E0FF2EF0E80F2FFFE31F2FF02D71
:1032E0000AC00F2EF0E7EF2EF2E4FF2EF1E20F2FCF
:1032F000FDE31F2FF02DC601B5010E946DC1A8018D
:1033000097010E94E3C4AB01BC0185EE93E022E08B
:103310000E94DA2A80918E0C882359F40F2EF0E057
:10332000EF2EF0E0FF2EF0E80F2FFFE31F2FF02D20
:103330000AC00F2EF0E7EF2EF2E4FF2EF1E20F2F7E
:10334000FDE31F2FF02DC201B101A40193010E94E2
:103350006DC1A80197010E94E3C4AB01BC018CEED2
:1033600093E022E00E94DA2A80918E0C882359F49F
:103370000F2EF0E0EF2EF0E0FF2EF0E80F2FFFE32E
:103380001F2FF02D0AC00F2EF0E7EF2EF2E4FF2ED4
:10339000F1E20F2FFDE31F2FF02D69817A818B81E0
:1033A0009C812D813E814F8158850E946DC1A8016D
:1033B00097010E94E3C4AB01BC0180EF93E022E0DF
:1033C0000E94DA2A2091CD0C3091CE0C4091CF0C86
:1033D0005091D00CA0909B0CB0909C0CC0909D0C78
:1033E000D0909E0C80918E0C882359F40F2EF0E023
:1033F000EF2EF0E0FF2EF0E80F2FFFE31F2FF02D50
:103400000AC00F2EF0E7EF2EF2E4FF2EF1E20F2FAD
:10341000FDE31F2FF02DCA01B9010E94D5C2A601FC
:1034200095010E94E3C4A80197010E94E3C4AB0187
:10343000BC0184EF93E022E00E94EF2A28960FB6A9
:10344000F894DEBF0FBECDBFCF91DF911F910F91DA
:10345000FF90EF90DF90CF90BF90AF909F908F90B4
:103460007F906F905F904F903F902F9008950F93B3
:103470001F930EEF13E0C8016DE00E947E4EC8015D
:103480006AE00E947E4E1F910F9108956F927F9285
:103490008F929F92AF92BF92CF92DF92EF92FF9264
:1034A0000F931F93DF93CF9300D000D0CDB7DEB73B
:1034B0006091640D7091650D8091660D9091670D1E
:1034C0002FE632E143E85AE30E94E3C47B018C011A
:1034D000CE01019661E870E044E050E02CE738E16D
:1034E0000E94CD17C801B70129813A814B815C81C7
:1034F0000E946DC1AB01BC018EE394E022E00E940A
:10350000DA2A8FE594E00E947C29E091D501F091C0
:10351000D601638574858585968520E030E040E797
:1035200051E40E9441C418160CF47AC06624772432
:1035300043018DE790E06CE778E10E94E9177B0199
:103540008C01E60CF71C081D191DC801B70120E805
:1035500031E541E050E00E942EC6922E832E742E5B
:10356000652E622F732F842F952F20E83EEA4EEFB1
:103570005FEF0E94B9C55B016C01AE0CBF1CC01EA1
:10358000D11E80E594E0492D582D672D762D0E949F
:10359000C629C601B50120E13EE040E050E00E94AE
:1035A0002EC6122F032FF42EE52E82E694E0422F32
:1035B000502F6F2D7E2D0E94C629612F702F8F2DC9
:1035C0009E2D20EF31EF4FEF5FEF0E94B9C5A60EA1
:1035D000B71EC81ED91EC601B5012CE330E040E07D
:1035E00050E00E942EC689E694E0BA01A9010E942B
:1035F000C62981E794E00E94032A0F900F900F9054
:103600000F90CF91DF911F910F91FF90EF90DF907E
:10361000CF90BF90AF909F908F907F906F900895C4
:103620000E9435BF2091600D3091610D4091620D77
:103630005091630D621B730B840B950B28EE33E0E6
:1036400040E050E00E940CC6C901DA013C014D0186
:1036500070CF1F93182FE0915002F091510246A9AC
:1036600057A960AD71AD88EF93E022E00E94DA2A9D
:103670000E946B37AB01BC018BEF93E022E00E940C
:10368000DA2A112391F08EE094E061E070E00E946C
:10369000D7296CEF7FE08091970190919801681B8A
:1036A000790B83E194E00E94D729E0919401F0E046
:1036B000E55DFB4F608189E094E070E00E94D729CE
:1036C000E0911D01EF3F29F4E0915002F091510289
:1036D000E081F0E0E55DFB4F60818FEF93E070E00B
:1036E0000E94D7290E94371A1F91089580914402A1
:1036F0008823C1F0109244020E94D84080911C019E
:10370000815080931C01882349F480911B018330F0
:1037100010F40E943D3A85E080931C018AE690E116
:103720000E9466BC089508C00E943F490E94761B13
:103730008AE690E10E94D09A8091840C8823A1F7B8
:103740000895CF93DF9397FD10C0EC018F3F910553
:1037500021F01CF0CFEFD0E002C0009731F0809153
:10376000FB0C88608093FB0C07C08091FB0C877F6B
:103770008093FB0CC0E0D0E0662311F00E94931B05
:1037800080912E0490E0C817D90729F084E394E0D3
:10379000BE010E949F29C0932E04DF91CF9108950E
:1037A0002F923F924F925F926F927F928F929F9251
:1037B000AF92BF92CF92DF92EF92FF920F931F933F
:1037C000DF93CF93CDB7DEB7E0970FB6F894DEBFA7
:1037D0000FBECDBF6C0180913002282F84FF19C02D
:1037E000D6018C9182FD09C081FF13C016968D9180
:1037F0009C9117978F36910561F00E9435BF6093B9
:103800001B0470931C0480931D0490931E040C945D
:103810007A28F6010081118102FF11C3808591850C
:103820008431910509F414C28531910550F4843036
:10383000910518F4029740F51CC0049709F0F3C2F3
:10384000C9C18A35910509F42EC28B35910540F422
:103850008531910509F400C24C9709F0E4C2FFC11B
:103860008B35910509F422C28C35910509F0DBC234
:1038700021C2C6010E94C370882309F4D4C280E02B
:1038800061E00E942469CFC28091D10C9091D20C4A
:10389000A091D30CB091D40C89879A87AB87BC8751
:1038A0008091D50C9091D60CA091D70CB091D80CEA
:1038B0008D879E87AF87B88B8091D90C9091DA0C59
:1038C000A091DB0CB091DC0C898B9A8BAB8BBC8B01
:1038D000C6010E94C370882309F4A5C2FE01319677
:1038E00088E0DF011D928A95E9F7F601828180FD6B
:1038F00005C020E030E040E050E007C0D6019796D8
:103900002D913D914D915C919A9780918E0C8823D9
:1039100051F0CA01B90123E333E34BEC51E40E94B7
:10392000E3C49B01AC0129833A834B835C83F6019A
:10393000828181FD05C020E030E040E050E007C01A
:10394000D6019B962D913D914D915C919E978091D2
:103950008E0C882351F0CA01B90123E333E34BEC09
:1039600051E40E94E3C49B01AC012D833E834F834D
:103970005887FE01759680E1DF011D928A95E9F76F
:103980008091D10C9091D20CA091D30CB091D40C19
:103990008D8B9E8BAF8BB88F8091D50C9091D60C70
:1039A000A091D70CB091D80C898F9A8FAB8FBC8F18
:1039B0008091D90C9091DA0CA091DB0CB091DC0CC9
:1039C0008D8F9E8FAF8FB8A36091E90C7091EA0C38
:1039D0008091EB0C9091EC0C0E94D5C220919B0C35
:1039E00030919C0C40919D0C50919E0C0E94E3C420
:1039F00069A37AA38BA39CA3F601828182FFC7C02F
:103A000087A490A8A1A8B2A880918E0C882351F019
:103A1000C501B40123E333E34BEC51E40E94E3C45A
:103A20004B015C016D897E898F89988D29853A8546
:103A30004B855C850E946CC16DA77EA78FA798AB54
:103A4000698D7A8D8B8D9C8D2D853E854F8558890E
:103A50000E946CC12B013C01C501B40120E030E0A3
:103A600040E850E40E94E3C4A50194010E94E3C42D
:103A70007B018C016DA57EA58FA598A99B01AC014A
:103A80000E94E3C49B01AC01C801B7010E946CC154
:103A90007B018C01C301B201A30192010E94E3C426
:103AA0009B01AC01C801B7010E946CC10E9450C5C6
:103AB0007B018C016DA57EA58FA598A9A30192011C
:103AC0000E944EC49B01AC0117FB109517F910958D
:103AD000C801B7010E943AC27B018C01A80197017D
:103AE0000E949DC5882329F086E794E00E94082A59
:103AF0009AC1D60118968D919C911997039721F43C
:103B000017FB109517F91095C501B40120E030E0BE
:103B100040E050E00E9433C2882344F417FB109524
:103B200017F91095B7FAB094B7F8B094C301B20181
:103B3000A80197010E94E3C49B01AC016DA57EA57D
:103B40008FA598A90E946CC120E030E040E05FE3BF
:103B50000E94E3C469837A838B839C836DA57EA5D1
:103B60008FA598A9A80197010E94E3C49B01AC010D
:103B7000C301B2010E946DC120E030E040E05FE38C
:103B80000E94E3C46D837E838F8398870CC0698114
:103B90007A818B819C812D813E814F8158850E9445
:103BA0004EC44B015C01E0E0D60118968D919C91CA
:103BB0001997029709F4E1E0CE010996BE016B5E08
:103BC0007F4FAE014F5F5F4F95018401EE2E0E9443
:103BD000315829C10E94931BF6018081918193FD88
:103BE00004C0EE24FF24870107C0D6019396ED9010
:103BF000FD900D911C91969792FF0DC0F601678D77
:103C000070A181A192A128EE33E040E050E00E9433
:103C1000B9C57B018C010E9435BF5B016C01AE0C04
:103C2000BF1CC01ED11E04C00E943F490E94761BCB
:103C30000E9435BFA6019501261B370B480B590B77
:103C4000DA01C90180509449A543B74768F3EBC036
:103C500081E080938E0CE7C010928E0CE4C0C80106
:103C600088739070892B21F441E021E061E015C058
:103C7000C80143E0969587954A95E1F7282F217072
:103C8000C80134E0969587953A95E1F7682F617001
:103C900005FD02C040E001C041E0822F0E946A752C
:103CA0000E94D26CC0C01092BF0CBDC081E0809356
:103CB000BF0CB9C0A090ED0CB090EE0CE090EF0CF2
:103CC000F090F00C6090F10C7090F20C8090F30C7E
:103CD0009090F40C2090F50C3090F60C4090F70C7E
:103CE0005090F80C03FF23C0D6011A962D913D91F8
:103CF0004D915C911D9780918E0C882351F0CA01E3
:103D0000B90123E333E34BEC51E40E94E3C49B018C
:103D1000AC01CA01B9012091D10C3091D20C409173
:103D2000D30C5091D40C0E946CC15B017C0104FF48
:103D300021C0F601268537854089518980918E0CF6
:103D4000882351F0CA01B90123E333E34BEC51E47A
:103D50000E94E3C49B01AC01CA01B9012091D50CBA
:103D60003091D60C4091D70C5091D80C0E946CC168
:103D70003B014C0105FF23C0D60152962D913D9188
:103D80004D915C91559780918E0C882351F0CA011A
:103D9000B90123E333E34BEC51E40E94E3C49B01FC
:103DA000AC01CA01B9012091D90C3091DA0C4091D3
:103DB000DB0C5091DC0C0E946CC11B012C01B50185
:103DC000C7019301A401710182010E94B16CF60147
:103DD000808186FF28C026893789408D518D80914A
:103DE0008E0C882351F0CA01B90123E333E34BEC75
:103DF00051E40E94E3C49B01AC01CA01B9012091C6
:103E0000F0013091F1014091F2015091F3010E94D3
:103E1000E3C40E94A2C26093CD0C7093CE0C809339
:103E2000CF0C9093D00C0E9435BF60931B0470930D
:103E30001C0480931D0490931E040C947A2801FDA9
:103E400002C00C946828D60116968D919C91179704
:103E50008337910509F4B9C68437910508F08AC003
:103E60008035910509F4FDC58135910508F03DC007
:103E70008931910509F447C18A319105C8F4863129
:103E8000910509F41FC18731910548F484319105EA
:103E900009F40CC1459711F00C947A280DC18731B3
:103EA000910509F415C1489711F00C947A2825C1A1
:103EB0008C31910509F44FC18D31910548F48A3157
:103EC000910509F427C14B9711F00C947A283EC153
:103ED0008032910509F45AC18A32910509F467C10B
:103EE0004E9711F00C947A2842C18836910509F456
:103EF000A6C189369105F8F48335910509F4C8C542
:103F00008435910550F48135910509F4B9C58235A0
:103F1000910511F00C947A28B8C58535910509F4FE
:103F2000D7C58535910508F4B7C58C35910511F0D5
:103F30000C947A28EEC58B36910509F488C58C3629
:103F4000910550F48936910509F429C28A36910504
:103F500011F00C947A2869C58F36910509F422C6B0
:103F60008237910509F438C68D36910511F00C940D
:103F70007A281FC28C3D910509F4A8C78D3D910593
:103F800008F041C0893C910509F465C68A3C910559
:103F9000D8F48737910509F432C68837910550F473
:103FA0008437910509F49CC48537910511F00C9470
:103FB0007A2815C68C38910509F4B7C18E3B910556
:103FC00011F00C947A28E5C38C3C910509F4E2C603
:103FD0008D3C910550F48A3C910509F482C68B3CD6
:103FE000910511F00C947A28C2C68E3C910509F413
:103FF0001AC78E3C910508F413C78F3C910511F048
:104000000C947A2814C7B1E080399B0711F40C9402
:104010001128E1E081399E0710F5883E910509F4E9
:104020008CC7893E910550F48D3D910509F460C718
:104030008F3D910511F00C947A286AC7F1E08F3218
:104040009F0709F4BEC421E08E35920711F40C9449
:104050006328893E910511F00C947A28A0C731E0BD
:10406000843F930711F40C944A2841E0853F94075C
:1040700058F451E08139950709F4D6C78259914027
:1040800011F00C947A28D3C7B1E0863F9B0711F456
:104090000C946028E1E0863F9E0710F40C945228AF
:1040A000875F914011F00C947A28BAC68EEC9DE09F
:1040B0000E942A7C0C947A288EEC9DE00E948B7FD3
:1040C0000C947A288EEC9DE00E94617A0C947A28F8
:1040D00017FD02C00C947A288EEC9DE060E00E94EF
:1040E000A48AD601D3966D917C91D4978EEC9DE0F5
:1040F00040E00E94937B0C947A288EEC9DE00E9415
:10410000797A0C947A288EEC9DE060E00E94D97E4A
:104110000C947A2812FD02C00C947A28F601478D7F
:1041200050A161A172A18091380E882311F40C94E2
:104130007A2840932F0E5093300E6093310E709377
:10414000320E8EE09EE00E943788D4C78EEC9DE050
:104150000E946E7BCFC717FFCDC7D601D3966D9156
:104160007C91D4978EEC9DE00E94307BC3C717FFF3
:10417000C1C78EEC9DE060E00E94A48AF60163A9AD
:1041800074A98EEC9DE00E94E17AB4C717FFB2C714
:104190008EEC9DE060E00E94A48AD601D3966D91DA
:1041A0007C91D4978EEC9DE00E94A57AA3C712FF64
:1041B000A1C713FF9FC7F601878D90A1A1A1B2A14E
:1041C000B7FD98C78F3F9105A105B10511F00CF01F
:1041D00091C703A114A120E030E0F901EE0FFF1F09
:1041E000ED55FE4FE4918E2F90E08017910709F472
:1041F00081C72F5F3F4F2833310579F717FD7AC705
:10420000802F61E00E9483C0802FD6015F966C9161
:104210000E9400C1F601678D70A1802F0E9405C029
:1042200081EA94E0B8010E94D729D6015F966D918A
:104230007C9190978DEA94E00E949F295BC70E9431
:10424000EF39882309F056C70E9435BF60931B04DD
:1042500070931C0480931D0490931E04809130027F
:1042600083FD48C7F6018081918193FD0AC092FFCA
:104270000AC0878D90A1A1A1B2A10097A105B105A7
:1042800011F40E94931BD6018D919C91119792FF7E
:1042900031C75F968D909D90AD90BC9092979C0198
:1042A0002070317091FF1EC05E960C91232B11F48B
:1042B00010E00FC010E0F601628D738D848D958D36
:1042C00020E030E040E050E00E9441C418160CF4B9
:1042D00011E0C501B4010E94D5C2402F212F0E94D8
:1042E000403E08C7E0915002F09151020081232B1B
:1042F00011F410E011C010E0D6015A966D917D9135
:104300008D919C915D9720E030E040E050E00E946C
:1043100041C418160CF411E0C501B4010E94D5C2C5
:10432000402F212F0E94403EE5C60E94EF3988238E
:1043300009F0E0C60E9435BF60931B0470931C0413
:1043400080931D0490931E048091300283FDD2C699
:10435000F6018081918192FFCDC6E78CF0A001A18A
:1043600012A190FD02C0BB2412C0BB24D6015A96F4
:104370006D917D918D919C915D9720E030E040E0C2
:1043800050E00E9441C4181614F4BB24B394C80131
:10439000B7010E94D5C24B2D0E94783AABC683E08C
:1043A000169507958A95E1F7802F81700E94291B49
:1043B000A1C60E94EF39882309F09CC60E9435BF30
:1043C00060931B0470931C0480931D0490931E043F
:1043D0008091300283FD8EC68AE690E169EF71E03C
:1043E0000E94F3998AE690E10E9408B40E94931B10
:1043F0008090500290905102F6012081318131FF6E
:1044000007C0868D882321F41EE1812E11E0912EB4
:1044100032FF27C0D6015F96ED90FD900D911C9163
:104420009297F401A08030FD02C0BB2412C0BB24CF
:10443000D6015A966D917D918D919C915D9720E06A
:1044400030E040E050E00E9441C4181614F4BB2450
:10445000B394C801B7010E94D5C24A2D2B2D0E94EA
:10446000403EF40166A977A980AD91AD22AD33AD90
:1044700044AD55AD0E946CC17B018C0120E030E061
:1044800040E050E00E9441C418165CF4C801B70136
:1044900020E030E040E050E40E9433C2882364F41E
:1044A00029C6C801B70120E030E040E050EC0E948E
:1044B00041C418160CF41EC63324D401D4962D9191
:1044C0003C91D597D2968D919C91D3978217930763
:1044D00014F4332433940E9435BF69A77AA78BA7BD
:1044E0009CA744245524320110E00E9435BF6DA3DF
:1044F0007EA38FA398A7DC01CB0129A53AA54BA5E4
:104500005CA5821B930BA40BB50B895E9340A04066
:10451000B04058F080E00E94291B8DA19EA1AFA160
:10452000B8A589A79AA7ABA7BCA70E94761B8091C4
:104530005002909151028816990609F067C0D40183
:104540009396ED90FC9094971E141F040CF05EC09F
:10455000112309F05BC0332009F458C091966D9186
:104560007C919297882777FD8095982F0E94D5C2DD
:104570009B01AC01F40166A977A980AD91AD0E94C1
:1045800041C418160CF042C000D000D000D00DB7C6
:104590001EB70F5F1F4F662777276E197F09882781
:1045A00077FD8095982F0E94D5C22091F00130911F
:1045B000F1014091F2015091F3010E94E3C40E9485
:1045C000A2C25B016C01F40187859089A189B2893F
:1045D000F80180839183A283B3831482158260E003
:1045E00070E080E090E020E030E040E050E0EE2439
:1045F000FF2487010E94A86B11E02DB73EB72A5F08
:104600003F4F0FB6F8943EBF0FBE2DBF411451046B
:104610006104710409F053C03320C9F0D401DA9663
:104620006D917D918D919C91DD9720E030E040E887
:104630005FE30E946CC19B01AC01F40166A977A9FC
:1046400080AD91AD0E9441C487FF1AC04ECFD40106
:10465000DA966D917D918D919C91DD9720E030E00F
:1046600040E85FE30E946DC19B01AC01F40166A9C3
:1046700077A980AD91AD0E9433C218160CF435CFE6
:10468000D4015F966D917C919097882777FD8095F6
:10469000982F28EE33E040E050E00E94B9C52B018E
:1046A0003C012DA13EA14FA158A5420E531E641EF0
:1046B000751E411451046104710409F416CFD3012D
:1046C000C2012DA13EA14FA158A5821B930BA40BA3
:1046D000B50B80509449A543B74708F406CF112382
:1046E00009F44AC0809150029091510288169906AF
:1046F00009F042C000D000D000D00DB71EB70F5F48
:104700001F4FD40193966D917C919497882777FDE4
:104710008095982F0E94D5C22091F0013091F1012F
:104720004091F2015091F3010E94E3C40E94A2C2A1
:104730005B016C01F40187859089A189B289F80138
:1047400080839183A283B3831482158260E070E03A
:1047500080E090E020E030E040E050E0EE24FF24F4
:1047600087010E94A86B2DB73EB72A5F3F4F0FB657
:10477000F8943EBF0FBE2DBF1092AA100E9435BF05
:1047800060931B0470931C0480931D0490931E047B
:10479000B1C423FDAFC48AE690E16DEE71E00E94E2
:1047A000F3998AE690E10E9408B40E94931BD60117
:1047B0008D919C91119792FF21C05F96ED90FD9095
:1047C0000D911C91929790FD02C0BB2410C0BB2498
:1047D000F601628D738D848D958D20E030E040E090
:1047E00050E00E9441C4181614F4BB24B394C801CD
:1047F000B7010E94D5C24B2D0E94783A60919B016F
:1048000070919C0180919D0190919E0120919F014A
:104810003091A0014091A1015091A2010E946CC170
:104820007B018C0120E030E040E050E00E9441C478
:1048300018165CF4C801B70120E030E040E450E411
:104840000E9433C2882364F455C4C801B70120E034
:1048500030E040E450EC0E9441C418160CF44AC405
:104860000E9435BF7B018C0114C00E9435BF6E19B8
:104870007F09800B910B695E73408040904038F057
:1048800080E00E94291B0E9435BF7B018C010E94A1
:10489000761B60919B0170919C0180919D0190918C
:1048A0009E0120E030E040E05FE30E946DC1209176
:1048B0009F013091A0014091A1015091A2010E945D
:1048C00033C287FDD2CF1092AA100E9435BF6093E9
:1048D0001B0470931C0480931D0490931E040AC44F
:1048E00023FD08C40E9435BF4B015C010E9435BF07
:1048F000681979098A099B09695E73408040904074
:1049000038F080E00E94291B0E9435BF4B015C01FA
:104910000E94761BC090D501D090D601D6011B967F
:10492000ED90FD900D911C911E97C801B70120E0FC
:1049300030E040EF51E40E9441C41816A4F4C801CD
:10494000B701F60127813085418552850E946CC1EF
:104950009F7720E030E040E85FE30E9441C41816F2
:1049600014F4772402C077247394C090D701D090B8
:10497000D801D6011B96ED90FD900D911C911E97CC
:10498000C801B70120E030E040EF51E40E9441C48B
:1049900018169CF4C801B701F601278130854185BE
:1049A00052850E946CC19F7720E030E040E85FE3D1
:1049B0000E9441C418160CF499CF772009F496CFC1
:1049C00099C312FD03C026E930E005C0D6015F9609
:1049D0002D913C91909713FD03C0CC24DD240AC097
:1049E000F601C3A0D4A0F2E0CF16D1041CF0B2E0CF
:1049F000CB2ED12CF601EE0FFF1FEB52FE4FE080C5
:104A0000F180B901882777FD8095982F0E94D5C243
:104A1000AB01BC01E3E016950795EA95E1F701705B
:104A2000C7012C2D0E94DF3A65C312FD03C08FEF32
:104A300090E005C0D6015F968D919C919097612F73
:104A400066956695669561700E94A11B53C3612FA0
:104A5000669566956695617080E090E00E94A11B66
:104A600049C30E94931B0E9435BF60931B0470933F
:104A70001C0480931D0490931E04579A5F983AC3B8
:104A80000E94931B579A5F9A35C31092C00C32C391
:104A900081E08093C00C2EC312FF14C0F601678D15
:104AA00070A181A192A128EE33E040E050E00E9485
:104AB000B9C56093DA017093DB018093DC019093B8
:104AC000DD0118C30E94931B81E00E94957612C3FA
:104AD00012FF16C0D6015F966D917D918D919C91CC
:104AE000929728EE33E040E050E00E94B9C5609311
:104AF0001F04709320048093210490932204FAC22F
:104B000010921F041092200410922104109222048B
:104B1000F1C203FF0DC0F60182859385A485B5859A
:104B20008093E4019093E501A093E601B093E7013F
:104B3000D6018C9184FF0EC01E968D919D910D9093
:104B4000BC91A02D8093E8019093E901A093EA0124
:104B5000B093EB01F601808185FF0CC082899389B7
:104B6000A489B5898093EC019093ED01A093EE01A7
:104B7000B093EF010E943F77D6018C9186FFBAC2B5
:104B8000E0915002F091510256962D913D914D9138
:104B90005C915997218732874387548780810E948F
:104BA000063FA8C212FF04C0F601878D8093300231
:104BB0008091300283FF9EC260E070E080E090E070
:104BC00040E020E00E94403E95C28AE092E00E94D0
:104BD000032A0E94461A8EC20E9410198BC217FF28
:104BE00089C2D601D3966D917C91D4978AE690E1E3
:104BF0000E94109A8AE690E10E9408B47BC20E944B
:104C0000931B88EB94E00E947C29189B03C085EBE2
:104C100094E002C082EB94E00E947C2986EC94E050
:104C20000E947C29199B03C085EB94E002C082EBB3
:104C300094E00E947C2984ED94E00E947C291A9BD8
:104C400003C085EB94E002C082EB94E00E947C29D3
:104C50000E94371A4FC203FF0DC0F601828593856B
:104C6000A485B5858093100290931102A09312023F
:104C7000B0931302D6018C9184FF0EC01E968D91C5
:104C80009D910D90BC91A02D8093140290931502DC
:104C9000A0931602B0931702F601808185FF0CC025
:104CA00082899389A489B589809318029093190207
:104CB000A0931A02B0931B02D6018C9186FF0EC0FE
:104CC00056968D919D910D90BC91A02D80931C02C4
:104CD00090931D02A0931E02B0931F020E943F7783
:104CE00009C203FF0DC0F60182859385A485B585B1
:104CF0008093200290932102A0932202B09323027A
:104D0000D6018C9184FF0EC01E968D919D910D90C1
:104D1000BC91A02D8093240290932502A09326029B
:104D2000B0932702F601808185FF0CC082899389A8
:104D3000A489B5898093280290932902A0932A021E
:104D4000B0932B02D6018C9186FF0EC056968D91A2
:104D50009D910D90BC91A02D80932C0290932D02DB
:104D6000A0932E02B0932F020E943F77C3C112FF7F
:104D7000C1C1F601278D30A141A152A1121613061F
:104D8000140615061CF020931B01B4C181E080932A
:104D90001B01B0C1809150029091510212FD03C0DD
:104DA000FC01BF9610C0F601878D90A1A1A1B2A110
:104DB000B7FDA0C10097A105B10519F4EDE4F1E03C
:104DC00002C0E4E9F1E003FF0BC0D6011A962D9171
:104DD0003D914D915C911D97228F338F448F558F5C
:104DE000D6018C9184FF0AC01E962D913D914D9164
:104DF0005C915197268F378F40A351A3D6018C9198
:104E000085FF0AC052962D913D914D915C91559729
:104E100022A333A344A355A3CF010E941F376AC125
:104E20000E94202C67C1C6010E94A93463C103FF00
:104E30000DC0F60182859385A485B58580934E0DBE
:104E400090934F0DA093500DB093510DD6018C91BE
:104E500086FF11C0E0915002F091510256962D91BB
:104E60003D914D915C915997278B308F418F528F97
:104E700080810E94063FF601808185FF0CC08289F7
:104E80009389A489B5898093520D9093530DA09373
:104E9000540DB093550D40914E0D50914F0D6091B2
:104EA000500D7091510D82EE94E022E00E94DA2ABA
:104EB0004091520D5091530D6091540D7091550DCC
:104EC00088EE94E022E00E94EF2A14C112FD05C092
:104ED00024E630E040E050E007C0D6015F962D9117
:104EE0003D914D915C919297C9010E94AE1802C10B
:104EF00012FD05C024E630E040E050E005C0F601B8
:104F0000278D30A141A152A1C9010E949918F2C078
:104F100012FFF0C08FB7F89420918C0C30918D0C5B
:104F2000D6015F964D915C919097240F351F309379
:104F30008D0C20938C0C8FBFDDC060912504709187
:104F4000260480EF94E00E94D72960912304709199
:104F500024048FEF94E00E94D729409127045091B8
:104F600028046091290470912A0481E195E022E0EF
:104F70000E94EF2A10922404109223041092260417
:104F80001092250480E090E0A0E0B0E08093270438
:104F900090932804A0932904B0932A04ABC004FF83
:104FA0000EC02091500230915102F60186859785FE
:104FB000A089B189F90181A792A7A3A7B4A7E0911D
:104FC0005002F091510241A552A563A574A589E252
:104FD00095E022E00E94DA2AD6018C9183FF0FC06F
:104FE00020915002309151021A968D919D910D9011
:104FF000BC91A02DF90185A396A3A7A3B0A7E0912A
:105000005002F091510245A156A167A170A583E31A
:1050100095E022E00E94DA2A0E94371A0E94816CF1
:1050200069C00E94931B66C00E94536D63C010FF4D
:1050300008C0D6015A96CD90DD90ED90FC905D971A
:1050400008C0C090460DD090470DE090480DF090FC
:10505000490DB80134E0769567953A95E1F76170AE
:10506000A80125E0569547952A95E1F741709801EA
:1050700096E0369527959A95E1F7217083E016958D
:1050800007958A95E1F7802F8170870176010E944C
:10509000FB7530C080E00E94A02E85E197E00E9461
:1050A000222A28C00E949031E0915002F0915102D2
:1050B00080810E94063F85E397E00E94222A1AC061
:1050C0000E94243517C08BED91E00E94032A12C084
:1050D00011FF07C00E94931BF601868D0E94063FB8
:1050E00009C022FF07C08AEC93E00E947C29C60118
:1050F0000E94EC43E0960FB6F894DEBF0FBECDBF22
:10510000CF91DF911F910F91FF90EF90DF90CF90A3
:10511000BF90AF909F908F907F906F905F904F90D7
:105120003F902F900895CF93DF9320C08091390E48
:10513000882381F0888181FF04C08E819F814D97F3
:1051400039F18EEC9DE0BE010E94D07CCE010E9420
:10515000454803C0CE010E94D01BCE010E94564894
:105160000E94761B8AE690E10E94D09A8091840C7E
:10517000882329F40E94DB43EC01009771F00E9420
:105180003F498AE690E10E94D09A209779F6E8CFCD
:105190008EEC9DE00E94107BD9CFDF91CF910895D6
:1051A000CF93DF930E943F490E94DB43EC018AE6E4
:1051B00090E10E94D09A2097D1F08091390E8823F7
:1051C00081F0888181FF04C08E819F814D9791F08D
:1051D0008EEC9DE0BE010E94D07CCE010E9445482D
:1051E00003C0CE010E94D01BCE010E9456480E94EF
:1051F000E376D8CF8EEC9DE00E94107BEECFCF936C
:10520000DF93EC0105C021968EEF93E00E947E4E65
:1052100068816623C1F7DF91CF910895AF92BF9265
:10522000CF92DF92EF92FF920F931F93DF93CF9372
:10523000CDB7DEB72B970FB6F894DEBF0FBECDBF4C
:10524000C62ED92E1B869BE0A92EB12CAC0EBD1EFE
:105250006C2D9D2D2AE030E040E050E00E940CC60D
:10526000D52E7901042F152F80E3C80EC801B70190
:105270002AE030E040E050E00E94B9C5C61AF501CE
:10528000C2925F01CE2C7F2D802FE114F104010525
:105290001105F1F6CF010E94FF282B960FB6F89466
:1052A000DEBF0FBECDBFCF91DF911F910F91FF9059
:1052B000EF90DF90CF90BF90AF900895EF92FF9264
:1052C0000F931F937B018C0197FF0DC08EEF93E02E
:1052D0006DE20E947E4E10950095F094E094E11CE2
:1052E000F11C011D111DC801B7010E940E291F915B
:1052F0000F91FF90EF900895CF93DF93EC0104C0DE
:105300008EEF93E00E947E4EFE016491219666230B
:10531000B9F7DF91CF910895EF92FF920F931F930A
:105320007A018B010E947C29C801B7010E940E29D5
:105330000E94371A1F910F91FF90EF900895EF92FE
:10534000FF920F931F937B010E947C290027F7FC9B
:105350000095102FC801B7010E945E290E94371ADC
:105360001F910F91FF90EF900895EF92FF920F938E
:105370001F937A018B010E947C29C801B7010E940A
:105380000E291F910F91FF90EF900895EF92FF92D9
:105390000F931F937A018B010E947C29C801B701EA
:1053A0000E945E291F910F91FF90EF900895EF9258
:1053B000FF920F931F937B010E947C290027F7FC2B
:1053C0000095102FC801B7010E945E291F910F910F
:1053D000FF90EF9008950F931F938B010E947C29FB
:1053E000C8010E94FF281F910F9108950F931F93EA
:1053F0008B010E947C29C8010E94FF280E94371A55
:105400001F910F9108950E947C290E94371A0895D8
:105410000F931F938C0185EC92E00E947C29C801B8
:105420000E94032A1F910F9108950F931F938C01DF
:105430008CEC92E00E947C29C8010E94032A1F91F3
:105440000F9108950F931F938C018CEC92E00E94B2
:105450007C29C8010E947C291F910F9108959F9279
:10546000AF92BF92CF92DF92EF92FF920F931F9372
:10547000CF93DF937B018C01942EA80197010E94AA
:105480009DC5882319F08DEB92E020C0C0E0D0E0EC
:1054900057016801E894D7F8C601B5012FEF3FEF37
:1054A0004FE75FE70E949DC5882351F4C601B5010F
:1054B0002FEF3FEF4FE75FE70E9433C2181614F05B
:1054C000C1E0D0E0219729F081EC92E00E947C2994
:1054D00065C0C801B70120E030E040E050E00E9424
:1054E00033C288234CF48EEF93E06DE20E947E4E2F
:1054F00017FB109517F9109520E030E040E05FE3CE
:10550000DD240BC0CA01B90120E030E040E251E4E3
:105510000E943AC29B01AC01D394D91498F3C801FC
:10552000B7010E946DC15B016C010E94A7C27B01A3
:105530008C010E940E29992029F08EEF93E06EE2F3
:105540000E947E4EC801B7010E94D3C29B01AC01EC
:10555000C601B5010E946CC11FC020E030E040E2EE
:1055600051E40E94E3C47B018C010E94A2C25B0152
:105570006C01CC24B7FCC094DC2CC601B5010E94A0
:105580005E29C601B5010E94D5C29B01AC01C801CC
:10559000B7010E946CC19A949920F9F6DF91CF91DE
:1055A0001F910F91FF90EF90DF90CF90BF90AF9041
:1055B0009F900895DF92EF92FF920F931F937A01CD
:1055C0008B01D22E0E947C29C801B7014D2D0E946B
:1055D0002F2A1F910F91FF90EF90DF900895DF9297
:1055E000EF92FF920F931F937A018B01D22E0E94AC
:1055F0007C29C801B7014D2D0E942F2A0E94371A1D
:105600001F910F91FF90EF90DF9008959C01F99901
:10561000FECF32BD21BDF89A80B508959C01F9995D
:10562000FECF1FBA32BD21BD60BD0FB6F894FA9A05
:10563000F99A0FBE0895885C904022E08835920761
:1056400078F464E670E00E94E5C56F5F7F4F8CE9F7
:1056500097E00E94D7298EEF93E060E20E947E4E91
:1056600008950F931F93CF93DF93EC018B0182EA90
:1056700097E0BE010E94D7298EEF93E060E20E947E
:105680007E4EF999FECFD2BDC1BDF89A60B570E0EB
:10569000882777FD8095982F0E945E298EEF93E0F2
:1056A00060E20E947E4ECE010E941B2BC8010E9428
:1056B000032ADF91CF911F910F910895CF92DF922E
:1056C000EF92FF920F931F938C016B0189EA97E091
:1056D000B8010E94D7298EEFE82E83E0F82EC7018B
:1056E00060E20E947E4EC80166E07BE20E940F18D5
:1056F000AA2797FDA095BA2FBC01CD010E945E2973
:10570000C70160E20E947E4EC8010E941B2BC601A9
:105710000E94032A1F910F91FF90EF90DF90CF908E
:105720000895CF92DF92EF92FF920F931F938C0117
:105730006B0180EB97E0B8010E94D7299EEFE92E1C
:1057400093E0F92EC70160E20E947E4EC80166E038
:105750007BE20E94E9170E945E29C70160E20E9475
:105760007E4EC8010E941B2BC6010E94032A1F9176
:105770000F91FF90EF90DF90CF900895F999FECFB1
:1057800012BC11BCF89A80B5813071F48BE490E0C2
:1057900066E07BE20E94E9176093DE017093DF010F
:1057A0008093E0019093E1010895DF93CF9300D0BF
:1057B00000D0CDB7DEB7BC01CE01019644E050E089
:1057C00026E03BE20E94CD1729813A814B815C8122
:1057D000B901CA010F900F900F900F90CF91DF91F8
:1057E0000895BF92CF92DF92EF92FF920F931F9393
:1057F0008C016B01B42E87EB97E0B8010E94D7298A
:105800002EEFE22E23E0F22EC70160E20E947E4ED0
:10581000C8010E94D52B4B2D0E942F2AC70160E2A0
:105820000E947E4EC8010E941B2BC6010E94032AC3
:105830001F910F91FF90EF90DF90CF90BF90089550
:105840008BE490E06EEB77E00E94912B81E890E092
:1058500067EC77E043E00E94F12B8DE790E06CED80
:1058600077E00E94912B8FE490E06FEE77E00E944A
:10587000912B83E590E06DE078E00E94912B83E02E
:1058800090E060EF78E044E00E94F12B87E090E048
:1058900064E079E044E00E94F12B8BE090E068E165
:1058A00079E044E00E94F12B8FE090E06CE279E037
:1058B00043E00E94F12B83E190E068E479E043E06B
:1058C0000E94F12B87E190E064E679E043E00E94DA
:1058D000F12B8BE190E060E879E043E00E94F12B4E
:1058E0008FE190E06EE979E043E00E94F12B83E2E2
:1058F00090E06CEB79E043E00E94F12B87E290E0CE
:105900006CEC78E043E00E94F12B8FE290E06DEDCB
:1059100078E043E00E94F12B85E890E066E378E0D0
:1059200043E00E94F12B89E890E066E478E043E0F0
:105930000E94F12B8DE890E066E578E043E00E945C
:10594000F12B81E990E066E678E043E00E94F12BDC
:1059500085E990E068E778E043E00E94F12B89E96F
:1059600090E06AE878E043E00E94F12B83E390E066
:105970006AED79E043E00E94F12B87E390E067EF66
:1059800079E043E00E94F12B8BE390E064E17AE060
:1059900043E00E94F12B8FE390E061E37AE043E083
:1059A0000E94F12B83E490E065E57AE043E00E94F9
:1059B000F12B87E490E069E77AE043E00E94F12B65
:1059C0008AE690E06AE47BE00E94312B8BE690E06F
:1059D00061E67BE00E94312B8CE790E063E77BE09F
:1059E0000E94312B8CE690E065E87BE043E00E946A
:1059F000F12B80E790E064E97BE043E00E94F12B2B
:105A000084E790E063EA7BE043E00E94F12B88E7C3
:105A100090E062EB7BE00E94312B88EC90E06CEC34
:105A20007BE043E00E94F12B8CEC90E069ED7BE0A1
:105A300043E00E94F12B80ED90E06EEE7BE043E0CE
:105A40000E94F12B84ED90E064E07CE043E00E9452
:105A5000F12B88ED90E06AE17CE00E94312B89ED2A
:105A600090E06DE27CE00E94312B85EF90E06BE3EB
:105A70007CE00E94312B8AED90E069E47CE044E018
:105A80000E94F12B8EED90E06EE57CE044E00E94F8
:105A9000F12B82EE90E069E67CE044E00E94F12B7D
:105AA00086EE90E064E77CE00E94312B87EE90E088
:105AB0006AE87CE00E94912B8BEE90E06BE97CE041
:105AC0000E94912B8FEE90E06CEA7CE00E945E2BAE
:105AD0008AEF90E065EC7CE00E945E2B8CEF90E01A
